{
  "address": "0x221054EF60973f6b25dA556a0A41e5369289c1d0",
  "abi": [
    {
      "inputs": [],
      "stateMutability": "nonpayable",
      "type": "constructor"
    },
    {
      "anonymous": false,
      "inputs": [
        {
          "indexed": true,
          "internalType": "address",
          "name": "owner",
          "type": "address"
        },
        {
          "indexed": true,
          "internalType": "address",
          "name": "approved",
          "type": "address"
        },
        {
          "indexed": true,
          "internalType": "uint256",
          "name": "tokenId",
          "type": "uint256"
        }
      ],
      "name": "Approval",
      "type": "event"
    },
    {
      "anonymous": false,
      "inputs": [
        {
          "indexed": true,
          "internalType": "address",
          "name": "owner",
          "type": "address"
        },
        {
          "indexed": true,
          "internalType": "address",
          "name": "operator",
          "type": "address"
        },
        {
          "indexed": false,
          "internalType": "bool",
          "name": "approved",
          "type": "bool"
        }
      ],
      "name": "ApprovalForAll",
      "type": "event"
    },
    {
      "anonymous": false,
      "inputs": [
        {
          "indexed": true,
          "internalType": "address",
          "name": "previousOwner",
          "type": "address"
        },
        {
          "indexed": true,
          "internalType": "address",
          "name": "newOwner",
          "type": "address"
        }
      ],
      "name": "OwnershipTransferred",
      "type": "event"
    },
    {
      "anonymous": false,
      "inputs": [
        {
          "indexed": true,
          "internalType": "address",
          "name": "from",
          "type": "address"
        },
        {
          "indexed": true,
          "internalType": "address",
          "name": "to",
          "type": "address"
        },
        {
          "indexed": true,
          "internalType": "uint256",
          "name": "tokenId",
          "type": "uint256"
        }
      ],
      "name": "Transfer",
      "type": "event"
    },
    {
      "inputs": [
        {
          "internalType": "address",
          "name": "to",
          "type": "address"
        },
        {
          "internalType": "uint256",
          "name": "tokenId",
          "type": "uint256"
        }
      ],
      "name": "approve",
      "outputs": [],
      "stateMutability": "nonpayable",
      "type": "function"
    },
    {
      "inputs": [
        {
          "internalType": "address",
          "name": "owner",
          "type": "address"
        }
      ],
      "name": "balanceOf",
      "outputs": [
        {
          "internalType": "uint256",
          "name": "",
          "type": "uint256"
        }
      ],
      "stateMutability": "view",
      "type": "function"
    },
    {
      "inputs": [],
      "name": "bearPrice",
      "outputs": [
        {
          "internalType": "uint256",
          "name": "",
          "type": "uint256"
        }
      ],
      "stateMutability": "view",
      "type": "function"
    },
    {
      "inputs": [],
      "name": "bearsTime1",
      "outputs": [
        {
          "internalType": "uint256",
          "name": "",
          "type": "uint256"
        }
      ],
      "stateMutability": "view",
      "type": "function"
    },
    {
      "inputs": [],
      "name": "bearsTime2",
      "outputs": [
        {
          "internalType": "uint256",
          "name": "",
          "type": "uint256"
        }
      ],
      "stateMutability": "view",
      "type": "function"
    },
    {
      "inputs": [],
      "name": "bearsTime3",
      "outputs": [
        {
          "internalType": "uint256",
          "name": "",
          "type": "uint256"
        }
      ],
      "stateMutability": "view",
      "type": "function"
    },
    {
      "inputs": [],
      "name": "bullPrice",
      "outputs": [
        {
          "internalType": "uint256",
          "name": "",
          "type": "uint256"
        }
      ],
      "stateMutability": "view",
      "type": "function"
    },
    {
      "inputs": [],
      "name": "bullsTime1",
      "outputs": [
        {
          "internalType": "uint256",
          "name": "",
          "type": "uint256"
        }
      ],
      "stateMutability": "view",
      "type": "function"
    },
    {
      "inputs": [],
      "name": "bullsTime2",
      "outputs": [
        {
          "internalType": "uint256",
          "name": "",
          "type": "uint256"
        }
      ],
      "stateMutability": "view",
      "type": "function"
    },
    {
      "inputs": [],
      "name": "bullsTime3",
      "outputs": [
        {
          "internalType": "uint256",
          "name": "",
          "type": "uint256"
        }
      ],
      "stateMutability": "view",
      "type": "function"
    },
    {
      "inputs": [
        {
          "internalType": "enum DiscType",
          "name": "discType_",
          "type": "uint8"
        }
      ],
      "name": "calculateTokenPrice",
      "outputs": [
        {
          "internalType": "uint256",
          "name": "",
          "type": "uint256"
        }
      ],
      "stateMutability": "view",
      "type": "function"
    },
    {
      "inputs": [],
      "name": "farmerPrice",
      "outputs": [
        {
          "internalType": "uint256",
          "name": "",
          "type": "uint256"
        }
      ],
      "stateMutability": "view",
      "type": "function"
    },
    {
      "inputs": [],
      "name": "farmersTime1",
      "outputs": [
        {
          "internalType": "uint256",
          "name": "",
          "type": "uint256"
        }
      ],
      "stateMutability": "view",
      "type": "function"
    },
    {
      "inputs": [],
      "name": "farmersTime2",
      "outputs": [
        {
          "internalType": "uint256",
          "name": "",
          "type": "uint256"
        }
      ],
      "stateMutability": "view",
      "type": "function"
    },
    {
      "inputs": [],
      "name": "farmersTime3",
      "outputs": [
        {
          "internalType": "uint256",
          "name": "",
          "type": "uint256"
        }
      ],
      "stateMutability": "view",
      "type": "function"
    },
    {
      "inputs": [],
      "name": "flipSaleState",
      "outputs": [],
      "stateMutability": "nonpayable",
      "type": "function"
    },
    {
      "inputs": [
        {
          "internalType": "address",
          "name": "ownerOfCharacters_",
          "type": "address"
        }
      ],
      "name": "getAllMyCharacters",
      "outputs": [
        {
          "components": [
            {
              "internalType": "uint256",
              "name": "tokenID",
              "type": "uint256"
            },
            {
              "internalType": "enum DiscType",
              "name": "discType",
              "type": "uint8"
            },
            {
              "internalType": "uint256",
              "name": "mintable",
              "type": "uint256"
            }
          ],
          "internalType": "struct Character.Mintable[]",
          "name": "",
          "type": "tuple[]"
        }
      ],
      "stateMutability": "view",
      "type": "function"
    },
    {
      "inputs": [
        {
          "internalType": "uint256",
          "name": "tokenId",
          "type": "uint256"
        }
      ],
      "name": "getApproved",
      "outputs": [
        {
          "internalType": "address",
          "name": "",
          "type": "address"
        }
      ],
      "stateMutability": "view",
      "type": "function"
    },
    {
      "inputs": [
        {
          "internalType": "address",
          "name": "ownerOfCharacters_",
          "type": "address"
        },
        {
          "internalType": "uint256",
          "name": "mintID_",
          "type": "uint256"
        }
      ],
      "name": "getMintableCharacter",
      "outputs": [
        {
          "components": [
            {
              "internalType": "uint256",
              "name": "tokenID",
              "type": "uint256"
            },
            {
              "internalType": "enum DiscType",
              "name": "discType",
              "type": "uint8"
            },
            {
              "internalType": "uint256",
              "name": "mintable",
              "type": "uint256"
            }
          ],
          "internalType": "struct Character.Mintable",
          "name": "",
          "type": "tuple"
        }
      ],
      "stateMutability": "view",
      "type": "function"
    },
    {
      "inputs": [
        {
          "internalType": "uint256",
          "name": "",
          "type": "uint256"
        }
      ],
      "name": "idAlreadyMinted",
      "outputs": [
        {
          "internalType": "bool",
          "name": "",
          "type": "bool"
        }
      ],
      "stateMutability": "view",
      "type": "function"
    },
    {
      "inputs": [
        {
          "internalType": "address",
          "name": "owner",
          "type": "address"
        },
        {
          "internalType": "address",
          "name": "operator",
          "type": "address"
        }
      ],
      "name": "isApprovedForAll",
      "outputs": [
        {
          "internalType": "bool",
          "name": "",
          "type": "bool"
        }
      ],
      "stateMutability": "view",
      "type": "function"
    },
    {
      "inputs": [
        {
          "internalType": "uint256",
          "name": "mintID_",
          "type": "uint256"
        }
      ],
      "name": "mintMyCharacter",
      "outputs": [],
      "stateMutability": "nonpayable",
      "type": "function"
    },
    {
      "inputs": [
        {
          "internalType": "address",
          "name": "",
          "type": "address"
        },
        {
          "internalType": "uint256",
          "name": "",
          "type": "uint256"
        }
      ],
      "name": "mintableCharacters",
      "outputs": [
        {
          "internalType": "uint256",
          "name": "tokenID",
          "type": "uint256"
        },
        {
          "internalType": "enum DiscType",
          "name": "discType",
          "type": "uint8"
        },
        {
          "internalType": "uint256",
          "name": "mintable",
          "type": "uint256"
        }
      ],
      "stateMutability": "view",
      "type": "function"
    },
    {
      "inputs": [],
      "name": "name",
      "outputs": [
        {
          "internalType": "string",
          "name": "",
          "type": "string"
        }
      ],
      "stateMutability": "view",
      "type": "function"
    },
    {
      "inputs": [
        {
          "internalType": "uint256",
          "name": "",
          "type": "uint256"
        }
      ],
      "name": "newTokenUri",
      "outputs": [
        {
          "internalType": "uint256",
          "name": "",
          "type": "uint256"
        }
      ],
      "stateMutability": "view",
      "type": "function"
    },
    {
      "inputs": [],
      "name": "owner",
      "outputs": [
        {
          "internalType": "address",
          "name": "",
          "type": "address"
        }
      ],
      "stateMutability": "view",
      "type": "function"
    },
    {
      "inputs": [
        {
          "internalType": "uint256",
          "name": "tokenId",
          "type": "uint256"
        }
      ],
      "name": "ownerOf",
      "outputs": [
        {
          "internalType": "address",
          "name": "",
          "type": "address"
        }
      ],
      "stateMutability": "view",
      "type": "function"
    },
    {
      "inputs": [],
      "name": "pepeDiscAddress",
      "outputs": [
        {
          "internalType": "address",
          "name": "",
          "type": "address"
        }
      ],
      "stateMutability": "view",
      "type": "function"
    },
    {
      "inputs": [],
      "name": "pepeStakingAddress",
      "outputs": [
        {
          "internalType": "address",
          "name": "",
          "type": "address"
        }
      ],
      "stateMutability": "view",
      "type": "function"
    },
    {
      "inputs": [
        {
          "internalType": "uint256",
          "name": "discID_",
          "type": "uint256"
        },
        {
          "internalType": "uint256",
          "name": "pepePrice_",
          "type": "uint256"
        }
      ],
      "name": "prepareMint",
      "outputs": [],
      "stateMutability": "nonpayable",
      "type": "function"
    },
    {
      "inputs": [
        {
          "internalType": "enum DiscType",
          "name": "",
          "type": "uint8"
        }
      ],
      "name": "rarityPerToken",
      "outputs": [
        {
          "internalType": "uint256",
          "name": "",
          "type": "uint256"
        }
      ],
      "stateMutability": "view",
      "type": "function"
    },
    {
      "inputs": [],
      "name": "renounceOwnership",
      "outputs": [],
      "stateMutability": "nonpayable",
      "type": "function"
    },
    {
      "inputs": [
        {
          "internalType": "address",
          "name": "from",
          "type": "address"
        },
        {
          "internalType": "address",
          "name": "to",
          "type": "address"
        },
        {
          "internalType": "uint256",
          "name": "tokenId",
          "type": "uint256"
        }
      ],
      "name": "safeTransferFrom",
      "outputs": [],
      "stateMutability": "nonpayable",
      "type": "function"
    },
    {
      "inputs": [
        {
          "internalType": "address",
          "name": "from",
          "type": "address"
        },
        {
          "internalType": "address",
          "name": "to",
          "type": "address"
        },
        {
          "internalType": "uint256",
          "name": "tokenId",
          "type": "uint256"
        },
        {
          "internalType": "bytes",
          "name": "data",
          "type": "bytes"
        }
      ],
      "name": "safeTransferFrom",
      "outputs": [],
      "stateMutability": "nonpayable",
      "type": "function"
    },
    {
      "inputs": [],
      "name": "saleIsActive",
      "outputs": [
        {
          "internalType": "bool",
          "name": "",
          "type": "bool"
        }
      ],
      "stateMutability": "view",
      "type": "function"
    },
    {
      "inputs": [
        {
          "internalType": "address",
          "name": "operator",
          "type": "address"
        },
        {
          "internalType": "bool",
          "name": "approved",
          "type": "bool"
        }
      ],
      "name": "setApprovalForAll",
      "outputs": [],
      "stateMutability": "nonpayable",
      "type": "function"
    },
    {
      "inputs": [
        {
          "internalType": "string",
          "name": "nftBaseURI_",
          "type": "string"
        }
      ],
      "name": "setBaseURI",
      "outputs": [],
      "stateMutability": "nonpayable",
      "type": "function"
    },
    {
      "inputs": [
        {
          "internalType": "address",
          "name": "pepeDiscAddress_",
          "type": "address"
        }
      ],
      "name": "setPepeDiscAddress",
      "outputs": [],
      "stateMutability": "nonpayable",
      "type": "function"
    },
    {
      "inputs": [
        {
          "internalType": "address",
          "name": "pepeStakingAddress_",
          "type": "address"
        }
      ],
      "name": "setPepeStakingAddress",
      "outputs": [],
      "stateMutability": "nonpayable",
      "type": "function"
    },
    {
      "inputs": [
        {
          "internalType": "bytes4",
          "name": "interfaceId",
          "type": "bytes4"
        }
      ],
      "name": "supportsInterface",
      "outputs": [
        {
          "internalType": "bool",
          "name": "",
          "type": "bool"
        }
      ],
      "stateMutability": "view",
      "type": "function"
    },
    {
      "inputs": [],
      "name": "symbol",
      "outputs": [
        {
          "internalType": "string",
          "name": "",
          "type": "string"
        }
      ],
      "stateMutability": "view",
      "type": "function"
    },
    {
      "inputs": [
        {
          "internalType": "uint256",
          "name": "index",
          "type": "uint256"
        }
      ],
      "name": "tokenByIndex",
      "outputs": [
        {
          "internalType": "uint256",
          "name": "",
          "type": "uint256"
        }
      ],
      "stateMutability": "view",
      "type": "function"
    },
    {
      "inputs": [
        {
          "internalType": "address",
          "name": "owner",
          "type": "address"
        },
        {
          "internalType": "uint256",
          "name": "index",
          "type": "uint256"
        }
      ],
      "name": "tokenOfOwnerByIndex",
      "outputs": [
        {
          "internalType": "uint256",
          "name": "",
          "type": "uint256"
        }
      ],
      "stateMutability": "view",
      "type": "function"
    },
    {
      "inputs": [
        {
          "internalType": "uint256",
          "name": "",
          "type": "uint256"
        }
      ],
      "name": "tokenPerRarity",
      "outputs": [
        {
          "internalType": "enum DiscType",
          "name": "",
          "type": "uint8"
        }
      ],
      "stateMutability": "view",
      "type": "function"
    },
    {
      "inputs": [
        {
          "internalType": "uint256",
          "name": "tokenID_",
          "type": "uint256"
        }
      ],
      "name": "tokenURI",
      "outputs": [
        {
          "internalType": "string",
          "name": "",
          "type": "string"
        }
      ],
      "stateMutability": "view",
      "type": "function"
    },
    {
      "inputs": [],
      "name": "totalSupply",
      "outputs": [
        {
          "internalType": "uint256",
          "name": "",
          "type": "uint256"
        }
      ],
      "stateMutability": "view",
      "type": "function"
    },
    {
      "inputs": [
        {
          "internalType": "address",
          "name": "from",
          "type": "address"
        },
        {
          "internalType": "address",
          "name": "to",
          "type": "address"
        },
        {
          "internalType": "uint256",
          "name": "tokenId",
          "type": "uint256"
        }
      ],
      "name": "transferFrom",
      "outputs": [],
      "stateMutability": "nonpayable",
      "type": "function"
    },
    {
      "inputs": [
        {
          "internalType": "address",
          "name": "newOwner",
          "type": "address"
        }
      ],
      "name": "transferOwnership",
      "outputs": [],
      "stateMutability": "nonpayable",
      "type": "function"
    },
    {
      "inputs": [],
      "name": "withdraw",
      "outputs": [],
      "stateMutability": "nonpayable",
      "type": "function"
    },
    {
      "stateMutability": "payable",
      "type": "receive"
    }
  ],
  "transactionHash": "0x00497685055870975a5aaa90b40daa97ac54020f3dce4808c3c7ccb511c5a185",
  "args": [],
  "numDeployments": 4,
  "solcInputHash": "42404949f7befda5f5f8cbdf229f8d51",
  "bytecode": "0x6080604052600a805460ff60a01b191690556000600b819055610e10600c819055600d819055600e819055600f829055601081905560118190556012819055601391909155601481905560158190556016553480156200005e57600080fd5b506040518060400160405280600a8152602001694368617261637465727360b01b81525060405180604001604052806002815260200161504360f01b8152508160009081620000ae9190620001db565b506001620000bd8282620001db565b505050620000da620000d4620000e060201b60201c565b620000e4565b620002a7565b3390565b600a80546001600160a01b038381166001600160a01b0319831681179093556040519116919082907f8be0079c531659141344cd1fd0a4f28419497f9722a3daafe3b4186f6b6457e090600090a35050565b634e487b7160e01b600052604160045260246000fd5b600181811c908216806200016157607f821691505b6020821081036200018257634e487b7160e01b600052602260045260246000fd5b50919050565b601f821115620001d657600081815260208120601f850160051c81016020861015620001b15750805b601f850160051c820191505b81811015620001d257828155600101620001bd565b5050505b505050565b81516001600160401b03811115620001f757620001f762000136565b6200020f816200020884546200014c565b8462000188565b602080601f8311600181146200024757600084156200022e5750858301515b600019600386901b1c1916600185901b178555620001d2565b600085815260208120601f198616915b82811015620002785788860151825594840194600190910190840162000257565b5085821015620002975787850151600019600388901b60f8161c191681555b5050505050600190811b01905550565b61342f80620002b76000396000f3fe6080604052600436106103225760003560e01c806369c034ff116101a5578063b88d4fde116100ec578063e83850f611610095578063f2fde38b1161006f578063f2fde38b146108e3578063f5d57e1114610903578063fc1377da14610919578063fcd46a1d1461092f57600080fd5b8063e83850f61461087b578063e985e9c514610891578063eb8d2444146108b157600080fd5b8063c87b56dd116100c6578063c87b56dd146107fe578063d3f71cb51461081e578063e376bdfa1461085b57600080fd5b8063b88d4fde146107a8578063c205ae19146107c8578063c829ca06146107de57600080fd5b80638a6002f81161014e57806395d89b411161012857806395d89b41146107435780639ad30f1f14610758578063a22cb4651461078857600080fd5b80638a6002f8146106ef5780638d8546b41461070f5780638da5cb5b1461072557600080fd5b80637d292b4f1161017f5780637d292b4f14610682578063829b4d20146106a257806383211c4d146106c257600080fd5b806369c034ff1461062057806370a082311461064d578063715018a61461066d57600080fd5b806323b872dd1161026957806342842e0e116102125780635d9ff0ad116101ec5780635d9ff0ad146105d457806361624198146105ea5780636352211e1461060057600080fd5b806342842e0e146105745780634f6ccce71461059457806355f804b3146105b457600080fd5b806334918dfd1161024357806334918dfd1461052a57806338cb953e1461053f5780633ccfd60b1461055f57600080fd5b806323b872dd146104ca5780632d177259146104ea5780632f745c591461050a57600080fd5b806309b0aef5116102cb57806318160ddd116102a557806318160ddd146104725780631b006f10146104875780632341061e1461049d57600080fd5b806309b0aef5146104195780630e197fd41461042f578063134a89721461044557600080fd5b8063081812fc116102fc578063081812fc146103a95780630832bd18146103e1578063095ea7b3146103f757600080fd5b806301ffc9a71461032e578063027cc4db1461036357806306fdde031461038757600080fd5b3661032957005b600080fd5b34801561033a57600080fd5b5061034e610349366004612caa565b61095e565b60405190151581526020015b60405180910390f35b34801561036f57600080fd5b5061037960125481565b60405190815260200161035a565b34801561039357600080fd5b5061039c6109ba565b60405161035a9190612d17565b3480156103b557600080fd5b506103c96103c4366004612d2a565b610a4c565b6040516001600160a01b03909116815260200161035a565b3480156103ed57600080fd5b50610379600d5481565b34801561040357600080fd5b50610417610412366004612d58565b610a73565b005b34801561042557600080fd5b50610379600b5481565b34801561043b57600080fd5b5061037960115481565b34801561045157600080fd5b50610465610460366004612d84565b610ba9565b60405161035a9190612dfb565b34801561047e57600080fd5b50600854610379565b34801561049357600080fd5b50610379600f5481565b3480156104a957600080fd5b506103796104b8366004612d2a565b601a6020526000908152604090205481565b3480156104d657600080fd5b506104176104e5366004612e49565b610c69565b3480156104f657600080fd5b506019546103c9906001600160a01b031681565b34801561051657600080fd5b50610379610525366004612d58565b610cf0565b34801561053657600080fd5b50610417610d98565b34801561054b57600080fd5b5061041761055a366004612e8a565b610ded565b34801561056b57600080fd5b506104176112a6565b34801561058057600080fd5b5061041761058f366004612e49565b611324565b3480156105a057600080fd5b506103796105af366004612d2a565b61133f565b3480156105c057600080fd5b506104176105cf366004612eac565b6113e3565b3480156105e057600080fd5b5061037960135481565b3480156105f657600080fd5b5061037960155481565b34801561060c57600080fd5b506103c961061b366004612d2a565b6113f8565b34801561062c57600080fd5b5061037961063b366004612f2b565b601b6020526000908152604090205481565b34801561065957600080fd5b50610379610668366004612d84565b61145d565b34801561067957600080fd5b506104176114f7565b34801561068e57600080fd5b5061041761069d366004612d2a565b61150b565b3480156106ae57600080fd5b506103796106bd366004612f2b565b61174f565b3480156106ce57600080fd5b506106e26106dd366004612d58565b61179f565b60405161035a9190612f48565b3480156106fb57600080fd5b506018546103c9906001600160a01b031681565b34801561071b57600080fd5b5061037960105481565b34801561073157600080fd5b50600a546001600160a01b03166103c9565b34801561074f57600080fd5b5061039c6118fd565b34801561076457600080fd5b5061034e610773366004612d2a565b601d6020526000908152604090205460ff1681565b34801561079457600080fd5b506104176107a3366004612f56565b61190c565b3480156107b457600080fd5b506104176107c3366004612faa565b611917565b3480156107d457600080fd5b5061037960165481565b3480156107ea57600080fd5b506104176107f9366004612d84565b6119a5565b34801561080a57600080fd5b5061039c610819366004612d2a565b6119dc565b34801561082a57600080fd5b5061084e610839366004612d2a565b601c6020526000908152604090205460ff1681565b60405161035a919061308a565b34801561086757600080fd5b50610417610876366004612d84565b611b8e565b34801561088757600080fd5b50610379600e5481565b34801561089d57600080fd5b5061034e6108ac366004613098565b611bc5565b3480156108bd57600080fd5b50600a5461034e9074010000000000000000000000000000000000000000900460ff1681565b3480156108ef57600080fd5b506104176108fe366004612d84565b611c17565b34801561090f57600080fd5b50610379600c5481565b34801561092557600080fd5b5061037960145481565b34801561093b57600080fd5b5061094f61094a366004612d58565b611ca7565b60405161035a939291906130c6565b60007fffffffff0000000000000000000000000000000000000000000000000000000082167f780e9d630000000000000000000000000000000000000000000000000000000014806109b457506109b482611ced565b92915050565b6060600080546109c9906130e8565b80601f01602080910402602001604051908101604052809291908181526020018280546109f5906130e8565b8015610a425780601f10610a1757610100808354040283529160200191610a42565b820191906000526020600020905b815481529060010190602001808311610a2557829003601f168201915b5050505050905090565b6000610a5782611dd0565b506000908152600460205260409020546001600160a01b031690565b6000610a7e826113f8565b9050806001600160a01b0316836001600160a01b031603610b0c5760405162461bcd60e51b815260206004820152602160248201527f4552433732313a20617070726f76616c20746f2063757272656e74206f776e6560448201527f720000000000000000000000000000000000000000000000000000000000000060648201526084015b60405180910390fd5b336001600160a01b0382161480610b285750610b288133611bc5565b610b9a5760405162461bcd60e51b815260206004820152603d60248201527f4552433732313a20617070726f76652063616c6c6572206973206e6f7420746f60448201527f6b656e206f776e6572206f7220617070726f76656420666f7220616c6c0000006064820152608401610b03565b610ba48383611e34565b505050565b6001600160a01b0381166000908152601e60209081526040808320805482518185028101850190935280835260609493849084015b82821015610c5d5783829060005260206000209060030201604051806060016040529081600082015481526020016001820160009054906101000a900460ff166002811115610c2f57610c2f612da1565b6002811115610c4057610c40612da1565b815260200160028201548152505081526020019060010190610bde565b50929695505050505050565b610c733382611eaf565b610ce55760405162461bcd60e51b815260206004820152602d60248201527f4552433732313a2063616c6c6572206973206e6f7420746f6b656e206f776e6560448201527f72206f7220617070726f766564000000000000000000000000000000000000006064820152608401610b03565b610ba4838383611f0e565b6000610cfb8361145d565b8210610d6f5760405162461bcd60e51b815260206004820152602b60248201527f455243373231456e756d657261626c653a206f776e657220696e646578206f7560448201527f74206f6620626f756e64730000000000000000000000000000000000000000006064820152608401610b03565b506001600160a01b03919091166000908152600660209081526040808320938352929052205490565b610da0612151565b600a80547fffffffffffffffffffffff00ffffffffffffffffffffffffffffffffffffffff8116740100000000000000000000000000000000000000009182900460ff1615909102179055565b6018546019546040517f70a082310000000000000000000000000000000000000000000000000000000081523360048201526001600160a01b039283169290911690839082906370a0823190602401602060405180830381865afa158015610e59573d6000803e3d6000fd5b505050506040513d601f19601f82011682018060405250810190610e7d9190613122565b1015610ecb5760405162461bcd60e51b815260206004820152601360248201527f796f75206e656564206d6f7265202450455045000000000000000000000000006044820152606401610b03565b6040517f6352211e0000000000000000000000000000000000000000000000000000000081526004810185905233906001600160a01b03841690636352211e90602401602060405180830381865afa158015610f2b573d6000803e3d6000fd5b505050506040513d601f19601f82011682018060405250810190610f4f919061313b565b6001600160a01b031614610fa55760405162461bcd60e51b815260206004820152601660248201527f796f7520617265206e6f7420746865206f776e657221000000000000000000006044820152606401610b03565b6040517f0fd15ed1000000000000000000000000000000000000000000000000000000008152600481018590526000906001600160a01b03841690630fd15ed190602401602060405180830381865afa158015611006573d6000803e3d6000fd5b505050506040513d601f19601f8201168201806040525081019061102a9190613158565b905060006110378261174f565b9050808510156110895760405162461bcd60e51b815260206004820152601060248201527f6e656564206d6f726520245045504521000000000000000000000000000000006044820152606401610b03565b6040517f2cee6e82000000000000000000000000000000000000000000000000000000008152600481018790526000906001600160a01b03861690632cee6e8290602401602060405180830381865afa1580156110ea573d6000803e3d6000fd5b505050506040513d601f19601f8201168201806040525081019061110e9190613122565b90506000604051806060016040528089815260200185600281111561113557611135612da1565b815260200161114486856121ab565b90526040517ffc818684000000000000000000000000000000000000000000000000000000008152600481018a90529091506001600160a01b0387169063fc81868490602401600060405180830381600087803b1580156111a457600080fd5b505af11580156111b8573d6000803e3d6000fd5b50506040517f6a9605ac000000000000000000000000000000000000000000000000000000008152336004820152602481018690526001600160a01b0388169250636a9605ac9150604401600060405180830381600087803b15801561121d57600080fd5b505af1158015611231573d6000803e3d6000fd5b5050336000908152601e6020908152604082208054600181810183559184529282902086516003909402019283559085015182820180548796509394509092909160ff199091169083600281111561128b5761128b612da1565b02179055506040820151816002015550505050505050505050565b6112ae612151565b4760006112c3600a546001600160a01b031690565b6001600160a01b03168260405160006040518083038185875af1925050503d806000811461130d576040519150601f19603f3d011682016040523d82523d6000602084013e611312565b606091505b505090508061132057600080fd5b5050565b610ba483838360405180602001604052806000815250611917565b600061134a60085490565b82106113be5760405162461bcd60e51b815260206004820152602c60248201527f455243373231456e756d657261626c653a20676c6f62616c20696e646578206f60448201527f7574206f6620626f756e647300000000000000000000000000000000000000006064820152608401610b03565b600882815481106113d1576113d1613175565b90600052602060002001549050919050565b6113eb612151565b6017610ba48284836131d9565b6000818152600260205260408120546001600160a01b0316806109b45760405162461bcd60e51b815260206004820152601860248201527f4552433732313a20696e76616c696420746f6b656e20494400000000000000006044820152606401610b03565b60006001600160a01b0382166114db5760405162461bcd60e51b815260206004820152602960248201527f4552433732313a2061646472657373207a65726f206973206e6f74206120766160448201527f6c6964206f776e657200000000000000000000000000000000000000000000006064820152608401610b03565b506001600160a01b031660009081526003602052604090205490565b6114ff612151565b611509600061228e565b565b600a5474010000000000000000000000000000000000000000900460ff166115755760405162461bcd60e51b815260206004820152601060248201527f73616c65206973206e6f74206f70656e000000000000000000000000000000006044820152606401610b03565b6000611581338361179f565b90504281604001511115801561159b575060008160400151115b6115e75760405162461bcd60e51b815260206004820152601560248201527f6e6f7420726561647920666f72206d696e74696e6700000000000000000000006044820152606401610b03565b6000828152601d602052604090205460ff16156116465760405162461bcd60e51b815260206004820152601d60248201527f616c7265616479206d696e7465642074686174206368617261637465720000006044820152606401610b03565b600061165160085490565b6000848152601d602090815260408083208054600160ff19918216811790925587840151868652601c9094529190932080549495509193919291169083600281111561169f5761169f612da1565b0217905550601b6000836020015160028111156116be576116be612da1565b60028111156116cf576116cf612da1565b815260200190815260200160002054601a6000838152602001908152602001600020819055506001601b60008460200151600281111561171157611711612da1565b600281111561172257611722612da1565b8152602001908152602001600020600082825461173f91906132af565b90915550610ba4905033826122ed565b6000808083600281111561176557611765612da1565b036117735750600b546109b4565b600283600281111561178757611787612da1565b0361179557506013546109b4565b50600f5492915050565b60408051606081018252600080825260208083018290528284018290526001600160a01b0386168252601e81528382208054855181840281018401909652808652939492939091849084015b8282101561186a5783829060005260206000209060030201604051806060016040529081600082015481526020016001820160009054906101000a900460ff16600281111561183c5761183c612da1565b600281111561184d5761184d612da1565b8152602001600282015481525050815260200190600101906117eb565b5050505090506118956040805160608101909152600080825260208201908152602001600081525090565b60005b82518110156118f457848382815181106118b4576118b4613175565b602002602001015160000151036118e2578281815181106118d7576118d7613175565b602002602001015191505b806118ec816132c2565b915050611898565b50949350505050565b6060600180546109c9906130e8565b611320338383612307565b6119213383611eaf565b6119935760405162461bcd60e51b815260206004820152602d60248201527f4552433732313a2063616c6c6572206973206e6f7420746f6b656e206f776e6560448201527f72206f7220617070726f766564000000000000000000000000000000000000006064820152608401610b03565b61199f848484846123d5565b50505050565b6119ad612151565b6018805473ffffffffffffffffffffffffffffffffffffffff19166001600160a01b0392909216919091179055565b60408051602081019091526000808252606091906119f984611dd0565b6000848152601c602052604081205460ff166002811115611a1c57611a1c612da1565b03611a6e575050604080518082018252600281527f312f0000000000000000000000000000000000000000000000000000000000006020808301919091526000858152601a9091529190912054611b58565b60016000858152601c602052604090205460ff166002811115611a9357611a93612da1565b03611ae5575050604080518082018252600281527f322f0000000000000000000000000000000000000000000000000000000000006020808301919091526000858152601a9091529190912054611b58565b60026000858152601c602052604090205460ff166002811115611b0a57611b0a612da1565b03611b58575050604080518082018252600281527f332f0000000000000000000000000000000000000000000000000000000000006020808301919091526000858152601a90915291909120545b601782611b648361245e565b604051602001611b76939291906132dc565b60405160208183030381529060405292505050919050565b611b96612151565b6019805473ffffffffffffffffffffffffffffffffffffffff19166001600160a01b0392909216919091179055565b6019546000906001600160a01b0390811690831603611be6575060016109b4565b6001600160a01b0380841660009081526005602090815260408083209386168352929052205460ff165b9392505050565b611c1f612151565b6001600160a01b038116611c9b5760405162461bcd60e51b815260206004820152602660248201527f4f776e61626c653a206e6577206f776e657220697320746865207a65726f206160448201527f64647265737300000000000000000000000000000000000000000000000000006064820152608401610b03565b611ca48161228e565b50565b601e6020528160005260406000208181548110611cc357600080fd5b600091825260209091206003909102018054600182015460029092015490935060ff909116915083565b60007fffffffff0000000000000000000000000000000000000000000000000000000082167f80ac58cd000000000000000000000000000000000000000000000000000000001480611d8057507fffffffff0000000000000000000000000000000000000000000000000000000082167f5b5e139f00000000000000000000000000000000000000000000000000000000145b806109b457507f01ffc9a7000000000000000000000000000000000000000000000000000000007fffffffff000000000000000000000000000000000000000000000000000000008316146109b4565b6000818152600260205260409020546001600160a01b0316611ca45760405162461bcd60e51b815260206004820152601860248201527f4552433732313a20696e76616c696420746f6b656e20494400000000000000006044820152606401610b03565b6000818152600460205260409020805473ffffffffffffffffffffffffffffffffffffffff19166001600160a01b0384169081179091558190611e76826113f8565b6001600160a01b03167f8c5be1e5ebec7d5bd14f71427d1e84f3dd0314c0f7b2291e5b200ac8c7c3b92560405160405180910390a45050565b600080611ebb836113f8565b9050806001600160a01b0316846001600160a01b03161480611ee25750611ee28185611bc5565b80611f065750836001600160a01b0316611efb84610a4c565b6001600160a01b0316145b949350505050565b826001600160a01b0316611f21826113f8565b6001600160a01b031614611f9d5760405162461bcd60e51b815260206004820152602560248201527f4552433732313a207472616e736665722066726f6d20696e636f72726563742060448201527f6f776e65720000000000000000000000000000000000000000000000000000006064820152608401610b03565b6001600160a01b0382166120185760405162461bcd60e51b8152602060048201526024808201527f4552433732313a207472616e7366657220746f20746865207a65726f2061646460448201527f72657373000000000000000000000000000000000000000000000000000000006064820152608401610b03565b61202583838360016124fe565b826001600160a01b0316612038826113f8565b6001600160a01b0316146120b45760405162461bcd60e51b815260206004820152602560248201527f4552433732313a207472616e736665722066726f6d20696e636f72726563742060448201527f6f776e65720000000000000000000000000000000000000000000000000000006064820152608401610b03565b6000818152600460209081526040808320805473ffffffffffffffffffffffffffffffffffffffff199081169091556001600160a01b0387811680865260038552838620805460001901905590871680865283862080546001019055868652600290945282852080549092168417909155905184937fddf252ad1be2c89b69c2b068fc378daa952ba7f163c4a11628f55a4df523b3ef91a4505050565b600a546001600160a01b031633146115095760405162461bcd60e51b815260206004820181905260248201527f4f776e61626c653a2063616c6c6572206973206e6f7420746865206f776e65726044820152606401610b03565b600080808460028111156121c1576121c1612da1565b036122055760028310156121e357600c546121dc90426132af565b9050611c10565b826002036121f857600d546121dc90426132af565b600e546121dc90426132af565b600184600281111561221957612219612da1565b03612256576002831015612234576010546121dc90426132af565b82600203612249576011546121dc90426132af565b6012546121dc90426132af565b600283101561226c576014546121dc90426132af565b82600203612281576015546121dc90426132af565b601654611f0690426132af565b600a80546001600160a01b0383811673ffffffffffffffffffffffffffffffffffffffff19831681179093556040519116919082907f8be0079c531659141344cd1fd0a4f28419497f9722a3daafe3b4186f6b6457e090600090a35050565b61132082826040518060200160405280600081525061263a565b816001600160a01b0316836001600160a01b0316036123685760405162461bcd60e51b815260206004820152601960248201527f4552433732313a20617070726f766520746f2063616c6c6572000000000000006044820152606401610b03565b6001600160a01b03838116600081815260056020908152604080832094871680845294825291829020805460ff191686151590811790915591519182527f17307eab39ab6107e8899845ad3d59bd9653f200f220920489ca2b5937696c31910160405180910390a3505050565b6123e0848484611f0e565b6123ec848484846126c3565b61199f5760405162461bcd60e51b815260206004820152603260248201527f4552433732313a207472616e7366657220746f206e6f6e20455243373231526560448201527f63656976657220696d706c656d656e74657200000000000000000000000000006064820152608401610b03565b6060600061246b83612864565b600101905060008167ffffffffffffffff81111561248b5761248b612f94565b6040519080825280601f01601f1916602001820160405280156124b5576020820181803683370190505b5090508181016020015b600019017f3031323334353637383961626364656600000000000000000000000000000000600a86061a8153600a85049450846124bf57509392505050565b60018111156125755760405162461bcd60e51b815260206004820152603560248201527f455243373231456e756d657261626c653a20636f6e736563757469766520747260448201527f616e7366657273206e6f7420737570706f7274656400000000000000000000006064820152608401610b03565b816001600160a01b0385166125d1576125cc81600880546000838152600960205260408120829055600182018355919091527ff3f7a9fe364faab93b216da50a3214154f22a0a2b415b23a84c8169e8b636ee30155565b6125f4565b836001600160a01b0316856001600160a01b0316146125f4576125f48582612946565b6001600160a01b0384166126105761260b816129e3565b612633565b846001600160a01b0316846001600160a01b031614612633576126338482612a92565b5050505050565b6126448383612ad6565b61265160008484846126c3565b610ba45760405162461bcd60e51b815260206004820152603260248201527f4552433732313a207472616e7366657220746f206e6f6e20455243373231526560448201527f63656976657220696d706c656d656e74657200000000000000000000000000006064820152608401610b03565b60006001600160a01b0384163b15612859576040517f150b7a020000000000000000000000000000000000000000000000000000000081526001600160a01b0385169063150b7a0290612720903390899088908890600401613377565b6020604051808303816000875af192505050801561275b575060408051601f3d908101601f19168201909252612758918101906133b3565b60015b61280e573d808015612789576040519150601f19603f3d011682016040523d82523d6000602084013e61278e565b606091505b5080516000036128065760405162461bcd60e51b815260206004820152603260248201527f4552433732313a207472616e7366657220746f206e6f6e20455243373231526560448201527f63656976657220696d706c656d656e74657200000000000000000000000000006064820152608401610b03565b805181602001fd5b7fffffffff00000000000000000000000000000000000000000000000000000000167f150b7a0200000000000000000000000000000000000000000000000000000000149050611f06565b506001949350505050565b6000807a184f03e93ff9f4daa797ed6e38ed64bf6a1f01000000000000000083106128ad577a184f03e93ff9f4daa797ed6e38ed64bf6a1f010000000000000000830492506040015b6d04ee2d6d415b85acef810000000083106128d9576d04ee2d6d415b85acef8100000000830492506020015b662386f26fc1000083106128f757662386f26fc10000830492506010015b6305f5e100831061290f576305f5e100830492506008015b612710831061292357612710830492506004015b60648310612935576064830492506002015b600a83106109b45760010192915050565b600060016129538461145d565b61295d91906133d0565b6000838152600760205260409020549091508082146129b0576001600160a01b03841660009081526006602090815260408083208584528252808320548484528184208190558352600790915290208190555b5060009182526007602090815260408084208490556001600160a01b039094168352600681528383209183525290812055565b6008546000906129f5906001906133d0565b60008381526009602052604081205460088054939450909284908110612a1d57612a1d613175565b906000526020600020015490508060088381548110612a3e57612a3e613175565b6000918252602080832090910192909255828152600990915260408082208490558582528120556008805480612a7657612a766133e3565b6001900381819060005260206000200160009055905550505050565b6000612a9d8361145d565b6001600160a01b039093166000908152600660209081526040808320868452825280832085905593825260079052919091209190915550565b6001600160a01b038216612b2c5760405162461bcd60e51b815260206004820181905260248201527f4552433732313a206d696e7420746f20746865207a65726f20616464726573736044820152606401610b03565b6000818152600260205260409020546001600160a01b031615612b915760405162461bcd60e51b815260206004820152601c60248201527f4552433732313a20746f6b656e20616c7265616479206d696e746564000000006044820152606401610b03565b612b9f6000838360016124fe565b6000818152600260205260409020546001600160a01b031615612c045760405162461bcd60e51b815260206004820152601c60248201527f4552433732313a20746f6b656e20616c7265616479206d696e746564000000006044820152606401610b03565b6001600160a01b0382166000818152600360209081526040808320805460010190558483526002909152808220805473ffffffffffffffffffffffffffffffffffffffff19168417905551839291907fddf252ad1be2c89b69c2b068fc378daa952ba7f163c4a11628f55a4df523b3ef908290a45050565b7fffffffff0000000000000000000000000000000000000000000000000000000081168114611ca457600080fd5b600060208284031215612cbc57600080fd5b8135611c1081612c7c565b60005b83811015612ce2578181015183820152602001612cca565b50506000910152565b60008151808452612d03816020860160208601612cc7565b601f01601f19169290920160200192915050565b602081526000611c106020830184612ceb565b600060208284031215612d3c57600080fd5b5035919050565b6001600160a01b0381168114611ca457600080fd5b60008060408385031215612d6b57600080fd5b8235612d7681612d43565b946020939093013593505050565b600060208284031215612d9657600080fd5b8135611c1081612d43565b634e487b7160e01b600052602160045260246000fd5b60038110612dd557634e487b7160e01b600052602160045260246000fd5b9052565b805182526020810151612def6020840182612db7565b50604090810151910152565b6020808252825182820181905260009190848201906040850190845b81811015612e3d57612e2a838551612dd9565b9284019260609290920191600101612e17565b50909695505050505050565b600080600060608486031215612e5e57600080fd5b8335612e6981612d43565b92506020840135612e7981612d43565b929592945050506040919091013590565b60008060408385031215612e9d57600080fd5b50508035926020909101359150565b60008060208385031215612ebf57600080fd5b823567ffffffffffffffff80821115612ed757600080fd5b818501915085601f830112612eeb57600080fd5b813581811115612efa57600080fd5b866020828501011115612f0c57600080fd5b60209290920196919550909350505050565b60038110611ca457600080fd5b600060208284031215612f3d57600080fd5b8135611c1081612f1e565b606081016109b48284612dd9565b60008060408385031215612f6957600080fd5b8235612f7481612d43565b915060208301358015158114612f8957600080fd5b809150509250929050565b634e487b7160e01b600052604160045260246000fd5b60008060008060808587031215612fc057600080fd5b8435612fcb81612d43565b93506020850135612fdb81612d43565b925060408501359150606085013567ffffffffffffffff80821115612fff57600080fd5b818701915087601f83011261301357600080fd5b81358181111561302557613025612f94565b604051601f8201601f19908116603f0116810190838211818310171561304d5761304d612f94565b816040528281528a602084870101111561306657600080fd5b82602086016020830137600060208483010152809550505050505092959194509250565b602081016109b48284612db7565b600080604083850312156130ab57600080fd5b82356130b681612d43565b91506020830135612f8981612d43565b838152606081016130da6020830185612db7565b826040830152949350505050565b600181811c908216806130fc57607f821691505b60208210810361311c57634e487b7160e01b600052602260045260246000fd5b50919050565b60006020828403121561313457600080fd5b5051919050565b60006020828403121561314d57600080fd5b8151611c1081612d43565b60006020828403121561316a57600080fd5b8151611c1081612f1e565b634e487b7160e01b600052603260045260246000fd5b601f821115610ba457600081815260208120601f850160051c810160208610156131b25750805b601f850160051c820191505b818110156131d1578281556001016131be565b505050505050565b67ffffffffffffffff8311156131f1576131f1612f94565b613205836131ff83546130e8565b8361318b565b6000601f84116001811461323957600085156132215750838201355b600019600387901b1c1916600186901b178355612633565b600083815260209020601f19861690835b8281101561326a578685013582556020948501946001909201910161324a565b50868210156132875760001960f88860031b161c19848701351681555b505060018560011b0183555050505050565b634e487b7160e01b600052601160045260246000fd5b808201808211156109b4576109b4613299565b600060001982036132d5576132d5613299565b5060010190565b60008085546132ea816130e8565b60018281168015613302576001811461331757613346565b60ff1984168752821515830287019450613346565b8960005260208060002060005b8581101561333d5781548a820152908401908201613324565b50505082870194505b50505050845161335a818360208901612cc7565b845191019061336d818360208801612cc7565b0195945050505050565b60006001600160a01b038087168352808616602084015250836040830152608060608301526133a96080830184612ceb565b9695505050505050565b6000602082840312156133c557600080fd5b8151611c1081612c7c565b818103818111156109b4576109b4613299565b634e487b7160e01b600052603160045260246000fdfea2646970667358221220bbbe306575337798b14e8c739b495c69a1429c6f8230995487c4eaecd4741f4a64736f6c63430008120033",
  "devdoc": {
    "events": {
      "Approval(address,address,uint256)": {
        "details": "Emitted when `owner` enables `approved` to manage the `tokenId` token."
      },
      "ApprovalForAll(address,address,bool)": {
        "details": "Emitted when `owner` enables or disables (`approved`) `operator` to manage all of its assets."
      },
      "Transfer(address,address,uint256)": {
        "details": "Emitted when `tokenId` token is transferred from `from` to `to`."
      }
    },
    "kind": "dev",
    "methods": {
      "approve(address,uint256)": {
        "details": "See {IERC721-approve}."
      },
      "balanceOf(address)": {
        "details": "See {IERC721-balanceOf}."
      },
      "getApproved(uint256)": {
        "details": "See {IERC721-getApproved}."
      },
      "name()": {
        "details": "See {IERC721Metadata-name}."
      },
      "owner()": {
        "details": "Returns the address of the current owner."
      },
      "ownerOf(uint256)": {
        "details": "See {IERC721-ownerOf}."
      },
      "renounceOwnership()": {
        "details": "Leaves the contract without owner. It will not be possible to call `onlyOwner` functions anymore. Can only be called by the current owner. NOTE: Renouncing ownership will leave the contract without an owner, thereby removing any functionality that is only available to the owner."
      },
      "safeTransferFrom(address,address,uint256)": {
        "details": "See {IERC721-safeTransferFrom}."
      },
      "safeTransferFrom(address,address,uint256,bytes)": {
        "details": "See {IERC721-safeTransferFrom}."
      },
      "setApprovalForAll(address,bool)": {
        "details": "See {IERC721-setApprovalForAll}."
      },
      "supportsInterface(bytes4)": {
        "details": "See {IERC165-supportsInterface}."
      },
      "symbol()": {
        "details": "See {IERC721Metadata-symbol}."
      },
      "tokenByIndex(uint256)": {
        "details": "See {IERC721Enumerable-tokenByIndex}."
      },
      "tokenOfOwnerByIndex(address,uint256)": {
        "details": "See {IERC721Enumerable-tokenOfOwnerByIndex}."
      },
      "totalSupply()": {
        "details": "See {IERC721Enumerable-totalSupply}."
      },
      "transferFrom(address,address,uint256)": {
        "details": "See {IERC721-transferFrom}."
      },
      "transferOwnership(address)": {
        "details": "Transfers ownership of the contract to a new account (`newOwner`). Can only be called by the current owner."
      }
    },
    "version": 1
  },
  "userdoc": {
    "kind": "user",
    "methods": {},
    "version": 1
  },
  "storageLayout": {
    "storage": [
      {
        "astId": 828,
        "contract": "contracts/Character.sol:Character",
        "label": "_name",
        "offset": 0,
        "slot": "0",
        "type": "t_string_storage"
      },
      {
        "astId": 830,
        "contract": "contracts/Character.sol:Character",
        "label": "_symbol",
        "offset": 0,
        "slot": "1",
        "type": "t_string_storage"
      },
      {
        "astId": 834,
        "contract": "contracts/Character.sol:Character",
        "label": "_owners",
        "offset": 0,
        "slot": "2",
        "type": "t_mapping(t_uint256,t_address)"
      },
      {
        "astId": 838,
        "contract": "contracts/Character.sol:Character",
        "label": "_balances",
        "offset": 0,
        "slot": "3",
        "type": "t_mapping(t_address,t_uint256)"
      },
      {
        "astId": 842,
        "contract": "contracts/Character.sol:Character",
        "label": "_tokenApprovals",
        "offset": 0,
        "slot": "4",
        "type": "t_mapping(t_uint256,t_address)"
      },
      {
        "astId": 848,
        "contract": "contracts/Character.sol:Character",
        "label": "_operatorApprovals",
        "offset": 0,
        "slot": "5",
        "type": "t_mapping(t_address,t_mapping(t_address,t_bool))"
      },
      {
        "astId": 1878,
        "contract": "contracts/Character.sol:Character",
        "label": "_ownedTokens",
        "offset": 0,
        "slot": "6",
        "type": "t_mapping(t_address,t_mapping(t_uint256,t_uint256))"
      },
      {
        "astId": 1882,
        "contract": "contracts/Character.sol:Character",
        "label": "_ownedTokensIndex",
        "offset": 0,
        "slot": "7",
        "type": "t_mapping(t_uint256,t_uint256)"
      },
      {
        "astId": 1885,
        "contract": "contracts/Character.sol:Character",
        "label": "_allTokens",
        "offset": 0,
        "slot": "8",
        "type": "t_array(t_uint256)dyn_storage"
      },
      {
        "astId": 1889,
        "contract": "contracts/Character.sol:Character",
        "label": "_allTokensIndex",
        "offset": 0,
        "slot": "9",
        "type": "t_mapping(t_uint256,t_uint256)"
      },
      {
        "astId": 7,
        "contract": "contracts/Character.sol:Character",
        "label": "_owner",
        "offset": 0,
        "slot": "10",
        "type": "t_address"
      },
      {
        "astId": 3771,
        "contract": "contracts/Character.sol:Character",
        "label": "saleIsActive",
        "offset": 20,
        "slot": "10",
        "type": "t_bool"
      },
      {
        "astId": 3774,
        "contract": "contracts/Character.sol:Character",
        "label": "farmerPrice",
        "offset": 0,
        "slot": "11",
        "type": "t_uint256"
      },
      {
        "astId": 3777,
        "contract": "contracts/Character.sol:Character",
        "label": "farmersTime1",
        "offset": 0,
        "slot": "12",
        "type": "t_uint256"
      },
      {
        "astId": 3780,
        "contract": "contracts/Character.sol:Character",
        "label": "farmersTime2",
        "offset": 0,
        "slot": "13",
        "type": "t_uint256"
      },
      {
        "astId": 3783,
        "contract": "contracts/Character.sol:Character",
        "label": "farmersTime3",
        "offset": 0,
        "slot": "14",
        "type": "t_uint256"
      },
      {
        "astId": 3786,
        "contract": "contracts/Character.sol:Character",
        "label": "bullPrice",
        "offset": 0,
        "slot": "15",
        "type": "t_uint256"
      },
      {
        "astId": 3789,
        "contract": "contracts/Character.sol:Character",
        "label": "bullsTime1",
        "offset": 0,
        "slot": "16",
        "type": "t_uint256"
      },
      {
        "astId": 3792,
        "contract": "contracts/Character.sol:Character",
        "label": "bullsTime2",
        "offset": 0,
        "slot": "17",
        "type": "t_uint256"
      },
      {
        "astId": 3795,
        "contract": "contracts/Character.sol:Character",
        "label": "bullsTime3",
        "offset": 0,
        "slot": "18",
        "type": "t_uint256"
      },
      {
        "astId": 3798,
        "contract": "contracts/Character.sol:Character",
        "label": "bearPrice",
        "offset": 0,
        "slot": "19",
        "type": "t_uint256"
      },
      {
        "astId": 3801,
        "contract": "contracts/Character.sol:Character",
        "label": "bearsTime1",
        "offset": 0,
        "slot": "20",
        "type": "t_uint256"
      },
      {
        "astId": 3804,
        "contract": "contracts/Character.sol:Character",
        "label": "bearsTime2",
        "offset": 0,
        "slot": "21",
        "type": "t_uint256"
      },
      {
        "astId": 3807,
        "contract": "contracts/Character.sol:Character",
        "label": "bearsTime3",
        "offset": 0,
        "slot": "22",
        "type": "t_uint256"
      },
      {
        "astId": 3809,
        "contract": "contracts/Character.sol:Character",
        "label": "_nftBaseURI",
        "offset": 0,
        "slot": "23",
        "type": "t_string_storage"
      },
      {
        "astId": 3811,
        "contract": "contracts/Character.sol:Character",
        "label": "pepeDiscAddress",
        "offset": 0,
        "slot": "24",
        "type": "t_address"
      },
      {
        "astId": 3813,
        "contract": "contracts/Character.sol:Character",
        "label": "pepeStakingAddress",
        "offset": 0,
        "slot": "25",
        "type": "t_address"
      },
      {
        "astId": 3817,
        "contract": "contracts/Character.sol:Character",
        "label": "newTokenUri",
        "offset": 0,
        "slot": "26",
        "type": "t_mapping(t_uint256,t_uint256)"
      },
      {
        "astId": 3822,
        "contract": "contracts/Character.sol:Character",
        "label": "rarityPerToken",
        "offset": 0,
        "slot": "27",
        "type": "t_mapping(t_enum(DiscType)3714,t_uint256)"
      },
      {
        "astId": 3827,
        "contract": "contracts/Character.sol:Character",
        "label": "tokenPerRarity",
        "offset": 0,
        "slot": "28",
        "type": "t_mapping(t_uint256,t_enum(DiscType)3714)"
      },
      {
        "astId": 3831,
        "contract": "contracts/Character.sol:Character",
        "label": "idAlreadyMinted",
        "offset": 0,
        "slot": "29",
        "type": "t_mapping(t_uint256,t_bool)"
      },
      {
        "astId": 3872,
        "contract": "contracts/Character.sol:Character",
        "label": "mintableCharacters",
        "offset": 0,
        "slot": "30",
        "type": "t_mapping(t_address,t_array(t_struct(Mintable)3768_storage)dyn_storage)"
      }
    ],
    "types": {
      "t_address": {
        "encoding": "inplace",
        "label": "address",
        "numberOfBytes": "20"
      },
      "t_array(t_struct(Mintable)3768_storage)dyn_storage": {
        "base": "t_struct(Mintable)3768_storage",
        "encoding": "dynamic_array",
        "label": "struct Character.Mintable[]",
        "numberOfBytes": "32"
      },
      "t_array(t_uint256)dyn_storage": {
        "base": "t_uint256",
        "encoding": "dynamic_array",
        "label": "uint256[]",
        "numberOfBytes": "32"
      },
      "t_bool": {
        "encoding": "inplace",
        "label": "bool",
        "numberOfBytes": "1"
      },
      "t_enum(DiscType)3714": {
        "encoding": "inplace",
        "label": "enum DiscType",
        "numberOfBytes": "1"
      },
      "t_mapping(t_address,t_array(t_struct(Mintable)3768_storage)dyn_storage)": {
        "encoding": "mapping",
        "key": "t_address",
        "label": "mapping(address => struct Character.Mintable[])",
        "numberOfBytes": "32",
        "value": "t_array(t_struct(Mintable)3768_storage)dyn_storage"
      },
      "t_mapping(t_address,t_bool)": {
        "encoding": "mapping",
        "key": "t_address",
        "label": "mapping(address => bool)",
        "numberOfBytes": "32",
        "value": "t_bool"
      },
      "t_mapping(t_address,t_mapping(t_address,t_bool))": {
        "encoding": "mapping",
        "key": "t_address",
        "label": "mapping(address => mapping(address => bool))",
        "numberOfBytes": "32",
        "value": "t_mapping(t_address,t_bool)"
      },
      "t_mapping(t_address,t_mapping(t_uint256,t_uint256))": {
        "encoding": "mapping",
        "key": "t_address",
        "label": "mapping(address => mapping(uint256 => uint256))",
        "numberOfBytes": "32",
        "value": "t_mapping(t_uint256,t_uint256)"
      },
      "t_mapping(t_address,t_uint256)": {
        "encoding": "mapping",
        "key": "t_address",
        "label": "mapping(address => uint256)",
        "numberOfBytes": "32",
        "value": "t_uint256"
      },
      "t_mapping(t_enum(DiscType)3714,t_uint256)": {
        "encoding": "mapping",
        "key": "t_enum(DiscType)3714",
        "label": "mapping(enum DiscType => uint256)",
        "numberOfBytes": "32",
        "value": "t_uint256"
      },
      "t_mapping(t_uint256,t_address)": {
        "encoding": "mapping",
        "key": "t_uint256",
        "label": "mapping(uint256 => address)",
        "numberOfBytes": "32",
        "value": "t_address"
      },
      "t_mapping(t_uint256,t_bool)": {
        "encoding": "mapping",
        "key": "t_uint256",
        "label": "mapping(uint256 => bool)",
        "numberOfBytes": "32",
        "value": "t_bool"
      },
      "t_mapping(t_uint256,t_enum(DiscType)3714)": {
        "encoding": "mapping",
        "key": "t_uint256",
        "label": "mapping(uint256 => enum DiscType)",
        "numberOfBytes": "32",
        "value": "t_enum(DiscType)3714"
      },
      "t_mapping(t_uint256,t_uint256)": {
        "encoding": "mapping",
        "key": "t_uint256",
        "label": "mapping(uint256 => uint256)",
        "numberOfBytes": "32",
        "value": "t_uint256"
      },
      "t_string_storage": {
        "encoding": "bytes",
        "label": "string",
        "numberOfBytes": "32"
      },
      "t_struct(Mintable)3768_storage": {
        "encoding": "inplace",
        "label": "struct Character.Mintable",
        "members": [
          {
            "astId": 3762,
            "contract": "contracts/Character.sol:Character",
            "label": "tokenID",
            "offset": 0,
            "slot": "0",
            "type": "t_uint256"
          },
          {
            "astId": 3765,
            "contract": "contracts/Character.sol:Character",
            "label": "discType",
            "offset": 0,
            "slot": "1",
            "type": "t_enum(DiscType)3714"
          },
          {
            "astId": 3767,
            "contract": "contracts/Character.sol:Character",
            "label": "mintable",
            "offset": 0,
            "slot": "2",
            "type": "t_uint256"
          }
        ],
        "numberOfBytes": "96"
      },
      "t_uint256": {
        "encoding": "inplace",
        "label": "uint256",
        "numberOfBytes": "32"
      }
    }
  }
}