{
  "address": "0x0C08bbF8828b7C0FB2D8147B323bc93746601501",
  "abi": [
    {
      "inputs": [],
      "stateMutability": "nonpayable",
      "type": "constructor"
    },
    {
      "anonymous": false,
      "inputs": [
        {
          "indexed": true,
          "internalType": "address",
          "name": "owner",
          "type": "address"
        },
        {
          "indexed": true,
          "internalType": "address",
          "name": "approved",
          "type": "address"
        },
        {
          "indexed": true,
          "internalType": "uint256",
          "name": "tokenId",
          "type": "uint256"
        }
      ],
      "name": "Approval",
      "type": "event"
    },
    {
      "anonymous": false,
      "inputs": [
        {
          "indexed": true,
          "internalType": "address",
          "name": "owner",
          "type": "address"
        },
        {
          "indexed": true,
          "internalType": "address",
          "name": "operator",
          "type": "address"
        },
        {
          "indexed": false,
          "internalType": "bool",
          "name": "approved",
          "type": "bool"
        }
      ],
      "name": "ApprovalForAll",
      "type": "event"
    },
    {
      "anonymous": false,
      "inputs": [
        {
          "indexed": true,
          "internalType": "address",
          "name": "previousOwner",
          "type": "address"
        },
        {
          "indexed": true,
          "internalType": "address",
          "name": "newOwner",
          "type": "address"
        }
      ],
      "name": "OwnershipTransferred",
      "type": "event"
    },
    {
      "anonymous": false,
      "inputs": [
        {
          "indexed": true,
          "internalType": "address",
          "name": "from",
          "type": "address"
        },
        {
          "indexed": true,
          "internalType": "address",
          "name": "to",
          "type": "address"
        },
        {
          "indexed": true,
          "internalType": "uint256",
          "name": "tokenId",
          "type": "uint256"
        }
      ],
      "name": "Transfer",
      "type": "event"
    },
    {
      "inputs": [
        {
          "internalType": "address",
          "name": "to",
          "type": "address"
        },
        {
          "internalType": "uint256",
          "name": "tokenId",
          "type": "uint256"
        }
      ],
      "name": "approve",
      "outputs": [],
      "stateMutability": "nonpayable",
      "type": "function"
    },
    {
      "inputs": [
        {
          "internalType": "address",
          "name": "owner",
          "type": "address"
        }
      ],
      "name": "balanceOf",
      "outputs": [
        {
          "internalType": "uint256",
          "name": "",
          "type": "uint256"
        }
      ],
      "stateMutability": "view",
      "type": "function"
    },
    {
      "inputs": [],
      "name": "bearPrice",
      "outputs": [
        {
          "internalType": "uint256",
          "name": "",
          "type": "uint256"
        }
      ],
      "stateMutability": "view",
      "type": "function"
    },
    {
      "inputs": [],
      "name": "bearsTime1",
      "outputs": [
        {
          "internalType": "uint256",
          "name": "",
          "type": "uint256"
        }
      ],
      "stateMutability": "view",
      "type": "function"
    },
    {
      "inputs": [],
      "name": "bearsTime2",
      "outputs": [
        {
          "internalType": "uint256",
          "name": "",
          "type": "uint256"
        }
      ],
      "stateMutability": "view",
      "type": "function"
    },
    {
      "inputs": [],
      "name": "bearsTime3",
      "outputs": [
        {
          "internalType": "uint256",
          "name": "",
          "type": "uint256"
        }
      ],
      "stateMutability": "view",
      "type": "function"
    },
    {
      "inputs": [],
      "name": "bullPrice",
      "outputs": [
        {
          "internalType": "uint256",
          "name": "",
          "type": "uint256"
        }
      ],
      "stateMutability": "view",
      "type": "function"
    },
    {
      "inputs": [],
      "name": "bullsTime1",
      "outputs": [
        {
          "internalType": "uint256",
          "name": "",
          "type": "uint256"
        }
      ],
      "stateMutability": "view",
      "type": "function"
    },
    {
      "inputs": [],
      "name": "bullsTime2",
      "outputs": [
        {
          "internalType": "uint256",
          "name": "",
          "type": "uint256"
        }
      ],
      "stateMutability": "view",
      "type": "function"
    },
    {
      "inputs": [],
      "name": "bullsTime3",
      "outputs": [
        {
          "internalType": "uint256",
          "name": "",
          "type": "uint256"
        }
      ],
      "stateMutability": "view",
      "type": "function"
    },
    {
      "inputs": [],
      "name": "farmerPrice",
      "outputs": [
        {
          "internalType": "uint256",
          "name": "",
          "type": "uint256"
        }
      ],
      "stateMutability": "view",
      "type": "function"
    },
    {
      "inputs": [],
      "name": "farmersTime1",
      "outputs": [
        {
          "internalType": "uint256",
          "name": "",
          "type": "uint256"
        }
      ],
      "stateMutability": "view",
      "type": "function"
    },
    {
      "inputs": [],
      "name": "farmersTime2",
      "outputs": [
        {
          "internalType": "uint256",
          "name": "",
          "type": "uint256"
        }
      ],
      "stateMutability": "view",
      "type": "function"
    },
    {
      "inputs": [],
      "name": "farmersTime3",
      "outputs": [
        {
          "internalType": "uint256",
          "name": "",
          "type": "uint256"
        }
      ],
      "stateMutability": "view",
      "type": "function"
    },
    {
      "inputs": [],
      "name": "flipSaleState",
      "outputs": [],
      "stateMutability": "nonpayable",
      "type": "function"
    },
    {
      "inputs": [
        {
          "internalType": "address",
          "name": "ownerOfCharacters_",
          "type": "address"
        }
      ],
      "name": "getAllMyCharacters",
      "outputs": [
        {
          "components": [
            {
              "internalType": "uint256",
              "name": "tokenID",
              "type": "uint256"
            },
            {
              "internalType": "enum DiscType",
              "name": "discType",
              "type": "uint8"
            },
            {
              "internalType": "uint256",
              "name": "mintable",
              "type": "uint256"
            }
          ],
          "internalType": "struct Character.Mintable[]",
          "name": "",
          "type": "tuple[]"
        }
      ],
      "stateMutability": "view",
      "type": "function"
    },
    {
      "inputs": [
        {
          "internalType": "uint256",
          "name": "tokenId",
          "type": "uint256"
        }
      ],
      "name": "getApproved",
      "outputs": [
        {
          "internalType": "address",
          "name": "",
          "type": "address"
        }
      ],
      "stateMutability": "view",
      "type": "function"
    },
    {
      "inputs": [
        {
          "internalType": "address",
          "name": "ownerOfCharacters_",
          "type": "address"
        },
        {
          "internalType": "uint256",
          "name": "mintID_",
          "type": "uint256"
        }
      ],
      "name": "getMintableCharacter",
      "outputs": [
        {
          "components": [
            {
              "internalType": "uint256",
              "name": "tokenID",
              "type": "uint256"
            },
            {
              "internalType": "enum DiscType",
              "name": "discType",
              "type": "uint8"
            },
            {
              "internalType": "uint256",
              "name": "mintable",
              "type": "uint256"
            }
          ],
          "internalType": "struct Character.Mintable",
          "name": "",
          "type": "tuple"
        }
      ],
      "stateMutability": "view",
      "type": "function"
    },
    {
      "inputs": [
        {
          "internalType": "address",
          "name": "owner",
          "type": "address"
        },
        {
          "internalType": "address",
          "name": "operator",
          "type": "address"
        }
      ],
      "name": "isApprovedForAll",
      "outputs": [
        {
          "internalType": "bool",
          "name": "",
          "type": "bool"
        }
      ],
      "stateMutability": "view",
      "type": "function"
    },
    {
      "inputs": [
        {
          "internalType": "uint256",
          "name": "mintID_",
          "type": "uint256"
        }
      ],
      "name": "mintMyCharacter",
      "outputs": [],
      "stateMutability": "payable",
      "type": "function"
    },
    {
      "inputs": [
        {
          "internalType": "address",
          "name": "",
          "type": "address"
        },
        {
          "internalType": "uint256",
          "name": "",
          "type": "uint256"
        }
      ],
      "name": "mintableCharacters",
      "outputs": [
        {
          "internalType": "uint256",
          "name": "tokenID",
          "type": "uint256"
        },
        {
          "internalType": "enum DiscType",
          "name": "discType",
          "type": "uint8"
        },
        {
          "internalType": "uint256",
          "name": "mintable",
          "type": "uint256"
        }
      ],
      "stateMutability": "view",
      "type": "function"
    },
    {
      "inputs": [],
      "name": "name",
      "outputs": [
        {
          "internalType": "string",
          "name": "",
          "type": "string"
        }
      ],
      "stateMutability": "view",
      "type": "function"
    },
    {
      "inputs": [
        {
          "internalType": "uint256",
          "name": "",
          "type": "uint256"
        }
      ],
      "name": "newTokenUri",
      "outputs": [
        {
          "internalType": "uint256",
          "name": "",
          "type": "uint256"
        }
      ],
      "stateMutability": "view",
      "type": "function"
    },
    {
      "inputs": [],
      "name": "owner",
      "outputs": [
        {
          "internalType": "address",
          "name": "",
          "type": "address"
        }
      ],
      "stateMutability": "view",
      "type": "function"
    },
    {
      "inputs": [
        {
          "internalType": "uint256",
          "name": "tokenId",
          "type": "uint256"
        }
      ],
      "name": "ownerOf",
      "outputs": [
        {
          "internalType": "address",
          "name": "",
          "type": "address"
        }
      ],
      "stateMutability": "view",
      "type": "function"
    },
    {
      "inputs": [
        {
          "internalType": "uint256",
          "name": "discID_",
          "type": "uint256"
        },
        {
          "internalType": "uint256",
          "name": "pepePrice_",
          "type": "uint256"
        }
      ],
      "name": "prepareMint",
      "outputs": [],
      "stateMutability": "nonpayable",
      "type": "function"
    },
    {
      "inputs": [
        {
          "internalType": "enum DiscType",
          "name": "",
          "type": "uint8"
        }
      ],
      "name": "rarityPerToken",
      "outputs": [
        {
          "internalType": "uint256",
          "name": "",
          "type": "uint256"
        }
      ],
      "stateMutability": "view",
      "type": "function"
    },
    {
      "inputs": [],
      "name": "renounceOwnership",
      "outputs": [],
      "stateMutability": "nonpayable",
      "type": "function"
    },
    {
      "inputs": [
        {
          "internalType": "address",
          "name": "from",
          "type": "address"
        },
        {
          "internalType": "address",
          "name": "to",
          "type": "address"
        },
        {
          "internalType": "uint256",
          "name": "tokenId",
          "type": "uint256"
        }
      ],
      "name": "safeTransferFrom",
      "outputs": [],
      "stateMutability": "nonpayable",
      "type": "function"
    },
    {
      "inputs": [
        {
          "internalType": "address",
          "name": "from",
          "type": "address"
        },
        {
          "internalType": "address",
          "name": "to",
          "type": "address"
        },
        {
          "internalType": "uint256",
          "name": "tokenId",
          "type": "uint256"
        },
        {
          "internalType": "bytes",
          "name": "data",
          "type": "bytes"
        }
      ],
      "name": "safeTransferFrom",
      "outputs": [],
      "stateMutability": "nonpayable",
      "type": "function"
    },
    {
      "inputs": [],
      "name": "saleIsActive",
      "outputs": [
        {
          "internalType": "bool",
          "name": "",
          "type": "bool"
        }
      ],
      "stateMutability": "view",
      "type": "function"
    },
    {
      "inputs": [
        {
          "internalType": "address",
          "name": "operator",
          "type": "address"
        },
        {
          "internalType": "bool",
          "name": "approved",
          "type": "bool"
        }
      ],
      "name": "setApprovalForAll",
      "outputs": [],
      "stateMutability": "nonpayable",
      "type": "function"
    },
    {
      "inputs": [
        {
          "internalType": "string",
          "name": "nftBaseURI_",
          "type": "string"
        }
      ],
      "name": "setBaseURI",
      "outputs": [],
      "stateMutability": "nonpayable",
      "type": "function"
    },
    {
      "inputs": [
        {
          "internalType": "address",
          "name": "pepeDiscAddress_",
          "type": "address"
        }
      ],
      "name": "setPepeDiscAddress",
      "outputs": [],
      "stateMutability": "nonpayable",
      "type": "function"
    },
    {
      "inputs": [
        {
          "internalType": "address",
          "name": "pepeStakingAddress_",
          "type": "address"
        }
      ],
      "name": "setPepeStakingAddress",
      "outputs": [],
      "stateMutability": "nonpayable",
      "type": "function"
    },
    {
      "inputs": [
        {
          "internalType": "bytes4",
          "name": "interfaceId",
          "type": "bytes4"
        }
      ],
      "name": "supportsInterface",
      "outputs": [
        {
          "internalType": "bool",
          "name": "",
          "type": "bool"
        }
      ],
      "stateMutability": "view",
      "type": "function"
    },
    {
      "inputs": [],
      "name": "symbol",
      "outputs": [
        {
          "internalType": "string",
          "name": "",
          "type": "string"
        }
      ],
      "stateMutability": "view",
      "type": "function"
    },
    {
      "inputs": [
        {
          "internalType": "uint256",
          "name": "index",
          "type": "uint256"
        }
      ],
      "name": "tokenByIndex",
      "outputs": [
        {
          "internalType": "uint256",
          "name": "",
          "type": "uint256"
        }
      ],
      "stateMutability": "view",
      "type": "function"
    },
    {
      "inputs": [
        {
          "internalType": "address",
          "name": "owner",
          "type": "address"
        },
        {
          "internalType": "uint256",
          "name": "index",
          "type": "uint256"
        }
      ],
      "name": "tokenOfOwnerByIndex",
      "outputs": [
        {
          "internalType": "uint256",
          "name": "",
          "type": "uint256"
        }
      ],
      "stateMutability": "view",
      "type": "function"
    },
    {
      "inputs": [
        {
          "internalType": "uint256",
          "name": "",
          "type": "uint256"
        }
      ],
      "name": "tokenPerRarity",
      "outputs": [
        {
          "internalType": "enum DiscType",
          "name": "",
          "type": "uint8"
        }
      ],
      "stateMutability": "view",
      "type": "function"
    },
    {
      "inputs": [
        {
          "internalType": "uint256",
          "name": "tokenID_",
          "type": "uint256"
        }
      ],
      "name": "tokenURI",
      "outputs": [
        {
          "internalType": "string",
          "name": "",
          "type": "string"
        }
      ],
      "stateMutability": "view",
      "type": "function"
    },
    {
      "inputs": [],
      "name": "totalSupply",
      "outputs": [
        {
          "internalType": "uint256",
          "name": "",
          "type": "uint256"
        }
      ],
      "stateMutability": "view",
      "type": "function"
    },
    {
      "inputs": [
        {
          "internalType": "address",
          "name": "from",
          "type": "address"
        },
        {
          "internalType": "address",
          "name": "to",
          "type": "address"
        },
        {
          "internalType": "uint256",
          "name": "tokenId",
          "type": "uint256"
        }
      ],
      "name": "transferFrom",
      "outputs": [],
      "stateMutability": "nonpayable",
      "type": "function"
    },
    {
      "inputs": [
        {
          "internalType": "address",
          "name": "newOwner",
          "type": "address"
        }
      ],
      "name": "transferOwnership",
      "outputs": [],
      "stateMutability": "nonpayable",
      "type": "function"
    },
    {
      "inputs": [],
      "name": "withdraw",
      "outputs": [],
      "stateMutability": "nonpayable",
      "type": "function"
    },
    {
      "stateMutability": "payable",
      "type": "receive"
    }
  ],
  "transactionHash": "0x470fbaa3ff0e714991895e5e1828dc39fcfe98f97514e1457c9a845b233152b7",
  "args": [],
  "numDeployments": 2,
  "solcInputHash": "34806e2f0ac1c8f95153c0ea47c0abf4",
  "bytecode": "0x6080604052600a805460ff60a01b191690556103e8600b5562031380600c5562024090600d55620189c0600e556105dc600f5562049d406010819055620359d060115562024ea0601255610bb860135562093a806014556206c1b06015556016553480156200006d57600080fd5b506040518060400160405280600a8152602001694368617261637465727360b01b81525060405180604001604052806002815260200161504360f01b8152508160009081620000bd9190620001ea565b506001620000cc8282620001ea565b505050620000e9620000e3620000ef60201b60201c565b620000f3565b620002b6565b3390565b600a80546001600160a01b038381166001600160a01b0319831681179093556040519116919082907f8be0079c531659141344cd1fd0a4f28419497f9722a3daafe3b4186f6b6457e090600090a35050565b634e487b7160e01b600052604160045260246000fd5b600181811c908216806200017057607f821691505b6020821081036200019157634e487b7160e01b600052602260045260246000fd5b50919050565b601f821115620001e557600081815260208120601f850160051c81016020861015620001c05750805b601f850160051c820191505b81811015620001e157828155600101620001cc565b5050505b505050565b81516001600160401b0381111562000206576200020662000145565b6200021e816200021784546200015b565b8462000197565b602080601f8311600181146200025657600084156200023d5750858301515b600019600386901b1c1916600185901b178555620001e1565b600085815260208120601f198616915b82811015620002875788860151825594840194600190910190840162000266565b5085821015620002a65787850151600019600388901b60f8161c191681555b5050505050600190811b01905550565b6132dd80620002c66000396000f3fe6080604052600436106102f65760003560e01c80636352211e1161018f578063c205ae19116100e1578063e985e9c51161008a578063f5d57e1111610064578063f5d57e111461083a578063fc1377da14610850578063fcd46a1d1461086657600080fd5b8063e985e9c5146107c8578063eb8d2444146107e8578063f2fde38b1461081a57600080fd5b8063d3f71cb5116100bb578063d3f71cb514610755578063e376bdfa14610792578063e83850f6146107b257600080fd5b8063c205ae19146106ff578063c829ca0614610715578063c87b56dd1461073557600080fd5b806383211c4d1161014357806395d89b411161011d57806395d89b41146106aa578063a22cb465146106bf578063b88d4fde146106df57600080fd5b806383211c4d146106495780638d8546b4146106765780638da5cb5b1461068c57600080fd5b806370a082311161017457806370a0823114610601578063715018a6146106215780637d292b4f1461063657600080fd5b80636352211e146105b457806369c034ff146105d457600080fd5b80632341061e116102485780633ccfd60b116101fc57806355f804b3116101d657806355f804b3146105685780635d9ff0ad14610588578063616241981461059e57600080fd5b80633ccfd60b1461051357806342842e0e146105285780634f6ccce71461054857600080fd5b80632f745c591161022d5780632f745c59146104be57806334918dfd146104de57806338cb953e146104f357600080fd5b80632341061e1461047157806323b872dd1461049e57600080fd5b8063095ea7b3116102aa578063134a897211610284578063134a89721461041957806318160ddd146104465780631b006f101461045b57600080fd5b8063095ea7b3146103cb57806309b0aef5146103ed5780630e197fd41461040357600080fd5b806306fdde03116102db57806306fdde031461035b578063081812fc1461037d5780630832bd18146103b557600080fd5b806301ffc9a714610302578063027cc4db1461033757600080fd5b366102fd57005b600080fd5b34801561030e57600080fd5b5061032261031d366004612b58565b610895565b60405190151581526020015b60405180910390f35b34801561034357600080fd5b5061034d60125481565b60405190815260200161032e565b34801561036757600080fd5b506103706108f1565b60405161032e9190612bc5565b34801561038957600080fd5b5061039d610398366004612bd8565b610983565b6040516001600160a01b03909116815260200161032e565b3480156103c157600080fd5b5061034d600d5481565b3480156103d757600080fd5b506103eb6103e6366004612c06565b6109aa565b005b3480156103f957600080fd5b5061034d600b5481565b34801561040f57600080fd5b5061034d60115481565b34801561042557600080fd5b50610439610434366004612c32565b610ae0565b60405161032e9190612ca9565b34801561045257600080fd5b5060085461034d565b34801561046757600080fd5b5061034d600f5481565b34801561047d57600080fd5b5061034d61048c366004612bd8565b601a6020526000908152604090205481565b3480156104aa57600080fd5b506103eb6104b9366004612cf7565b610ba0565b3480156104ca57600080fd5b5061034d6104d9366004612c06565b610c27565b3480156104ea57600080fd5b506103eb610ccf565b3480156104ff57600080fd5b506103eb61050e366004612d38565b610d24565b34801561051f57600080fd5b506103eb6111dd565b34801561053457600080fd5b506103eb610543366004612cf7565b61125b565b34801561055457600080fd5b5061034d610563366004612bd8565b611276565b34801561057457600080fd5b506103eb610583366004612d5a565b61131a565b34801561059457600080fd5b5061034d60135481565b3480156105aa57600080fd5b5061034d60155481565b3480156105c057600080fd5b5061039d6105cf366004612bd8565b61132f565b3480156105e057600080fd5b5061034d6105ef366004612dd9565b601b6020526000908152604090205481565b34801561060d57600080fd5b5061034d61061c366004612c32565b611394565b34801561062d57600080fd5b506103eb61142e565b6103eb610644366004612bd8565b611442565b34801561065557600080fd5b50610669610664366004612c06565b6115fd565b60405161032e9190612df6565b34801561068257600080fd5b5061034d60105481565b34801561069857600080fd5b50600a546001600160a01b031661039d565b3480156106b657600080fd5b5061037061175b565b3480156106cb57600080fd5b506103eb6106da366004612e04565b61176a565b3480156106eb57600080fd5b506103eb6106fa366004612e58565b611775565b34801561070b57600080fd5b5061034d60165481565b34801561072157600080fd5b506103eb610730366004612c32565b611803565b34801561074157600080fd5b50610370610750366004612bd8565b61183a565b34801561076157600080fd5b50610785610770366004612bd8565b601c6020526000908152604090205460ff1681565b60405161032e9190612f38565b34801561079e57600080fd5b506103eb6107ad366004612c32565b6119ec565b3480156107be57600080fd5b5061034d600e5481565b3480156107d457600080fd5b506103226107e3366004612f46565b611a23565b3480156107f457600080fd5b50600a546103229074010000000000000000000000000000000000000000900460ff1681565b34801561082657600080fd5b506103eb610835366004612c32565b611a75565b34801561084657600080fd5b5061034d600c5481565b34801561085c57600080fd5b5061034d60145481565b34801561087257600080fd5b50610886610881366004612c06565b611b05565b60405161032e93929190612f74565b60007fffffffff0000000000000000000000000000000000000000000000000000000082167f780e9d630000000000000000000000000000000000000000000000000000000014806108eb57506108eb82611b4b565b92915050565b60606000805461090090612f96565b80601f016020809104026020016040519081016040528092919081815260200182805461092c90612f96565b80156109795780601f1061094e57610100808354040283529160200191610979565b820191906000526020600020905b81548152906001019060200180831161095c57829003601f168201915b5050505050905090565b600061098e82611c2e565b506000908152600460205260409020546001600160a01b031690565b60006109b58261132f565b9050806001600160a01b0316836001600160a01b031603610a435760405162461bcd60e51b815260206004820152602160248201527f4552433732313a20617070726f76616c20746f2063757272656e74206f776e6560448201527f720000000000000000000000000000000000000000000000000000000000000060648201526084015b60405180910390fd5b336001600160a01b0382161480610a5f5750610a5f8133611a23565b610ad15760405162461bcd60e51b815260206004820152603d60248201527f4552433732313a20617070726f76652063616c6c6572206973206e6f7420746f60448201527f6b656e206f776e6572206f7220617070726f76656420666f7220616c6c0000006064820152608401610a3a565b610adb8383611c92565b505050565b6001600160a01b0381166000908152601d60209081526040808320805482518185028101850190935280835260609493849084015b82821015610b945783829060005260206000209060030201604051806060016040529081600082015481526020016001820160009054906101000a900460ff166002811115610b6657610b66612c4f565b6002811115610b7757610b77612c4f565b815260200160028201548152505081526020019060010190610b15565b50929695505050505050565b610baa3382611d0d565b610c1c5760405162461bcd60e51b815260206004820152602d60248201527f4552433732313a2063616c6c6572206973206e6f7420746f6b656e206f776e6560448201527f72206f7220617070726f766564000000000000000000000000000000000000006064820152608401610a3a565b610adb838383611d6c565b6000610c3283611394565b8210610ca65760405162461bcd60e51b815260206004820152602b60248201527f455243373231456e756d657261626c653a206f776e657220696e646578206f7560448201527f74206f6620626f756e64730000000000000000000000000000000000000000006064820152608401610a3a565b506001600160a01b03919091166000908152600660209081526040808320938352929052205490565b610cd7611faf565b600a80547fffffffffffffffffffffff00ffffffffffffffffffffffffffffffffffffffff8116740100000000000000000000000000000000000000009182900460ff1615909102179055565b6018546019546040517f70a082310000000000000000000000000000000000000000000000000000000081523360048201526001600160a01b039283169290911690839082906370a0823190602401602060405180830381865afa158015610d90573d6000803e3d6000fd5b505050506040513d601f19601f82011682018060405250810190610db49190612fd0565b1015610e025760405162461bcd60e51b815260206004820152601360248201527f796f75206e656564206d6f7265202450455045000000000000000000000000006044820152606401610a3a565b6040517f6352211e0000000000000000000000000000000000000000000000000000000081526004810185905233906001600160a01b03841690636352211e90602401602060405180830381865afa158015610e62573d6000803e3d6000fd5b505050506040513d601f19601f82011682018060405250810190610e869190612fe9565b6001600160a01b031614610edc5760405162461bcd60e51b815260206004820152601660248201527f796f7520617265206e6f7420746865206f776e657221000000000000000000006044820152606401610a3a565b6040517f0fd15ed1000000000000000000000000000000000000000000000000000000008152600481018590526000906001600160a01b03841690630fd15ed190602401602060405180830381865afa158015610f3d573d6000803e3d6000fd5b505050506040513d601f19601f82011682018060405250810190610f619190613006565b90506000610f6e82612009565b905080851015610fc05760405162461bcd60e51b815260206004820152601060248201527f6e656564206d6f726520245045504521000000000000000000000000000000006044820152606401610a3a565b6040517f2cee6e82000000000000000000000000000000000000000000000000000000008152600481018790526000906001600160a01b03861690632cee6e8290602401602060405180830381865afa158015611021573d6000803e3d6000fd5b505050506040513d601f19601f820116820180604052508101906110459190612fd0565b90506000604051806060016040528089815260200185600281111561106c5761106c612c4f565b815260200161107b8685612059565b90526040517ffc818684000000000000000000000000000000000000000000000000000000008152600481018a90529091506001600160a01b0387169063fc81868490602401600060405180830381600087803b1580156110db57600080fd5b505af11580156110ef573d6000803e3d6000fd5b50506040517f6a9605ac000000000000000000000000000000000000000000000000000000008152336004820152602481018690526001600160a01b0388169250636a9605ac9150604401600060405180830381600087803b15801561115457600080fd5b505af1158015611168573d6000803e3d6000fd5b5050336000908152601d6020908152604082208054600181810183559184529282902086516003909402019283559085015182820180548796509394509092909160ff19909116908360028111156111c2576111c2612c4f565b02179055506040820151816002015550505050505050505050565b6111e5611faf565b4760006111fa600a546001600160a01b031690565b6001600160a01b03168260405160006040518083038185875af1925050503d8060008114611244576040519150601f19603f3d011682016040523d82523d6000602084013e611249565b606091505b505090508061125757600080fd5b5050565b610adb83838360405180602001604052806000815250611775565b600061128160085490565b82106112f55760405162461bcd60e51b815260206004820152602c60248201527f455243373231456e756d657261626c653a20676c6f62616c20696e646578206f60448201527f7574206f6620626f756e647300000000000000000000000000000000000000006064820152608401610a3a565b6008828154811061130857611308613023565b90600052602060002001549050919050565b611322611faf565b6017610adb828483613087565b6000818152600260205260408120546001600160a01b0316806108eb5760405162461bcd60e51b815260206004820152601860248201527f4552433732313a20696e76616c696420746f6b656e20494400000000000000006044820152606401610a3a565b60006001600160a01b0382166114125760405162461bcd60e51b815260206004820152602960248201527f4552433732313a2061646472657373207a65726f206973206e6f74206120766160448201527f6c6964206f776e657200000000000000000000000000000000000000000000006064820152608401610a3a565b506001600160a01b031660009081526003602052604090205490565b611436611faf565b611440600061213c565b565b600a5474010000000000000000000000000000000000000000900460ff166114ac5760405162461bcd60e51b815260206004820152601060248201527f73616c65206973206e6f74206f70656e000000000000000000000000000000006044820152606401610a3a565b60006114b833836115fd565b9050428160400151111561150e5760405162461bcd60e51b815260206004820152601560248201527f6e6f7420726561647920666f72206d696e74696e6700000000000000000000006044820152606401610a3a565b600061151960085490565b6020808401516000838152601c90925260409091208054929350909160ff1916600183600281111561154d5761154d612c4f565b0217905550601b60008360200151600281111561156c5761156c612c4f565b600281111561157d5761157d612c4f565b815260200190815260200160002054601a6000838152602001908152602001600020819055506001601b6000846020015160028111156115bf576115bf612c4f565b60028111156115d0576115d0612c4f565b815260200190815260200160002060008282546115ed919061315d565b90915550610adb9050338261219b565b60408051606081018252600080825260208083018290528284018290526001600160a01b0386168252601d81528382208054855181840281018401909652808652939492939091849084015b828210156116c85783829060005260206000209060030201604051806060016040529081600082015481526020016001820160009054906101000a900460ff16600281111561169a5761169a612c4f565b60028111156116ab576116ab612c4f565b815260200160028201548152505081526020019060010190611649565b5050505090506116f36040805160608101909152600080825260208201908152602001600081525090565b60005b8251811015611752578483828151811061171257611712613023565b602002602001015160000151036117405782818151811061173557611735613023565b602002602001015191505b8061174a81613170565b9150506116f6565b50949350505050565b60606001805461090090612f96565b6112573383836121b5565b61177f3383611d0d565b6117f15760405162461bcd60e51b815260206004820152602d60248201527f4552433732313a2063616c6c6572206973206e6f7420746f6b656e206f776e6560448201527f72206f7220617070726f766564000000000000000000000000000000000000006064820152608401610a3a565b6117fd84848484612283565b50505050565b61180b611faf565b6018805473ffffffffffffffffffffffffffffffffffffffff19166001600160a01b0392909216919091179055565b604080516020810190915260008082526060919061185784611c2e565b6000848152601c602052604081205460ff16600281111561187a5761187a612c4f565b036118cc575050604080518082018252600281527f312f0000000000000000000000000000000000000000000000000000000000006020808301919091526000858152601a90915291909120546119b6565b60016000858152601c602052604090205460ff1660028111156118f1576118f1612c4f565b03611943575050604080518082018252600281527f322f0000000000000000000000000000000000000000000000000000000000006020808301919091526000858152601a90915291909120546119b6565b60026000858152601c602052604090205460ff16600281111561196857611968612c4f565b036119b6575050604080518082018252600281527f332f0000000000000000000000000000000000000000000000000000000000006020808301919091526000858152601a90915291909120545b6017826119c28361230c565b6040516020016119d49392919061318a565b60405160208183030381529060405292505050919050565b6119f4611faf565b6019805473ffffffffffffffffffffffffffffffffffffffff19166001600160a01b0392909216919091179055565b6019546000906001600160a01b0390811690831603611a44575060016108eb565b6001600160a01b0380841660009081526005602090815260408083209386168352929052205460ff165b9392505050565b611a7d611faf565b6001600160a01b038116611af95760405162461bcd60e51b815260206004820152602660248201527f4f776e61626c653a206e6577206f776e657220697320746865207a65726f206160448201527f64647265737300000000000000000000000000000000000000000000000000006064820152608401610a3a565b611b028161213c565b50565b601d6020528160005260406000208181548110611b2157600080fd5b600091825260209091206003909102018054600182015460029092015490935060ff909116915083565b60007fffffffff0000000000000000000000000000000000000000000000000000000082167f80ac58cd000000000000000000000000000000000000000000000000000000001480611bde57507fffffffff0000000000000000000000000000000000000000000000000000000082167f5b5e139f00000000000000000000000000000000000000000000000000000000145b806108eb57507f01ffc9a7000000000000000000000000000000000000000000000000000000007fffffffff000000000000000000000000000000000000000000000000000000008316146108eb565b6000818152600260205260409020546001600160a01b0316611b025760405162461bcd60e51b815260206004820152601860248201527f4552433732313a20696e76616c696420746f6b656e20494400000000000000006044820152606401610a3a565b6000818152600460205260409020805473ffffffffffffffffffffffffffffffffffffffff19166001600160a01b0384169081179091558190611cd48261132f565b6001600160a01b03167f8c5be1e5ebec7d5bd14f71427d1e84f3dd0314c0f7b2291e5b200ac8c7c3b92560405160405180910390a45050565b600080611d198361132f565b9050806001600160a01b0316846001600160a01b03161480611d405750611d408185611a23565b80611d645750836001600160a01b0316611d5984610983565b6001600160a01b0316145b949350505050565b826001600160a01b0316611d7f8261132f565b6001600160a01b031614611dfb5760405162461bcd60e51b815260206004820152602560248201527f4552433732313a207472616e736665722066726f6d20696e636f72726563742060448201527f6f776e65720000000000000000000000000000000000000000000000000000006064820152608401610a3a565b6001600160a01b038216611e765760405162461bcd60e51b8152602060048201526024808201527f4552433732313a207472616e7366657220746f20746865207a65726f2061646460448201527f72657373000000000000000000000000000000000000000000000000000000006064820152608401610a3a565b611e8383838360016123ac565b826001600160a01b0316611e968261132f565b6001600160a01b031614611f125760405162461bcd60e51b815260206004820152602560248201527f4552433732313a207472616e736665722066726f6d20696e636f72726563742060448201527f6f776e65720000000000000000000000000000000000000000000000000000006064820152608401610a3a565b6000818152600460209081526040808320805473ffffffffffffffffffffffffffffffffffffffff199081169091556001600160a01b0387811680865260038552838620805460001901905590871680865283862080546001019055868652600290945282852080549092168417909155905184937fddf252ad1be2c89b69c2b068fc378daa952ba7f163c4a11628f55a4df523b3ef91a4505050565b600a546001600160a01b031633146114405760405162461bcd60e51b815260206004820181905260248201527f4f776e61626c653a2063616c6c6572206973206e6f7420746865206f776e65726044820152606401610a3a565b6000808083600281111561201f5761201f612c4f565b0361202d5750600b546108eb565b600283600281111561204157612041612c4f565b0361204f57506013546108eb565b50600f5492915050565b6000808084600281111561206f5761206f612c4f565b036120b357600283101561209157600c5461208a904261315d565b9050611a6e565b826002036120a657600d5461208a904261315d565b600e5461208a904261315d565b60018460028111156120c7576120c7612c4f565b036121045760028310156120e25760105461208a904261315d565b826002036120f75760115461208a904261315d565b60125461208a904261315d565b600283101561211a5760145461208a904261315d565b8260020361212f5760155461208a904261315d565b601654611d64904261315d565b600a80546001600160a01b0383811673ffffffffffffffffffffffffffffffffffffffff19831681179093556040519116919082907f8be0079c531659141344cd1fd0a4f28419497f9722a3daafe3b4186f6b6457e090600090a35050565b6112578282604051806020016040528060008152506124e8565b816001600160a01b0316836001600160a01b0316036122165760405162461bcd60e51b815260206004820152601960248201527f4552433732313a20617070726f766520746f2063616c6c6572000000000000006044820152606401610a3a565b6001600160a01b03838116600081815260056020908152604080832094871680845294825291829020805460ff191686151590811790915591519182527f17307eab39ab6107e8899845ad3d59bd9653f200f220920489ca2b5937696c31910160405180910390a3505050565b61228e848484611d6c565b61229a84848484612571565b6117fd5760405162461bcd60e51b815260206004820152603260248201527f4552433732313a207472616e7366657220746f206e6f6e20455243373231526560448201527f63656976657220696d706c656d656e74657200000000000000000000000000006064820152608401610a3a565b6060600061231983612712565b600101905060008167ffffffffffffffff81111561233957612339612e42565b6040519080825280601f01601f191660200182016040528015612363576020820181803683370190505b5090508181016020015b600019017f3031323334353637383961626364656600000000000000000000000000000000600a86061a8153600a850494508461236d57509392505050565b60018111156124235760405162461bcd60e51b815260206004820152603560248201527f455243373231456e756d657261626c653a20636f6e736563757469766520747260448201527f616e7366657273206e6f7420737570706f7274656400000000000000000000006064820152608401610a3a565b816001600160a01b03851661247f5761247a81600880546000838152600960205260408120829055600182018355919091527ff3f7a9fe364faab93b216da50a3214154f22a0a2b415b23a84c8169e8b636ee30155565b6124a2565b836001600160a01b0316856001600160a01b0316146124a2576124a285826127f4565b6001600160a01b0384166124be576124b981612891565b6124e1565b846001600160a01b0316846001600160a01b0316146124e1576124e18482612940565b5050505050565b6124f28383612984565b6124ff6000848484612571565b610adb5760405162461bcd60e51b815260206004820152603260248201527f4552433732313a207472616e7366657220746f206e6f6e20455243373231526560448201527f63656976657220696d706c656d656e74657200000000000000000000000000006064820152608401610a3a565b60006001600160a01b0384163b15612707576040517f150b7a020000000000000000000000000000000000000000000000000000000081526001600160a01b0385169063150b7a02906125ce903390899088908890600401613225565b6020604051808303816000875af1925050508015612609575060408051601f3d908101601f1916820190925261260691810190613261565b60015b6126bc573d808015612637576040519150601f19603f3d011682016040523d82523d6000602084013e61263c565b606091505b5080516000036126b45760405162461bcd60e51b815260206004820152603260248201527f4552433732313a207472616e7366657220746f206e6f6e20455243373231526560448201527f63656976657220696d706c656d656e74657200000000000000000000000000006064820152608401610a3a565b805181602001fd5b7fffffffff00000000000000000000000000000000000000000000000000000000167f150b7a0200000000000000000000000000000000000000000000000000000000149050611d64565b506001949350505050565b6000807a184f03e93ff9f4daa797ed6e38ed64bf6a1f010000000000000000831061275b577a184f03e93ff9f4daa797ed6e38ed64bf6a1f010000000000000000830492506040015b6d04ee2d6d415b85acef81000000008310612787576d04ee2d6d415b85acef8100000000830492506020015b662386f26fc1000083106127a557662386f26fc10000830492506010015b6305f5e10083106127bd576305f5e100830492506008015b61271083106127d157612710830492506004015b606483106127e3576064830492506002015b600a83106108eb5760010192915050565b6000600161280184611394565b61280b919061327e565b60008381526007602052604090205490915080821461285e576001600160a01b03841660009081526006602090815260408083208584528252808320548484528184208190558352600790915290208190555b5060009182526007602090815260408084208490556001600160a01b039094168352600681528383209183525290812055565b6008546000906128a39060019061327e565b600083815260096020526040812054600880549394509092849081106128cb576128cb613023565b9060005260206000200154905080600883815481106128ec576128ec613023565b600091825260208083209091019290925582815260099091526040808220849055858252812055600880548061292457612924613291565b6001900381819060005260206000200160009055905550505050565b600061294b83611394565b6001600160a01b039093166000908152600660209081526040808320868452825280832085905593825260079052919091209190915550565b6001600160a01b0382166129da5760405162461bcd60e51b815260206004820181905260248201527f4552433732313a206d696e7420746f20746865207a65726f20616464726573736044820152606401610a3a565b6000818152600260205260409020546001600160a01b031615612a3f5760405162461bcd60e51b815260206004820152601c60248201527f4552433732313a20746f6b656e20616c7265616479206d696e746564000000006044820152606401610a3a565b612a4d6000838360016123ac565b6000818152600260205260409020546001600160a01b031615612ab25760405162461bcd60e51b815260206004820152601c60248201527f4552433732313a20746f6b656e20616c7265616479206d696e746564000000006044820152606401610a3a565b6001600160a01b0382166000818152600360209081526040808320805460010190558483526002909152808220805473ffffffffffffffffffffffffffffffffffffffff19168417905551839291907fddf252ad1be2c89b69c2b068fc378daa952ba7f163c4a11628f55a4df523b3ef908290a45050565b7fffffffff0000000000000000000000000000000000000000000000000000000081168114611b0257600080fd5b600060208284031215612b6a57600080fd5b8135611a6e81612b2a565b60005b83811015612b90578181015183820152602001612b78565b50506000910152565b60008151808452612bb1816020860160208601612b75565b601f01601f19169290920160200192915050565b602081526000611a6e6020830184612b99565b600060208284031215612bea57600080fd5b5035919050565b6001600160a01b0381168114611b0257600080fd5b60008060408385031215612c1957600080fd5b8235612c2481612bf1565b946020939093013593505050565b600060208284031215612c4457600080fd5b8135611a6e81612bf1565b634e487b7160e01b600052602160045260246000fd5b60038110612c8357634e487b7160e01b600052602160045260246000fd5b9052565b805182526020810151612c9d6020840182612c65565b50604090810151910152565b6020808252825182820181905260009190848201906040850190845b81811015612ceb57612cd8838551612c87565b9284019260609290920191600101612cc5565b50909695505050505050565b600080600060608486031215612d0c57600080fd5b8335612d1781612bf1565b92506020840135612d2781612bf1565b929592945050506040919091013590565b60008060408385031215612d4b57600080fd5b50508035926020909101359150565b60008060208385031215612d6d57600080fd5b823567ffffffffffffffff80821115612d8557600080fd5b818501915085601f830112612d9957600080fd5b813581811115612da857600080fd5b866020828501011115612dba57600080fd5b60209290920196919550909350505050565b60038110611b0257600080fd5b600060208284031215612deb57600080fd5b8135611a6e81612dcc565b606081016108eb8284612c87565b60008060408385031215612e1757600080fd5b8235612e2281612bf1565b915060208301358015158114612e3757600080fd5b809150509250929050565b634e487b7160e01b600052604160045260246000fd5b60008060008060808587031215612e6e57600080fd5b8435612e7981612bf1565b93506020850135612e8981612bf1565b925060408501359150606085013567ffffffffffffffff80821115612ead57600080fd5b818701915087601f830112612ec157600080fd5b813581811115612ed357612ed3612e42565b604051601f8201601f19908116603f01168101908382118183101715612efb57612efb612e42565b816040528281528a6020848701011115612f1457600080fd5b82602086016020830137600060208483010152809550505050505092959194509250565b602081016108eb8284612c65565b60008060408385031215612f5957600080fd5b8235612f6481612bf1565b91506020830135612e3781612bf1565b83815260608101612f886020830185612c65565b826040830152949350505050565b600181811c90821680612faa57607f821691505b602082108103612fca57634e487b7160e01b600052602260045260246000fd5b50919050565b600060208284031215612fe257600080fd5b5051919050565b600060208284031215612ffb57600080fd5b8151611a6e81612bf1565b60006020828403121561301857600080fd5b8151611a6e81612dcc565b634e487b7160e01b600052603260045260246000fd5b601f821115610adb57600081815260208120601f850160051c810160208610156130605750805b601f850160051c820191505b8181101561307f5782815560010161306c565b505050505050565b67ffffffffffffffff83111561309f5761309f612e42565b6130b3836130ad8354612f96565b83613039565b6000601f8411600181146130e757600085156130cf5750838201355b600019600387901b1c1916600186901b1783556124e1565b600083815260209020601f19861690835b8281101561311857868501358255602094850194600190920191016130f8565b50868210156131355760001960f88860031b161c19848701351681555b505060018560011b0183555050505050565b634e487b7160e01b600052601160045260246000fd5b808201808211156108eb576108eb613147565b6000600019820361318357613183613147565b5060010190565b600080855461319881612f96565b600182811680156131b057600181146131c5576131f4565b60ff19841687528215158302870194506131f4565b8960005260208060002060005b858110156131eb5781548a8201529084019082016131d2565b50505082870194505b505050508451613208818360208901612b75565b845191019061321b818360208801612b75565b0195945050505050565b60006001600160a01b038087168352808616602084015250836040830152608060608301526132576080830184612b99565b9695505050505050565b60006020828403121561327357600080fd5b8151611a6e81612b2a565b818103818111156108eb576108eb613147565b634e487b7160e01b600052603160045260246000fdfea2646970667358221220de4a48c48b248286ea1f044bb8fbe066370f372c8f14f99223b982a5475c842064736f6c63430008120033",
  "devdoc": {
    "events": {
      "Approval(address,address,uint256)": {
        "details": "Emitted when `owner` enables `approved` to manage the `tokenId` token."
      },
      "ApprovalForAll(address,address,bool)": {
        "details": "Emitted when `owner` enables or disables (`approved`) `operator` to manage all of its assets."
      },
      "Transfer(address,address,uint256)": {
        "details": "Emitted when `tokenId` token is transferred from `from` to `to`."
      }
    },
    "kind": "dev",
    "methods": {
      "approve(address,uint256)": {
        "details": "See {IERC721-approve}."
      },
      "balanceOf(address)": {
        "details": "See {IERC721-balanceOf}."
      },
      "getApproved(uint256)": {
        "details": "See {IERC721-getApproved}."
      },
      "name()": {
        "details": "See {IERC721Metadata-name}."
      },
      "owner()": {
        "details": "Returns the address of the current owner."
      },
      "ownerOf(uint256)": {
        "details": "See {IERC721-ownerOf}."
      },
      "renounceOwnership()": {
        "details": "Leaves the contract without owner. It will not be possible to call `onlyOwner` functions anymore. Can only be called by the current owner. NOTE: Renouncing ownership will leave the contract without an owner, thereby removing any functionality that is only available to the owner."
      },
      "safeTransferFrom(address,address,uint256)": {
        "details": "See {IERC721-safeTransferFrom}."
      },
      "safeTransferFrom(address,address,uint256,bytes)": {
        "details": "See {IERC721-safeTransferFrom}."
      },
      "setApprovalForAll(address,bool)": {
        "details": "See {IERC721-setApprovalForAll}."
      },
      "supportsInterface(bytes4)": {
        "details": "See {IERC165-supportsInterface}."
      },
      "symbol()": {
        "details": "See {IERC721Metadata-symbol}."
      },
      "tokenByIndex(uint256)": {
        "details": "See {IERC721Enumerable-tokenByIndex}."
      },
      "tokenOfOwnerByIndex(address,uint256)": {
        "details": "See {IERC721Enumerable-tokenOfOwnerByIndex}."
      },
      "totalSupply()": {
        "details": "See {IERC721Enumerable-totalSupply}."
      },
      "transferFrom(address,address,uint256)": {
        "details": "See {IERC721-transferFrom}."
      },
      "transferOwnership(address)": {
        "details": "Transfers ownership of the contract to a new account (`newOwner`). Can only be called by the current owner."
      }
    },
    "version": 1
  },
  "userdoc": {
    "kind": "user",
    "methods": {},
    "version": 1
  },
  "storageLayout": {
    "storage": [
      {
        "astId": 872,
        "contract": "contracts/Character.sol:Character",
        "label": "_name",
        "offset": 0,
        "slot": "0",
        "type": "t_string_storage"
      },
      {
        "astId": 874,
        "contract": "contracts/Character.sol:Character",
        "label": "_symbol",
        "offset": 0,
        "slot": "1",
        "type": "t_string_storage"
      },
      {
        "astId": 878,
        "contract": "contracts/Character.sol:Character",
        "label": "_owners",
        "offset": 0,
        "slot": "2",
        "type": "t_mapping(t_uint256,t_address)"
      },
      {
        "astId": 882,
        "contract": "contracts/Character.sol:Character",
        "label": "_balances",
        "offset": 0,
        "slot": "3",
        "type": "t_mapping(t_address,t_uint256)"
      },
      {
        "astId": 886,
        "contract": "contracts/Character.sol:Character",
        "label": "_tokenApprovals",
        "offset": 0,
        "slot": "4",
        "type": "t_mapping(t_uint256,t_address)"
      },
      {
        "astId": 892,
        "contract": "contracts/Character.sol:Character",
        "label": "_operatorApprovals",
        "offset": 0,
        "slot": "5",
        "type": "t_mapping(t_address,t_mapping(t_address,t_bool))"
      },
      {
        "astId": 1922,
        "contract": "contracts/Character.sol:Character",
        "label": "_ownedTokens",
        "offset": 0,
        "slot": "6",
        "type": "t_mapping(t_address,t_mapping(t_uint256,t_uint256))"
      },
      {
        "astId": 1926,
        "contract": "contracts/Character.sol:Character",
        "label": "_ownedTokensIndex",
        "offset": 0,
        "slot": "7",
        "type": "t_mapping(t_uint256,t_uint256)"
      },
      {
        "astId": 1929,
        "contract": "contracts/Character.sol:Character",
        "label": "_allTokens",
        "offset": 0,
        "slot": "8",
        "type": "t_array(t_uint256)dyn_storage"
      },
      {
        "astId": 1933,
        "contract": "contracts/Character.sol:Character",
        "label": "_allTokensIndex",
        "offset": 0,
        "slot": "9",
        "type": "t_mapping(t_uint256,t_uint256)"
      },
      {
        "astId": 7,
        "contract": "contracts/Character.sol:Character",
        "label": "_owner",
        "offset": 0,
        "slot": "10",
        "type": "t_address"
      },
      {
        "astId": 4317,
        "contract": "contracts/Character.sol:Character",
        "label": "saleIsActive",
        "offset": 20,
        "slot": "10",
        "type": "t_bool"
      },
      {
        "astId": 4320,
        "contract": "contracts/Character.sol:Character",
        "label": "farmerPrice",
        "offset": 0,
        "slot": "11",
        "type": "t_uint256"
      },
      {
        "astId": 4323,
        "contract": "contracts/Character.sol:Character",
        "label": "farmersTime1",
        "offset": 0,
        "slot": "12",
        "type": "t_uint256"
      },
      {
        "astId": 4326,
        "contract": "contracts/Character.sol:Character",
        "label": "farmersTime2",
        "offset": 0,
        "slot": "13",
        "type": "t_uint256"
      },
      {
        "astId": 4329,
        "contract": "contracts/Character.sol:Character",
        "label": "farmersTime3",
        "offset": 0,
        "slot": "14",
        "type": "t_uint256"
      },
      {
        "astId": 4332,
        "contract": "contracts/Character.sol:Character",
        "label": "bullPrice",
        "offset": 0,
        "slot": "15",
        "type": "t_uint256"
      },
      {
        "astId": 4335,
        "contract": "contracts/Character.sol:Character",
        "label": "bullsTime1",
        "offset": 0,
        "slot": "16",
        "type": "t_uint256"
      },
      {
        "astId": 4338,
        "contract": "contracts/Character.sol:Character",
        "label": "bullsTime2",
        "offset": 0,
        "slot": "17",
        "type": "t_uint256"
      },
      {
        "astId": 4341,
        "contract": "contracts/Character.sol:Character",
        "label": "bullsTime3",
        "offset": 0,
        "slot": "18",
        "type": "t_uint256"
      },
      {
        "astId": 4344,
        "contract": "contracts/Character.sol:Character",
        "label": "bearPrice",
        "offset": 0,
        "slot": "19",
        "type": "t_uint256"
      },
      {
        "astId": 4347,
        "contract": "contracts/Character.sol:Character",
        "label": "bearsTime1",
        "offset": 0,
        "slot": "20",
        "type": "t_uint256"
      },
      {
        "astId": 4350,
        "contract": "contracts/Character.sol:Character",
        "label": "bearsTime2",
        "offset": 0,
        "slot": "21",
        "type": "t_uint256"
      },
      {
        "astId": 4353,
        "contract": "contracts/Character.sol:Character",
        "label": "bearsTime3",
        "offset": 0,
        "slot": "22",
        "type": "t_uint256"
      },
      {
        "astId": 4355,
        "contract": "contracts/Character.sol:Character",
        "label": "_nftBaseURI",
        "offset": 0,
        "slot": "23",
        "type": "t_string_storage"
      },
      {
        "astId": 4357,
        "contract": "contracts/Character.sol:Character",
        "label": "pepeDiscAddress",
        "offset": 0,
        "slot": "24",
        "type": "t_address"
      },
      {
        "astId": 4359,
        "contract": "contracts/Character.sol:Character",
        "label": "pepeStakingAddress",
        "offset": 0,
        "slot": "25",
        "type": "t_address"
      },
      {
        "astId": 4363,
        "contract": "contracts/Character.sol:Character",
        "label": "newTokenUri",
        "offset": 0,
        "slot": "26",
        "type": "t_mapping(t_uint256,t_uint256)"
      },
      {
        "astId": 4368,
        "contract": "contracts/Character.sol:Character",
        "label": "rarityPerToken",
        "offset": 0,
        "slot": "27",
        "type": "t_mapping(t_enum(DiscType)4260,t_uint256)"
      },
      {
        "astId": 4373,
        "contract": "contracts/Character.sol:Character",
        "label": "tokenPerRarity",
        "offset": 0,
        "slot": "28",
        "type": "t_mapping(t_uint256,t_enum(DiscType)4260)"
      },
      {
        "astId": 4414,
        "contract": "contracts/Character.sol:Character",
        "label": "mintableCharacters",
        "offset": 0,
        "slot": "29",
        "type": "t_mapping(t_address,t_array(t_struct(Mintable)4314_storage)dyn_storage)"
      }
    ],
    "types": {
      "t_address": {
        "encoding": "inplace",
        "label": "address",
        "numberOfBytes": "20"
      },
      "t_array(t_struct(Mintable)4314_storage)dyn_storage": {
        "base": "t_struct(Mintable)4314_storage",
        "encoding": "dynamic_array",
        "label": "struct Character.Mintable[]",
        "numberOfBytes": "32"
      },
      "t_array(t_uint256)dyn_storage": {
        "base": "t_uint256",
        "encoding": "dynamic_array",
        "label": "uint256[]",
        "numberOfBytes": "32"
      },
      "t_bool": {
        "encoding": "inplace",
        "label": "bool",
        "numberOfBytes": "1"
      },
      "t_enum(DiscType)4260": {
        "encoding": "inplace",
        "label": "enum DiscType",
        "numberOfBytes": "1"
      },
      "t_mapping(t_address,t_array(t_struct(Mintable)4314_storage)dyn_storage)": {
        "encoding": "mapping",
        "key": "t_address",
        "label": "mapping(address => struct Character.Mintable[])",
        "numberOfBytes": "32",
        "value": "t_array(t_struct(Mintable)4314_storage)dyn_storage"
      },
      "t_mapping(t_address,t_bool)": {
        "encoding": "mapping",
        "key": "t_address",
        "label": "mapping(address => bool)",
        "numberOfBytes": "32",
        "value": "t_bool"
      },
      "t_mapping(t_address,t_mapping(t_address,t_bool))": {
        "encoding": "mapping",
        "key": "t_address",
        "label": "mapping(address => mapping(address => bool))",
        "numberOfBytes": "32",
        "value": "t_mapping(t_address,t_bool)"
      },
      "t_mapping(t_address,t_mapping(t_uint256,t_uint256))": {
        "encoding": "mapping",
        "key": "t_address",
        "label": "mapping(address => mapping(uint256 => uint256))",
        "numberOfBytes": "32",
        "value": "t_mapping(t_uint256,t_uint256)"
      },
      "t_mapping(t_address,t_uint256)": {
        "encoding": "mapping",
        "key": "t_address",
        "label": "mapping(address => uint256)",
        "numberOfBytes": "32",
        "value": "t_uint256"
      },
      "t_mapping(t_enum(DiscType)4260,t_uint256)": {
        "encoding": "mapping",
        "key": "t_enum(DiscType)4260",
        "label": "mapping(enum DiscType => uint256)",
        "numberOfBytes": "32",
        "value": "t_uint256"
      },
      "t_mapping(t_uint256,t_address)": {
        "encoding": "mapping",
        "key": "t_uint256",
        "label": "mapping(uint256 => address)",
        "numberOfBytes": "32",
        "value": "t_address"
      },
      "t_mapping(t_uint256,t_enum(DiscType)4260)": {
        "encoding": "mapping",
        "key": "t_uint256",
        "label": "mapping(uint256 => enum DiscType)",
        "numberOfBytes": "32",
        "value": "t_enum(DiscType)4260"
      },
      "t_mapping(t_uint256,t_uint256)": {
        "encoding": "mapping",
        "key": "t_uint256",
        "label": "mapping(uint256 => uint256)",
        "numberOfBytes": "32",
        "value": "t_uint256"
      },
      "t_string_storage": {
        "encoding": "bytes",
        "label": "string",
        "numberOfBytes": "32"
      },
      "t_struct(Mintable)4314_storage": {
        "encoding": "inplace",
        "label": "struct Character.Mintable",
        "members": [
          {
            "astId": 4308,
            "contract": "contracts/Character.sol:Character",
            "label": "tokenID",
            "offset": 0,
            "slot": "0",
            "type": "t_uint256"
          },
          {
            "astId": 4311,
            "contract": "contracts/Character.sol:Character",
            "label": "discType",
            "offset": 0,
            "slot": "1",
            "type": "t_enum(DiscType)4260"
          },
          {
            "astId": 4313,
            "contract": "contracts/Character.sol:Character",
            "label": "mintable",
            "offset": 0,
            "slot": "2",
            "type": "t_uint256"
          }
        ],
        "numberOfBytes": "96"
      },
      "t_uint256": {
        "encoding": "inplace",
        "label": "uint256",
        "numberOfBytes": "32"
      }
    }
  }
}