{
  "address": "0x63A744ABE1900Ad0858D83d39221aB91f6671baE",
  "abi": [
    {
      "inputs": [
        {
          "internalType": "uint256",
          "name": "initialSupply",
          "type": "uint256"
        }
      ],
      "stateMutability": "nonpayable",
      "type": "constructor"
    },
    {
      "anonymous": false,
      "inputs": [
        {
          "indexed": true,
          "internalType": "address",
          "name": "owner",
          "type": "address"
        },
        {
          "indexed": true,
          "internalType": "address",
          "name": "spender",
          "type": "address"
        },
        {
          "indexed": false,
          "internalType": "uint256",
          "name": "value",
          "type": "uint256"
        }
      ],
      "name": "Approval",
      "type": "event"
    },
    {
      "anonymous": false,
      "inputs": [
        {
          "indexed": false,
          "internalType": "bool",
          "name": "burned",
          "type": "bool"
        }
      ],
      "name": "BurnedDisc",
      "type": "event"
    },
    {
      "anonymous": false,
      "inputs": [
        {
          "indexed": true,
          "internalType": "address",
          "name": "previousOwner",
          "type": "address"
        },
        {
          "indexed": true,
          "internalType": "address",
          "name": "newOwner",
          "type": "address"
        }
      ],
      "name": "OwnershipTransferred",
      "type": "event"
    },
    {
      "anonymous": false,
      "inputs": [
        {
          "indexed": true,
          "internalType": "address",
          "name": "from",
          "type": "address"
        },
        {
          "indexed": true,
          "internalType": "address",
          "name": "to",
          "type": "address"
        },
        {
          "indexed": false,
          "internalType": "uint256",
          "name": "value",
          "type": "uint256"
        }
      ],
      "name": "Transfer",
      "type": "event"
    },
    {
      "inputs": [
        {
          "internalType": "address",
          "name": "owner",
          "type": "address"
        },
        {
          "internalType": "address",
          "name": "spender",
          "type": "address"
        }
      ],
      "name": "allowance",
      "outputs": [
        {
          "internalType": "uint256",
          "name": "",
          "type": "uint256"
        }
      ],
      "stateMutability": "view",
      "type": "function"
    },
    {
      "inputs": [
        {
          "internalType": "address",
          "name": "spender",
          "type": "address"
        },
        {
          "internalType": "uint256",
          "name": "amount",
          "type": "uint256"
        }
      ],
      "name": "approve",
      "outputs": [
        {
          "internalType": "bool",
          "name": "",
          "type": "bool"
        }
      ],
      "stateMutability": "nonpayable",
      "type": "function"
    },
    {
      "inputs": [
        {
          "internalType": "address",
          "name": "account",
          "type": "address"
        }
      ],
      "name": "balanceOf",
      "outputs": [
        {
          "internalType": "uint256",
          "name": "",
          "type": "uint256"
        }
      ],
      "stateMutability": "view",
      "type": "function"
    },
    {
      "inputs": [
        {
          "internalType": "uint256",
          "name": "amount",
          "type": "uint256"
        }
      ],
      "name": "burn",
      "outputs": [],
      "stateMutability": "nonpayable",
      "type": "function"
    },
    {
      "inputs": [
        {
          "internalType": "address",
          "name": "account",
          "type": "address"
        },
        {
          "internalType": "uint256",
          "name": "amount",
          "type": "uint256"
        }
      ],
      "name": "burnFrom",
      "outputs": [],
      "stateMutability": "nonpayable",
      "type": "function"
    },
    {
      "inputs": [
        {
          "internalType": "uint256",
          "name": "amount_",
          "type": "uint256"
        }
      ],
      "name": "burnMyPepe",
      "outputs": [],
      "stateMutability": "nonpayable",
      "type": "function"
    },
    {
      "inputs": [
        {
          "internalType": "address",
          "name": "sender",
          "type": "address"
        },
        {
          "internalType": "uint256",
          "name": "amount_",
          "type": "uint256"
        }
      ],
      "name": "burnPepe",
      "outputs": [],
      "stateMutability": "nonpayable",
      "type": "function"
    },
    {
      "inputs": [
        {
          "internalType": "uint256",
          "name": "discID_",
          "type": "uint256"
        }
      ],
      "name": "calculatePepe",
      "outputs": [
        {
          "internalType": "uint256",
          "name": "",
          "type": "uint256"
        }
      ],
      "stateMutability": "view",
      "type": "function"
    },
    {
      "inputs": [],
      "name": "decimals",
      "outputs": [
        {
          "internalType": "uint8",
          "name": "",
          "type": "uint8"
        }
      ],
      "stateMutability": "view",
      "type": "function"
    },
    {
      "inputs": [
        {
          "internalType": "address",
          "name": "spender",
          "type": "address"
        },
        {
          "internalType": "uint256",
          "name": "subtractedValue",
          "type": "uint256"
        }
      ],
      "name": "decreaseAllowance",
      "outputs": [
        {
          "internalType": "bool",
          "name": "",
          "type": "bool"
        }
      ],
      "stateMutability": "nonpayable",
      "type": "function"
    },
    {
      "inputs": [
        {
          "internalType": "uint256",
          "name": "",
          "type": "uint256"
        }
      ],
      "name": "disc",
      "outputs": [
        {
          "internalType": "address",
          "name": "owner",
          "type": "address"
        },
        {
          "internalType": "uint256",
          "name": "inDrive",
          "type": "uint256"
        },
        {
          "internalType": "uint256",
          "name": "startDate",
          "type": "uint256"
        }
      ],
      "stateMutability": "view",
      "type": "function"
    },
    {
      "inputs": [
        {
          "internalType": "uint256",
          "name": "",
          "type": "uint256"
        }
      ],
      "name": "discInDrive",
      "outputs": [
        {
          "internalType": "bool",
          "name": "",
          "type": "bool"
        }
      ],
      "stateMutability": "view",
      "type": "function"
    },
    {
      "inputs": [
        {
          "internalType": "uint256",
          "name": "discID_",
          "type": "uint256"
        }
      ],
      "name": "ejectDisc",
      "outputs": [],
      "stateMutability": "nonpayable",
      "type": "function"
    },
    {
      "inputs": [
        {
          "internalType": "address",
          "name": "spender",
          "type": "address"
        },
        {
          "internalType": "uint256",
          "name": "addedValue",
          "type": "uint256"
        }
      ],
      "name": "increaseAllowance",
      "outputs": [
        {
          "internalType": "bool",
          "name": "",
          "type": "bool"
        }
      ],
      "stateMutability": "nonpayable",
      "type": "function"
    },
    {
      "inputs": [],
      "name": "name",
      "outputs": [
        {
          "internalType": "string",
          "name": "",
          "type": "string"
        }
      ],
      "stateMutability": "view",
      "type": "function"
    },
    {
      "inputs": [],
      "name": "owner",
      "outputs": [
        {
          "internalType": "address",
          "name": "",
          "type": "address"
        }
      ],
      "stateMutability": "view",
      "type": "function"
    },
    {
      "inputs": [
        {
          "internalType": "uint256",
          "name": "",
          "type": "uint256"
        }
      ],
      "name": "ownerOfDrive",
      "outputs": [
        {
          "internalType": "address",
          "name": "",
          "type": "address"
        }
      ],
      "stateMutability": "view",
      "type": "function"
    },
    {
      "inputs": [],
      "name": "renounceOwnership",
      "outputs": [],
      "stateMutability": "nonpayable",
      "type": "function"
    },
    {
      "inputs": [
        {
          "internalType": "address",
          "name": "discOwner_",
          "type": "address"
        },
        {
          "internalType": "enum PepeStaking.TokenType",
          "name": "tt_",
          "type": "uint8"
        }
      ],
      "name": "returnTokensOfOwner",
      "outputs": [
        {
          "internalType": "uint256[]",
          "name": "",
          "type": "uint256[]"
        }
      ],
      "stateMutability": "view",
      "type": "function"
    },
    {
      "inputs": [
        {
          "internalType": "address",
          "name": "characterAddress_",
          "type": "address"
        }
      ],
      "name": "setCharacterAddress",
      "outputs": [],
      "stateMutability": "nonpayable",
      "type": "function"
    },
    {
      "inputs": [
        {
          "internalType": "address",
          "name": "discContractAddress_",
          "type": "address"
        }
      ],
      "name": "setDiscContractAddress",
      "outputs": [],
      "stateMutability": "nonpayable",
      "type": "function"
    },
    {
      "inputs": [
        {
          "internalType": "address",
          "name": "pepeDriveIIAddress_",
          "type": "address"
        }
      ],
      "name": "setPepeDriveIIAddress",
      "outputs": [],
      "stateMutability": "nonpayable",
      "type": "function"
    },
    {
      "inputs": [
        {
          "internalType": "uint256",
          "name": "driveID_",
          "type": "uint256"
        },
        {
          "internalType": "uint256",
          "name": "discID_",
          "type": "uint256"
        }
      ],
      "name": "stakeDisc",
      "outputs": [],
      "stateMutability": "nonpayable",
      "type": "function"
    },
    {
      "inputs": [
        {
          "internalType": "uint256",
          "name": "driveID_",
          "type": "uint256"
        }
      ],
      "name": "stakeDrive",
      "outputs": [],
      "stateMutability": "nonpayable",
      "type": "function"
    },
    {
      "inputs": [
        {
          "internalType": "address",
          "name": "",
          "type": "address"
        },
        {
          "internalType": "enum PepeStaking.TokenType",
          "name": "",
          "type": "uint8"
        },
        {
          "internalType": "uint256",
          "name": "",
          "type": "uint256"
        }
      ],
      "name": "stakedTokens",
      "outputs": [
        {
          "internalType": "uint256",
          "name": "",
          "type": "uint256"
        }
      ],
      "stateMutability": "view",
      "type": "function"
    },
    {
      "inputs": [],
      "name": "symbol",
      "outputs": [
        {
          "internalType": "string",
          "name": "",
          "type": "string"
        }
      ],
      "stateMutability": "view",
      "type": "function"
    },
    {
      "inputs": [],
      "name": "totalSupply",
      "outputs": [
        {
          "internalType": "uint256",
          "name": "",
          "type": "uint256"
        }
      ],
      "stateMutability": "view",
      "type": "function"
    },
    {
      "inputs": [
        {
          "internalType": "address",
          "name": "to",
          "type": "address"
        },
        {
          "internalType": "uint256",
          "name": "amount",
          "type": "uint256"
        }
      ],
      "name": "transfer",
      "outputs": [
        {
          "internalType": "bool",
          "name": "",
          "type": "bool"
        }
      ],
      "stateMutability": "nonpayable",
      "type": "function"
    },
    {
      "inputs": [
        {
          "internalType": "address",
          "name": "from",
          "type": "address"
        },
        {
          "internalType": "address",
          "name": "to",
          "type": "address"
        },
        {
          "internalType": "uint256",
          "name": "amount",
          "type": "uint256"
        }
      ],
      "name": "transferFrom",
      "outputs": [
        {
          "internalType": "bool",
          "name": "",
          "type": "bool"
        }
      ],
      "stateMutability": "nonpayable",
      "type": "function"
    },
    {
      "inputs": [
        {
          "internalType": "address",
          "name": "newOwner",
          "type": "address"
        }
      ],
      "name": "transferOwnership",
      "outputs": [],
      "stateMutability": "nonpayable",
      "type": "function"
    },
    {
      "inputs": [
        {
          "internalType": "uint256",
          "name": "driveID_",
          "type": "uint256"
        }
      ],
      "name": "unstakeDrive",
      "outputs": [],
      "stateMutability": "nonpayable",
      "type": "function"
    }
  ],
  "transactionHash": "0xda58405df9916cca5f613afca9d81d2a8725121fad010635744e24231d85fd5c",
  "args": [
    0
  ],
  "numDeployments": 5,
  "solcInputHash": "8d205c8f883e851ae4a49d07b5c17293",
  "bytecode": "0x60806040523480156200001157600080fd5b50604051620022ee380380620022ee8339810160408190526200003491620000f9565b6040805180820182526004808252635045504560e01b6020808401829052845180860190955291845290830152906003620000708382620001b8565b5060046200007f8282620001b8565b5050506200009c62000096620000a360201b60201c565b620000a7565b5062000284565b3390565b600580546001600160a01b038381166001600160a01b0319831681179093556040519116919082907f8be0079c531659141344cd1fd0a4f28419497f9722a3daafe3b4186f6b6457e090600090a35050565b6000602082840312156200010c57600080fd5b5051919050565b634e487b7160e01b600052604160045260246000fd5b600181811c908216806200013e57607f821691505b6020821081036200015f57634e487b7160e01b600052602260045260246000fd5b50919050565b601f821115620001b357600081815260208120601f850160051c810160208610156200018e5750805b601f850160051c820191505b81811015620001af578281556001016200019a565b5050505b505050565b81516001600160401b03811115620001d457620001d462000113565b620001ec81620001e5845462000129565b8462000165565b602080601f8311600181146200022457600084156200020b5750858301515b600019600386901b1c1916600185901b178555620001af565b600085815260208120601f198616915b82811015620002555788860151825594840194600190910190840162000234565b5085821015620002745787850151600019600388901b60f8161c191681555b5050505050600190811b01905550565b61205a80620002946000396000f3fe608060405234801561001057600080fd5b50600436106101e55760003560e01c8063715018a61161010f578063a9059cbb116100a2578063dd62ed3e11610071578063dd62ed3e14610493578063de4c4569146104cc578063ea031009146102f8578063f2fde38b146104df57600080fd5b8063a9059cbb14610424578063b4799b3b14610437578063b5a4ea6414610460578063ca00cc1d1461048057600080fd5b80638da5cb5b116100de5780638da5cb5b146103d15780638e1801a5146103f657806395d89b4114610409578063a457c2d71461041157600080fd5b8063715018a61461039057806373ed717f1461039857806379cc6790146103ab5780638c16f2a7146103be57600080fd5b8063313ce5671161018757806362e965481161015657806362e965481461031e5780636a722135146103415780636a9605ac1461035457806370a082311461036757600080fd5b8063313ce567146102d657806339509351146102e557806342966c68146102f85780635ce413dd1461030b57600080fd5b80630e6d620c116101c35780630e6d620c1461024857806310d6daf8146102a657806318160ddd146102bb57806323b872dd146102c357600080fd5b806301cef5b2146101ea57806306fdde0314610210578063095ea7b314610225575b600080fd5b6101fd6101f8366004611cc4565b6104f2565b6040519081526020015b60405180910390f35b610218610530565b6040516102079190611d02565b610238610233366004611d50565b6105c2565b6040519015158152602001610207565b610281610256366004611d7c565b600c602052600090815260409020805460018201546002909201546001600160a01b03909116919083565b604080516001600160a01b039094168452602084019290925290820152606001610207565b6102b96102b4366004611d95565b6105dc565b005b6002546101fd565b6102386102d1366004611db2565b610613565b60405160128152602001610207565b6102386102f3366004611d50565b610637565b6102b9610306366004611d7c565b610676565b6102b9610319366004611df3565b610683565b61023861032c366004611d7c565b600b6020526000908152604090205460ff1681565b6102b961034f366004611d95565b6109e9565b6102b9610362366004611d50565b610a20565b6101fd610375366004611d95565b6001600160a01b031660009081526020819052604090205490565b6102b9610a88565b6102b96103a6366004611d7c565b610a9c565b6102b96103b9366004611d50565b610c07565b6101fd6103cc366004611d7c565b610c12565b6005546001600160a01b03165b6040516001600160a01b039091168152602001610207565b6102b9610404366004611d7c565b610d10565b610218610e7f565b61023861041f366004611d50565b610e8e565b610238610432366004611d50565b610f38565b6103de610445366004611d7c565b600a602052600090815260409020546001600160a01b031681565b61047361046e366004611e15565b610f46565b6040516102079190611e4a565b6102b961048e366004611d7c565b610fe9565b6101fd6104a1366004611e8e565b6001600160a01b03918216600090815260016020908152604080832093909416825291909152205490565b6102b96104da366004611d95565b6112a5565b6102b96104ed366004611d95565b6112dc565b6009602052826000526040600020602052816000526040600020818154811061051a57600080fd5b9060005260206000200160009250925050505481565b60606003805461053f90611ec7565b80601f016020809104026020016040519081016040528092919081815260200182805461056b90611ec7565b80156105b85780601f1061058d576101008083540402835291602001916105b8565b820191906000526020600020905b81548152906001019060200180831161059b57829003601f168201915b5050505050905090565b6000336105d0818585611369565b60019150505b92915050565b6105e46114c2565b6006805473ffffffffffffffffffffffffffffffffffffffff19166001600160a01b0392909216919091179055565b60003361062185828561151c565b61062c8585856115ae565b506001949350505050565b3360008181526001602090815260408083206001600160a01b03871684529091528120549091906105d09082908690610671908790611f17565b611369565b610680338261179b565b50565b6007546000838152600b60205260409020546001600160a01b039091169060ff16156106f65760405162461bcd60e51b815260206004820152601260248201527f647269766520616c72656164792066756c6c000000000000000000000000000060448201526064015b60405180910390fd5b6000838152600a60205260409020546001600160a01b031633146107825760405162461bcd60e51b815260206004820152602260248201527f796f7520617265206e6f7420746865206f776e6572206f66207468652064726960448201527f766500000000000000000000000000000000000000000000000000000000000060648201526084016106ed565b6040517f6352211e0000000000000000000000000000000000000000000000000000000081526004810183905233906001600160a01b03831690636352211e90602401602060405180830381865afa1580156107e2573d6000803e3d6000fd5b505050506040513d601f19601f820116820180604052508101906108069190611f2a565b6001600160a01b0316146108825760405162461bcd60e51b815260206004820152602160248201527f796f7520617265206e6f7420746865206f776e6572206f66207468652064697360448201527f630000000000000000000000000000000000000000000000000000000000000060648201526084016106ed565b336000818152600960209081526040808320838052825280832080546001808201835591855283852001879055878452600b8352818420805460ff19169091179055858352600c909152808220805473ffffffffffffffffffffffffffffffffffffffff191690931790925581517f5c936d270000000000000000000000000000000000000000000000000000000081526004810185905291516001600160a01b03841692635c936d2792602480830193919282900301818387803b15801561094a57600080fd5b505af115801561095e573d6000803e3d6000fd5b5050506000838152600c6020526040908190206001810186905542600290910155516323b872dd60e01b8152336004820152306024820152604481018490526001600160a01b03831691506323b872dd90606401600060405180830381600087803b1580156109cc57600080fd5b505af11580156109e0573d6000803e3d6000fd5b50505050505050565b6109f16114c2565b6007805473ffffffffffffffffffffffffffffffffffffffff19166001600160a01b0392909216919091179055565b6008546001600160a01b03163314610a7a5760405162461bcd60e51b815260206004820152601a60248201527f6f6e6c79206275726e61626c652066726f6d206d696e74696e6700000000000060448201526064016106ed565b610a84828261179b565b5050565b610a906114c2565b610a9a60006118fc565b565b6006546000828152600a60205260409020546001600160a01b0391821691163314610b095760405162461bcd60e51b815260206004820152601560248201527f796f7520617265206e6f7420746865206f776e6572000000000000000000000060448201526064016106ed565b6000828152600b602052604090205460ff1615610b685760405162461bcd60e51b815260206004820152601160248201527f656d70747920647269766520666972737400000000000000000000000000000060448201526064016106ed565b6000828152600a60205260409020805473ffffffffffffffffffffffffffffffffffffffff19169055610b9c82600161195b565b6040516323b872dd60e01b8152306004820152336024820152604481018390526001600160a01b038216906323b872dd906064015b600060405180830381600087803b158015610beb57600080fd5b505af1158015610bff573d6000803e3d6000fd5b505050505050565b610a7a82338361151c565b6007546040517f2cee6e82000000000000000000000000000000000000000000000000000000008152600481018390526000916001600160a01b03169082908290632cee6e8290602401602060405180830381865afa158015610c79573d6000803e3d6000fd5b505050506040513d601f19601f82011682018060405250810190610c9d9190611f5d565b6000858152600c602052604081206002015491925090610cbc90611a55565b9050600082600103610cdb57610cd4826101a4611f76565b9050610d07565b82600203610cef57610cd4826102b2611f76565b6002831115610d0757610d0482610378611f76565b90505b95945050505050565b6006546040517f6352211e000000000000000000000000000000000000000000000000000000008152600481018390526001600160a01b039091169033908290636352211e90602401602060405180830381865afa158015610d76573d6000803e3d6000fd5b505050506040513d601f19601f82011682018060405250810190610d9a9190611f2a565b6001600160a01b031614610df05760405162461bcd60e51b815260206004820152601560248201527f796f7520617265206e6f7420746865206f776e6572000000000000000000000060448201526064016106ed565b336000818152600960209081526040808320600180855290835281842080549182018155845282842001869055858352600a90915290819020805473ffffffffffffffffffffffffffffffffffffffff191683179055516323b872dd60e01b81526004810191909152306024820152604481018390526001600160a01b038216906323b872dd90606401610bd1565b60606004805461053f90611ec7565b3360008181526001602090815260408083206001600160a01b038716845290915281205490919083811015610f2b5760405162461bcd60e51b815260206004820152602560248201527f45524332303a2064656372656173656420616c6c6f77616e63652062656c6f7760448201527f207a65726f00000000000000000000000000000000000000000000000000000060648201526084016106ed565b61062c8286868403611369565b6000336105d08185856115ae565b6001600160a01b0382166000908152600960205260408120606091836001811115610f7357610f73611f47565b6001811115610f8457610f84611f47565b8152602001908152602001600020805480602002602001604051908101604052809291908181526020018280548015610fdc57602002820191906000526020600020905b815481526020019060010190808311610fc8575b5050505050905092915050565b6007546000828152600c60205260409020546001600160a01b039182169116331461107c5760405162461bcd60e51b815260206004820152602160248201527f796f7520617265206e6f7420746865206f776e6572206f66207468652064697360448201527f630000000000000000000000000000000000000000000000000000000000000060648201526084016106ed565b6000828152600c6020526040812060020154819060069061109c90611a55565b11156110ab57600191506110b8565b6110b58433611a77565b91505b8115611136576040517ffc818684000000000000000000000000000000000000000000000000000000008152600481018590526001600160a01b0384169063fc81868490602401600060405180830381600087803b15801561111957600080fd5b505af115801561112d573d6000803e3d6000fd5b50505050611239565b61113f84610c12565b6040517f5c936d27000000000000000000000000000000000000000000000000000000008152600481018690529091506001600160a01b03841690635c936d2790602401600060405180830381600087803b15801561119d57600080fd5b505af11580156111b1573d6000803e3d6000fd5b505050506111bf3382611b72565b6000848152600c6020526040908190205490516323b872dd60e01b81523060048201526001600160a01b03918216602482015260448101869052908416906323b872dd90606401600060405180830381600087803b15801561122057600080fd5b505af1158015611234573d6000803e3d6000fd5b505050505b6000848152600c60209081526040808320600101548352600b9091528120805460ff1916905561126a90859061195b565b60405182151581527f33895255875118fc9f494116560236344eb0297e12dd5470c9888dff58b0a6d89060200160405180910390a150505050565b6112ad6114c2565b6008805473ffffffffffffffffffffffffffffffffffffffff19166001600160a01b0392909216919091179055565b6112e46114c2565b6001600160a01b0381166113605760405162461bcd60e51b815260206004820152602660248201527f4f776e61626c653a206e6577206f776e657220697320746865207a65726f206160448201527f646472657373000000000000000000000000000000000000000000000000000060648201526084016106ed565b610680816118fc565b6001600160a01b0383166113e45760405162461bcd60e51b8152602060048201526024808201527f45524332303a20617070726f76652066726f6d20746865207a65726f2061646460448201527f726573730000000000000000000000000000000000000000000000000000000060648201526084016106ed565b6001600160a01b0382166114605760405162461bcd60e51b815260206004820152602260248201527f45524332303a20617070726f766520746f20746865207a65726f20616464726560448201527f737300000000000000000000000000000000000000000000000000000000000060648201526084016106ed565b6001600160a01b0383811660008181526001602090815260408083209487168084529482529182902085905590518481527f8c5be1e5ebec7d5bd14f71427d1e84f3dd0314c0f7b2291e5b200ac8c7c3b92591015b60405180910390a3505050565b6005546001600160a01b03163314610a9a5760405162461bcd60e51b815260206004820181905260248201527f4f776e61626c653a2063616c6c6572206973206e6f7420746865206f776e657260448201526064016106ed565b6001600160a01b0383811660009081526001602090815260408083209386168352929052205460001981146115a8578181101561159b5760405162461bcd60e51b815260206004820152601d60248201527f45524332303a20696e73756666696369656e7420616c6c6f77616e636500000060448201526064016106ed565b6115a88484848403611369565b50505050565b6001600160a01b03831661162a5760405162461bcd60e51b815260206004820152602560248201527f45524332303a207472616e736665722066726f6d20746865207a65726f20616460448201527f647265737300000000000000000000000000000000000000000000000000000060648201526084016106ed565b6001600160a01b0382166116a65760405162461bcd60e51b815260206004820152602360248201527f45524332303a207472616e7366657220746f20746865207a65726f206164647260448201527f657373000000000000000000000000000000000000000000000000000000000060648201526084016106ed565b6001600160a01b038316600090815260208190526040902054818110156117355760405162461bcd60e51b815260206004820152602660248201527f45524332303a207472616e7366657220616d6f756e742065786365656473206260448201527f616c616e6365000000000000000000000000000000000000000000000000000060648201526084016106ed565b6001600160a01b03848116600081815260208181526040808320878703905593871680835291849020805487019055925185815290927fddf252ad1be2c89b69c2b068fc378daa952ba7f163c4a11628f55a4df523b3ef910160405180910390a36115a8565b6001600160a01b0382166118175760405162461bcd60e51b815260206004820152602160248201527f45524332303a206275726e2066726f6d20746865207a65726f2061646472657360448201527f730000000000000000000000000000000000000000000000000000000000000060648201526084016106ed565b6001600160a01b038216600090815260208190526040902054818110156118a65760405162461bcd60e51b815260206004820152602260248201527f45524332303a206275726e20616d6f756e7420657863656564732062616c616e60448201527f636500000000000000000000000000000000000000000000000000000000000060648201526084016106ed565b6001600160a01b0383166000818152602081815260408083208686039055600280548790039055518581529192917fddf252ad1be2c89b69c2b068fc378daa952ba7f163c4a11628f55a4df523b3ef91016114b5565b600580546001600160a01b0383811673ffffffffffffffffffffffffffffffffffffffff19831681179093556040519116919082907f8be0079c531659141344cd1fd0a4f28419497f9722a3daafe3b4186f6b6457e090600090a35050565b3360009081526009602052604081208183600181111561197d5761197d611f47565b600181111561198e5761198e611f47565b8152602001908152602001600020905060005b81548110156115a857838282815481106119bd576119bd611f8d565b906000526020600020015403611a4357815482906119dd90600190611fa3565b815481106119ed576119ed611f8d565b9060005260206000200154828281548110611a0a57611a0a611f8d565b906000526020600020018190555081805480611a2857611a28611fb6565b600190038181906000526020600020016000905590556115a8565b80611a4d81611fcc565b9150506119a1565b60008062015180611a668442611fa3565b611a709190611ffc565b9392505050565b6007546000906001600160a01b031681611a918585611c31565b6040517f2cee6e82000000000000000000000000000000000000000000000000000000008152600481018790529091506000906001600160a01b03841690632cee6e8290602401602060405180830381865afa158015611af5573d6000803e3d6000fd5b505050506040513d601f19601f82011682018060405250810190611b199190611f5d565b905080600103611b3f57611b2e600a83612010565b600003611b3a57600193505b611b69565b80600203611b5257611b2e600483612010565b611b5d600283612010565b600003611b6957600193505b50505092915050565b6001600160a01b038216611bc85760405162461bcd60e51b815260206004820152601f60248201527f45524332303a206d696e7420746f20746865207a65726f20616464726573730060448201526064016106ed565b8060026000828254611bda9190611f17565b90915550506001600160a01b038216600081815260208181526040808320805486019055518481527fddf252ad1be2c89b69c2b068fc378daa952ba7f163c4a11628f55a4df523b3ef910160405180910390a35050565b6000611c3e600143611fa3565b60408051914060208301528101849052606083811b7fffffffffffffffffffffffffffffffffffffffff000000000000000000000000169082015260740160408051601f1981840301815291905280516020909101209392505050565b6001600160a01b038116811461068057600080fd5b803560028110611cbf57600080fd5b919050565b600080600060608486031215611cd957600080fd5b8335611ce481611c9b565b9250611cf260208501611cb0565b9150604084013590509250925092565b600060208083528351808285015260005b81811015611d2f57858101830151858201604001528201611d13565b506000604082860101526040601f19601f8301168501019250505092915050565b60008060408385031215611d6357600080fd5b8235611d6e81611c9b565b946020939093013593505050565b600060208284031215611d8e57600080fd5b5035919050565b600060208284031215611da757600080fd5b8135611a7081611c9b565b600080600060608486031215611dc757600080fd5b8335611dd281611c9b565b92506020840135611de281611c9b565b929592945050506040919091013590565b60008060408385031215611e0657600080fd5b50508035926020909101359150565b60008060408385031215611e2857600080fd5b8235611e3381611c9b565b9150611e4160208401611cb0565b90509250929050565b6020808252825182820181905260009190848201906040850190845b81811015611e8257835183529284019291840191600101611e66565b50909695505050505050565b60008060408385031215611ea157600080fd5b8235611eac81611c9b565b91506020830135611ebc81611c9b565b809150509250929050565b600181811c90821680611edb57607f821691505b602082108103611efb57634e487b7160e01b600052602260045260246000fd5b50919050565b634e487b7160e01b600052601160045260246000fd5b808201808211156105d6576105d6611f01565b600060208284031215611f3c57600080fd5b8151611a7081611c9b565b634e487b7160e01b600052602160045260246000fd5b600060208284031215611f6f57600080fd5b5051919050565b80820281158282048414176105d6576105d6611f01565b634e487b7160e01b600052603260045260246000fd5b818103818111156105d6576105d6611f01565b634e487b7160e01b600052603160045260246000fd5b60006000198203611fdf57611fdf611f01565b5060010190565b634e487b7160e01b600052601260045260246000fd5b60008261200b5761200b611fe6565b500490565b60008261201f5761201f611fe6565b50069056fea26469706673582212207593ee235f98f5cf7d8b10a86884797302b21e0d497cd5622fc8f80f922d541c64736f6c63430008120033",
  "devdoc": {
    "events": {
      "Approval(address,address,uint256)": {
        "details": "Emitted when the allowance of a `spender` for an `owner` is set by a call to {approve}. `value` is the new allowance."
      },
      "Transfer(address,address,uint256)": {
        "details": "Emitted when `value` tokens are moved from one account (`from`) to another (`to`). Note that `value` may be zero."
      }
    },
    "kind": "dev",
    "methods": {
      "allowance(address,address)": {
        "details": "See {IERC20-allowance}."
      },
      "approve(address,uint256)": {
        "details": "See {IERC20-approve}. NOTE: If `amount` is the maximum `uint256`, the allowance is not updated on `transferFrom`. This is semantically equivalent to an infinite approval. Requirements: - `spender` cannot be the zero address."
      },
      "balanceOf(address)": {
        "details": "See {IERC20-balanceOf}."
      },
      "burn(uint256)": {
        "details": "Destroys `amount` tokens from the caller. See {ERC20-_burn}."
      },
      "burnFrom(address,uint256)": {
        "details": "Destroys `amount` tokens from `account`, deducting from the caller's allowance. See {ERC20-_burn} and {ERC20-allowance}. Requirements: - the caller must have allowance for ``accounts``'s tokens of at least `amount`."
      },
      "decimals()": {
        "details": "Returns the number of decimals used to get its user representation. For example, if `decimals` equals `2`, a balance of `505` tokens should be displayed to a user as `5.05` (`505 / 10 ** 2`). Tokens usually opt for a value of 18, imitating the relationship between Ether and Wei. This is the value {ERC20} uses, unless this function is overridden; NOTE: This information is only used for _display_ purposes: it in no way affects any of the arithmetic of the contract, including {IERC20-balanceOf} and {IERC20-transfer}."
      },
      "decreaseAllowance(address,uint256)": {
        "details": "Atomically decreases the allowance granted to `spender` by the caller. This is an alternative to {approve} that can be used as a mitigation for problems described in {IERC20-approve}. Emits an {Approval} event indicating the updated allowance. Requirements: - `spender` cannot be the zero address. - `spender` must have allowance for the caller of at least `subtractedValue`."
      },
      "increaseAllowance(address,uint256)": {
        "details": "Atomically increases the allowance granted to `spender` by the caller. This is an alternative to {approve} that can be used as a mitigation for problems described in {IERC20-approve}. Emits an {Approval} event indicating the updated allowance. Requirements: - `spender` cannot be the zero address."
      },
      "name()": {
        "details": "Returns the name of the token."
      },
      "owner()": {
        "details": "Returns the address of the current owner."
      },
      "renounceOwnership()": {
        "details": "Leaves the contract without owner. It will not be possible to call `onlyOwner` functions anymore. Can only be called by the current owner. NOTE: Renouncing ownership will leave the contract without an owner, thereby removing any functionality that is only available to the owner."
      },
      "symbol()": {
        "details": "Returns the symbol of the token, usually a shorter version of the name."
      },
      "totalSupply()": {
        "details": "See {IERC20-totalSupply}."
      },
      "transfer(address,uint256)": {
        "details": "See {IERC20-transfer}. Requirements: - `to` cannot be the zero address. - the caller must have a balance of at least `amount`."
      },
      "transferFrom(address,address,uint256)": {
        "details": "See {IERC20-transferFrom}. Emits an {Approval} event indicating the updated allowance. This is not required by the EIP. See the note at the beginning of {ERC20}. NOTE: Does not update the allowance if the current allowance is the maximum `uint256`. Requirements: - `from` and `to` cannot be the zero address. - `from` must have a balance of at least `amount`. - the caller must have allowance for ``from``'s tokens of at least `amount`."
      },
      "transferOwnership(address)": {
        "details": "Transfers ownership of the contract to a new account (`newOwner`). Can only be called by the current owner."
      }
    },
    "version": 1
  },
  "userdoc": {
    "kind": "user",
    "methods": {},
    "version": 1
  },
  "storageLayout": {
    "storage": [
      {
        "astId": 128,
        "contract": "contracts/PepeStaking.sol:PepeStaking",
        "label": "_balances",
        "offset": 0,
        "slot": "0",
        "type": "t_mapping(t_address,t_uint256)"
      },
      {
        "astId": 134,
        "contract": "contracts/PepeStaking.sol:PepeStaking",
        "label": "_allowances",
        "offset": 0,
        "slot": "1",
        "type": "t_mapping(t_address,t_mapping(t_address,t_uint256))"
      },
      {
        "astId": 136,
        "contract": "contracts/PepeStaking.sol:PepeStaking",
        "label": "_totalSupply",
        "offset": 0,
        "slot": "2",
        "type": "t_uint256"
      },
      {
        "astId": 138,
        "contract": "contracts/PepeStaking.sol:PepeStaking",
        "label": "_name",
        "offset": 0,
        "slot": "3",
        "type": "t_string_storage"
      },
      {
        "astId": 140,
        "contract": "contracts/PepeStaking.sol:PepeStaking",
        "label": "_symbol",
        "offset": 0,
        "slot": "4",
        "type": "t_string_storage"
      },
      {
        "astId": 7,
        "contract": "contracts/PepeStaking.sol:PepeStaking",
        "label": "_owner",
        "offset": 0,
        "slot": "5",
        "type": "t_address"
      },
      {
        "astId": 1089,
        "contract": "contracts/PepeStaking.sol:PepeStaking",
        "label": "pepeDriveIIAddress",
        "offset": 0,
        "slot": "6",
        "type": "t_address"
      },
      {
        "astId": 1091,
        "contract": "contracts/PepeStaking.sol:PepeStaking",
        "label": "discContractAddress",
        "offset": 0,
        "slot": "7",
        "type": "t_address"
      },
      {
        "astId": 1093,
        "contract": "contracts/PepeStaking.sol:PepeStaking",
        "label": "characterAddress",
        "offset": 0,
        "slot": "8",
        "type": "t_address"
      },
      {
        "astId": 1101,
        "contract": "contracts/PepeStaking.sol:PepeStaking",
        "label": "stakedTokens",
        "offset": 0,
        "slot": "9",
        "type": "t_mapping(t_address,t_mapping(t_enum(TokenType)1087,t_array(t_uint256)dyn_storage))"
      },
      {
        "astId": 1105,
        "contract": "contracts/PepeStaking.sol:PepeStaking",
        "label": "ownerOfDrive",
        "offset": 0,
        "slot": "10",
        "type": "t_mapping(t_uint256,t_address)"
      },
      {
        "astId": 1109,
        "contract": "contracts/PepeStaking.sol:PepeStaking",
        "label": "discInDrive",
        "offset": 0,
        "slot": "11",
        "type": "t_mapping(t_uint256,t_bool)"
      },
      {
        "astId": 1114,
        "contract": "contracts/PepeStaking.sol:PepeStaking",
        "label": "disc",
        "offset": 0,
        "slot": "12",
        "type": "t_mapping(t_uint256,t_struct(DiscProperties)1079_storage)"
      }
    ],
    "types": {
      "t_address": {
        "encoding": "inplace",
        "label": "address",
        "numberOfBytes": "20"
      },
      "t_array(t_uint256)dyn_storage": {
        "base": "t_uint256",
        "encoding": "dynamic_array",
        "label": "uint256[]",
        "numberOfBytes": "32"
      },
      "t_bool": {
        "encoding": "inplace",
        "label": "bool",
        "numberOfBytes": "1"
      },
      "t_enum(TokenType)1087": {
        "encoding": "inplace",
        "label": "enum PepeStaking.TokenType",
        "numberOfBytes": "1"
      },
      "t_mapping(t_address,t_mapping(t_address,t_uint256))": {
        "encoding": "mapping",
        "key": "t_address",
        "label": "mapping(address => mapping(address => uint256))",
        "numberOfBytes": "32",
        "value": "t_mapping(t_address,t_uint256)"
      },
      "t_mapping(t_address,t_mapping(t_enum(TokenType)1087,t_array(t_uint256)dyn_storage))": {
        "encoding": "mapping",
        "key": "t_address",
        "label": "mapping(address => mapping(enum PepeStaking.TokenType => uint256[]))",
        "numberOfBytes": "32",
        "value": "t_mapping(t_enum(TokenType)1087,t_array(t_uint256)dyn_storage)"
      },
      "t_mapping(t_address,t_uint256)": {
        "encoding": "mapping",
        "key": "t_address",
        "label": "mapping(address => uint256)",
        "numberOfBytes": "32",
        "value": "t_uint256"
      },
      "t_mapping(t_enum(TokenType)1087,t_array(t_uint256)dyn_storage)": {
        "encoding": "mapping",
        "key": "t_enum(TokenType)1087",
        "label": "mapping(enum PepeStaking.TokenType => uint256[])",
        "numberOfBytes": "32",
        "value": "t_array(t_uint256)dyn_storage"
      },
      "t_mapping(t_uint256,t_address)": {
        "encoding": "mapping",
        "key": "t_uint256",
        "label": "mapping(uint256 => address)",
        "numberOfBytes": "32",
        "value": "t_address"
      },
      "t_mapping(t_uint256,t_bool)": {
        "encoding": "mapping",
        "key": "t_uint256",
        "label": "mapping(uint256 => bool)",
        "numberOfBytes": "32",
        "value": "t_bool"
      },
      "t_mapping(t_uint256,t_struct(DiscProperties)1079_storage)": {
        "encoding": "mapping",
        "key": "t_uint256",
        "label": "mapping(uint256 => struct PepeStaking.DiscProperties)",
        "numberOfBytes": "32",
        "value": "t_struct(DiscProperties)1079_storage"
      },
      "t_string_storage": {
        "encoding": "bytes",
        "label": "string",
        "numberOfBytes": "32"
      },
      "t_struct(DiscProperties)1079_storage": {
        "encoding": "inplace",
        "label": "struct PepeStaking.DiscProperties",
        "members": [
          {
            "astId": 1074,
            "contract": "contracts/PepeStaking.sol:PepeStaking",
            "label": "owner",
            "offset": 0,
            "slot": "0",
            "type": "t_address"
          },
          {
            "astId": 1076,
            "contract": "contracts/PepeStaking.sol:PepeStaking",
            "label": "inDrive",
            "offset": 0,
            "slot": "1",
            "type": "t_uint256"
          },
          {
            "astId": 1078,
            "contract": "contracts/PepeStaking.sol:PepeStaking",
            "label": "startDate",
            "offset": 0,
            "slot": "2",
            "type": "t_uint256"
          }
        ],
        "numberOfBytes": "96"
      },
      "t_uint256": {
        "encoding": "inplace",
        "label": "uint256",
        "numberOfBytes": "32"
      }
    }
  }
}