{
  "address": "0xf25F74eF704AA0a5dCa1Ecce5667FF12b9FB1Fe8",
  "abi": [
    {
      "inputs": [
        {
          "internalType": "address",
          "name": "team1_",
          "type": "address"
        },
        {
          "internalType": "address",
          "name": "team2_",
          "type": "address"
        }
      ],
      "stateMutability": "nonpayable",
      "type": "constructor"
    },
    {
      "anonymous": false,
      "inputs": [
        {
          "indexed": true,
          "internalType": "address",
          "name": "owner",
          "type": "address"
        },
        {
          "indexed": true,
          "internalType": "address",
          "name": "approved",
          "type": "address"
        },
        {
          "indexed": true,
          "internalType": "uint256",
          "name": "tokenId",
          "type": "uint256"
        }
      ],
      "name": "Approval",
      "type": "event"
    },
    {
      "anonymous": false,
      "inputs": [
        {
          "indexed": true,
          "internalType": "address",
          "name": "owner",
          "type": "address"
        },
        {
          "indexed": true,
          "internalType": "address",
          "name": "operator",
          "type": "address"
        },
        {
          "indexed": false,
          "internalType": "bool",
          "name": "approved",
          "type": "bool"
        }
      ],
      "name": "ApprovalForAll",
      "type": "event"
    },
    {
      "anonymous": false,
      "inputs": [
        {
          "indexed": false,
          "internalType": "enum PepeDisc.DiscType",
          "name": "discType",
          "type": "uint8"
        }
      ],
      "name": "DiscTypeGenerated",
      "type": "event"
    },
    {
      "anonymous": false,
      "inputs": [
        {
          "indexed": true,
          "internalType": "address",
          "name": "previousOwner",
          "type": "address"
        },
        {
          "indexed": true,
          "internalType": "address",
          "name": "newOwner",
          "type": "address"
        }
      ],
      "name": "OwnershipTransferred",
      "type": "event"
    },
    {
      "anonymous": false,
      "inputs": [
        {
          "indexed": true,
          "internalType": "address",
          "name": "from",
          "type": "address"
        },
        {
          "indexed": true,
          "internalType": "address",
          "name": "to",
          "type": "address"
        },
        {
          "indexed": true,
          "internalType": "uint256",
          "name": "tokenId",
          "type": "uint256"
        }
      ],
      "name": "Transfer",
      "type": "event"
    },
    {
      "inputs": [
        {
          "internalType": "address",
          "name": "to",
          "type": "address"
        },
        {
          "internalType": "uint256",
          "name": "tokenId",
          "type": "uint256"
        }
      ],
      "name": "approve",
      "outputs": [],
      "stateMutability": "nonpayable",
      "type": "function"
    },
    {
      "inputs": [
        {
          "internalType": "address",
          "name": "owner",
          "type": "address"
        }
      ],
      "name": "balanceOf",
      "outputs": [
        {
          "internalType": "uint256",
          "name": "",
          "type": "uint256"
        }
      ],
      "stateMutability": "view",
      "type": "function"
    },
    {
      "inputs": [
        {
          "internalType": "uint256",
          "name": "discID_",
          "type": "uint256"
        }
      ],
      "name": "burnFromContract",
      "outputs": [],
      "stateMutability": "nonpayable",
      "type": "function"
    },
    {
      "inputs": [
        {
          "internalType": "uint256",
          "name": "driveID_",
          "type": "uint256"
        }
      ],
      "name": "checkFreePerDriveID",
      "outputs": [
        {
          "internalType": "uint256",
          "name": "",
          "type": "uint256"
        }
      ],
      "stateMutability": "view",
      "type": "function"
    },
    {
      "inputs": [
        {
          "internalType": "uint256",
          "name": "",
          "type": "uint256"
        }
      ],
      "name": "discDetails",
      "outputs": [
        {
          "internalType": "enum PepeDisc.DiscType",
          "name": "tokenType",
          "type": "uint8"
        },
        {
          "internalType": "uint256",
          "name": "discLevel",
          "type": "uint256"
        }
      ],
      "stateMutability": "view",
      "type": "function"
    },
    {
      "inputs": [],
      "name": "flipSaleState",
      "outputs": [],
      "stateMutability": "nonpayable",
      "type": "function"
    },
    {
      "inputs": [],
      "name": "freeMintablePerDrive",
      "outputs": [
        {
          "internalType": "uint256",
          "name": "",
          "type": "uint256"
        }
      ],
      "stateMutability": "view",
      "type": "function"
    },
    {
      "inputs": [
        {
          "internalType": "uint256",
          "name": "",
          "type": "uint256"
        }
      ],
      "name": "freePerDriveID",
      "outputs": [
        {
          "internalType": "uint256",
          "name": "",
          "type": "uint256"
        }
      ],
      "stateMutability": "view",
      "type": "function"
    },
    {
      "inputs": [
        {
          "internalType": "uint256",
          "name": "tokenId",
          "type": "uint256"
        }
      ],
      "name": "getApproved",
      "outputs": [
        {
          "internalType": "address",
          "name": "",
          "type": "address"
        }
      ],
      "stateMutability": "view",
      "type": "function"
    },
    {
      "inputs": [
        {
          "internalType": "uint256",
          "name": "discID_",
          "type": "uint256"
        }
      ],
      "name": "increaseDiscLevel",
      "outputs": [],
      "stateMutability": "nonpayable",
      "type": "function"
    },
    {
      "inputs": [
        {
          "internalType": "address",
          "name": "owner",
          "type": "address"
        },
        {
          "internalType": "address",
          "name": "operator",
          "type": "address"
        }
      ],
      "name": "isApprovedForAll",
      "outputs": [
        {
          "internalType": "bool",
          "name": "",
          "type": "bool"
        }
      ],
      "stateMutability": "view",
      "type": "function"
    },
    {
      "inputs": [],
      "name": "listingPrice",
      "outputs": [
        {
          "internalType": "uint256",
          "name": "",
          "type": "uint256"
        }
      ],
      "stateMutability": "view",
      "type": "function"
    },
    {
      "inputs": [
        {
          "internalType": "uint256",
          "name": "amount_",
          "type": "uint256"
        },
        {
          "internalType": "uint256",
          "name": "driveID_",
          "type": "uint256"
        }
      ],
      "name": "mintFreeWithDrive",
      "outputs": [],
      "stateMutability": "nonpayable",
      "type": "function"
    },
    {
      "inputs": [
        {
          "internalType": "uint256",
          "name": "amount_",
          "type": "uint256"
        }
      ],
      "name": "mintPayed",
      "outputs": [],
      "stateMutability": "payable",
      "type": "function"
    },
    {
      "inputs": [],
      "name": "name",
      "outputs": [
        {
          "internalType": "string",
          "name": "",
          "type": "string"
        }
      ],
      "stateMutability": "view",
      "type": "function"
    },
    {
      "inputs": [],
      "name": "owner",
      "outputs": [
        {
          "internalType": "address",
          "name": "",
          "type": "address"
        }
      ],
      "stateMutability": "view",
      "type": "function"
    },
    {
      "inputs": [
        {
          "internalType": "uint256",
          "name": "tokenId",
          "type": "uint256"
        }
      ],
      "name": "ownerOf",
      "outputs": [
        {
          "internalType": "address",
          "name": "",
          "type": "address"
        }
      ],
      "stateMutability": "view",
      "type": "function"
    },
    {
      "inputs": [],
      "name": "pepeCharacterAddress",
      "outputs": [
        {
          "internalType": "address",
          "name": "",
          "type": "address"
        }
      ],
      "stateMutability": "view",
      "type": "function"
    },
    {
      "inputs": [],
      "name": "pepeDriveIIAddress",
      "outputs": [
        {
          "internalType": "address",
          "name": "",
          "type": "address"
        }
      ],
      "stateMutability": "view",
      "type": "function"
    },
    {
      "inputs": [],
      "name": "pepeStakingAddress",
      "outputs": [
        {
          "internalType": "address",
          "name": "",
          "type": "address"
        }
      ],
      "stateMutability": "view",
      "type": "function"
    },
    {
      "inputs": [],
      "name": "renounceOwnership",
      "outputs": [],
      "stateMutability": "nonpayable",
      "type": "function"
    },
    {
      "inputs": [
        {
          "internalType": "uint256",
          "name": "discID_",
          "type": "uint256"
        }
      ],
      "name": "returnDiscLevel",
      "outputs": [
        {
          "internalType": "uint256",
          "name": "",
          "type": "uint256"
        }
      ],
      "stateMutability": "view",
      "type": "function"
    },
    {
      "inputs": [
        {
          "internalType": "uint256",
          "name": "discID_",
          "type": "uint256"
        }
      ],
      "name": "returnDiscType",
      "outputs": [
        {
          "internalType": "enum PepeDisc.DiscType",
          "name": "",
          "type": "uint8"
        }
      ],
      "stateMutability": "view",
      "type": "function"
    },
    {
      "inputs": [
        {
          "internalType": "address",
          "name": "from",
          "type": "address"
        },
        {
          "internalType": "address",
          "name": "to",
          "type": "address"
        },
        {
          "internalType": "uint256",
          "name": "tokenId",
          "type": "uint256"
        }
      ],
      "name": "safeTransferFrom",
      "outputs": [],
      "stateMutability": "nonpayable",
      "type": "function"
    },
    {
      "inputs": [
        {
          "internalType": "address",
          "name": "from",
          "type": "address"
        },
        {
          "internalType": "address",
          "name": "to",
          "type": "address"
        },
        {
          "internalType": "uint256",
          "name": "tokenId",
          "type": "uint256"
        },
        {
          "internalType": "bytes",
          "name": "data",
          "type": "bytes"
        }
      ],
      "name": "safeTransferFrom",
      "outputs": [],
      "stateMutability": "nonpayable",
      "type": "function"
    },
    {
      "inputs": [],
      "name": "saleIsActive",
      "outputs": [
        {
          "internalType": "bool",
          "name": "",
          "type": "bool"
        }
      ],
      "stateMutability": "view",
      "type": "function"
    },
    {
      "inputs": [
        {
          "internalType": "address",
          "name": "operator",
          "type": "address"
        },
        {
          "internalType": "bool",
          "name": "approved",
          "type": "bool"
        }
      ],
      "name": "setApprovalForAll",
      "outputs": [],
      "stateMutability": "nonpayable",
      "type": "function"
    },
    {
      "inputs": [
        {
          "internalType": "string",
          "name": "nftBaseURI_",
          "type": "string"
        }
      ],
      "name": "setBaseURI",
      "outputs": [],
      "stateMutability": "nonpayable",
      "type": "function"
    },
    {
      "inputs": [
        {
          "internalType": "uint256",
          "name": "freeMintablePerDrive_",
          "type": "uint256"
        }
      ],
      "name": "setFreeMintablePerDrive",
      "outputs": [],
      "stateMutability": "nonpayable",
      "type": "function"
    },
    {
      "inputs": [
        {
          "internalType": "uint256",
          "name": "listingPrice_",
          "type": "uint256"
        }
      ],
      "name": "setListingPrice",
      "outputs": [],
      "stateMutability": "nonpayable",
      "type": "function"
    },
    {
      "inputs": [
        {
          "internalType": "address",
          "name": "pepeCharacterAddress_",
          "type": "address"
        }
      ],
      "name": "setPepeCharacterAddress",
      "outputs": [],
      "stateMutability": "nonpayable",
      "type": "function"
    },
    {
      "inputs": [
        {
          "internalType": "address",
          "name": "pepeDriveIIAddress_",
          "type": "address"
        }
      ],
      "name": "setPepeDriveIIAddress",
      "outputs": [],
      "stateMutability": "nonpayable",
      "type": "function"
    },
    {
      "inputs": [
        {
          "internalType": "address",
          "name": "pepeStakingAddress_",
          "type": "address"
        }
      ],
      "name": "setPepeStakingAddress",
      "outputs": [],
      "stateMutability": "nonpayable",
      "type": "function"
    },
    {
      "inputs": [
        {
          "internalType": "address[]",
          "name": "team",
          "type": "address[]"
        }
      ],
      "name": "setTeam",
      "outputs": [],
      "stateMutability": "nonpayable",
      "type": "function"
    },
    {
      "inputs": [
        {
          "internalType": "bytes4",
          "name": "interfaceId",
          "type": "bytes4"
        }
      ],
      "name": "supportsInterface",
      "outputs": [
        {
          "internalType": "bool",
          "name": "",
          "type": "bool"
        }
      ],
      "stateMutability": "view",
      "type": "function"
    },
    {
      "inputs": [],
      "name": "symbol",
      "outputs": [
        {
          "internalType": "string",
          "name": "",
          "type": "string"
        }
      ],
      "stateMutability": "view",
      "type": "function"
    },
    {
      "inputs": [],
      "name": "team1",
      "outputs": [
        {
          "internalType": "address",
          "name": "",
          "type": "address"
        }
      ],
      "stateMutability": "view",
      "type": "function"
    },
    {
      "inputs": [],
      "name": "team2",
      "outputs": [
        {
          "internalType": "address",
          "name": "",
          "type": "address"
        }
      ],
      "stateMutability": "view",
      "type": "function"
    },
    {
      "inputs": [
        {
          "internalType": "uint256",
          "name": "index",
          "type": "uint256"
        }
      ],
      "name": "tokenByIndex",
      "outputs": [
        {
          "internalType": "uint256",
          "name": "",
          "type": "uint256"
        }
      ],
      "stateMutability": "view",
      "type": "function"
    },
    {
      "inputs": [
        {
          "internalType": "address",
          "name": "owner",
          "type": "address"
        },
        {
          "internalType": "uint256",
          "name": "index",
          "type": "uint256"
        }
      ],
      "name": "tokenOfOwnerByIndex",
      "outputs": [
        {
          "internalType": "uint256",
          "name": "",
          "type": "uint256"
        }
      ],
      "stateMutability": "view",
      "type": "function"
    },
    {
      "inputs": [
        {
          "internalType": "uint256",
          "name": "tokenId",
          "type": "uint256"
        }
      ],
      "name": "tokenURI",
      "outputs": [
        {
          "internalType": "string",
          "name": "",
          "type": "string"
        }
      ],
      "stateMutability": "view",
      "type": "function"
    },
    {
      "inputs": [
        {
          "internalType": "address",
          "name": "_owner",
          "type": "address"
        }
      ],
      "name": "tokensOfOwner",
      "outputs": [
        {
          "internalType": "uint256[]",
          "name": "",
          "type": "uint256[]"
        }
      ],
      "stateMutability": "view",
      "type": "function"
    },
    {
      "inputs": [],
      "name": "totalSupply",
      "outputs": [
        {
          "internalType": "uint256",
          "name": "",
          "type": "uint256"
        }
      ],
      "stateMutability": "view",
      "type": "function"
    },
    {
      "inputs": [
        {
          "internalType": "address",
          "name": "from",
          "type": "address"
        },
        {
          "internalType": "address",
          "name": "to",
          "type": "address"
        },
        {
          "internalType": "uint256",
          "name": "tokenId",
          "type": "uint256"
        }
      ],
      "name": "transferFrom",
      "outputs": [],
      "stateMutability": "nonpayable",
      "type": "function"
    },
    {
      "inputs": [
        {
          "internalType": "address",
          "name": "newOwner",
          "type": "address"
        }
      ],
      "name": "transferOwnership",
      "outputs": [],
      "stateMutability": "nonpayable",
      "type": "function"
    },
    {
      "inputs": [],
      "name": "withdraw",
      "outputs": [],
      "stateMutability": "nonpayable",
      "type": "function"
    }
  ],
  "transactionHash": "0xaddd95b148d0126ae515c09a45f0b77e106296661c589908a710f2504d1ce5fa",
  "args": [
    "0xE09eA9cBc76b0105dd32312D4a2E37B4d4c7a43c",
    "0xc9b4E422Bc97DC073c917E2d01b9B3D3F269f467"
  ],
  "numDeployments": 4,
  "solcInputHash": "34806e2f0ac1c8f95153c0ea47c0abf4",
  "bytecode": "0x6080604052600a805460ff60a01b191690556618838370f34000600b556003600c553480156200002e57600080fd5b50604051620032e5380380620032e583398101604081905262000051916200016f565b60405180604001604052806008815260200167506570654469736360c01b81525060405180604001604052806002815260200161141160f21b81525081600090816200009e91906200024c565b506001620000ad82826200024c565b505050620000ca620000c4620000fc60201b60201c565b62000100565b601180546001600160a01b039384166001600160a01b0319918216179091556012805492909316911617905562000318565b3390565b600a80546001600160a01b038381166001600160a01b0319831681179093556040519116919082907f8be0079c531659141344cd1fd0a4f28419497f9722a3daafe3b4186f6b6457e090600090a35050565b80516001600160a01b03811681146200016a57600080fd5b919050565b600080604083850312156200018357600080fd5b6200018e8362000152565b91506200019e6020840162000152565b90509250929050565b634e487b7160e01b600052604160045260246000fd5b600181811c90821680620001d257607f821691505b602082108103620001f357634e487b7160e01b600052602260045260246000fd5b50919050565b601f8211156200024757600081815260208120601f850160051c81016020861015620002225750805b601f850160051c820191505b8181101562000243578281556001016200022e565b5050505b505050565b81516001600160401b03811115620002685762000268620001a7565b6200028081620002798454620001bd565b84620001f9565b602080601f831160018114620002b857600084156200029f5750858301515b600019600386901b1c1916600185901b17855562000243565b600085815260208120601f198616915b82811015620002e957888601518255948401946001909101908401620002c8565b5085821015620003085787850151600019600388901b60f8161c191681555b5050505050600190811b01905550565b612fbd80620003286000396000f3fe6080604052600436106102fd5760003560e01c80636352211e1161018f578063b5af6663116100e1578063e612c0ad1161008a578063eb8d244411610064578063eb8d2444146108b2578063f2fde38b146108d3578063fc818684146108f357600080fd5b8063e612c0ad14610852578063e985e9c514610872578063ea9ad1851461089257600080fd5b8063c87b56dd116100bb578063c87b56dd146107f2578063e376bdfa14610812578063e5e7d74f1461083257600080fd5b8063b5af6663146107a6578063b88d4fde146107bc578063c78f19f9146107dc57600080fd5b80638462151c1161014357806395d89b411161011d57806395d89b4114610744578063a22cb46514610759578063b50368291461077957600080fd5b80638462151c146106d95780638c8d2ede146107065780638da5cb5b1461072657600080fd5b806370a082311161017457806370a0823114610684578063715018a6146106a45780637c726b69146106b957600080fd5b80636352211e1461061c5780636f577be11461063c57600080fd5b80632d17725911610253578063482ec043116101fc57806355f804b3116101d657806355f804b3146105bc5780635695440f146105dc5780635c936d27146105fc57600080fd5b8063482ec043146105695780634e60aa921461057c5780634f6ccce71461059c57600080fd5b80633b749b871161022d5780633b749b87146105145780633ccfd60b1461053457806342842e0e1461054957600080fd5b80632d177259146104bf5780632f745c59146104df57806334918dfd146104ff57600080fd5b806310d6daf8116102b557806323b872dd1161028f57806323b872dd1461044f5780632a49fde41461046f5780632cee6e821461048f57600080fd5b806310d6daf8146103f057806317f777751461041057806318160ddd1461043057600080fd5b8063081812fc116102e6578063081812fc14610359578063095ea7b3146103915780630fd15ed1146103b357600080fd5b806301ffc9a71461030257806306fdde0314610337575b600080fd5b34801561030e57600080fd5b5061032261031d36600461288d565b610913565b60405190151581526020015b60405180910390f35b34801561034357600080fd5b5061034c61096f565b60405161032e91906128fa565b34801561036557600080fd5b5061037961037436600461290d565b610a01565b6040516001600160a01b03909116815260200161032e565b34801561039d57600080fd5b506103b16103ac36600461293b565b610a28565b005b3480156103bf57600080fd5b506103e36103ce36600461290d565b60009081526014602052604090205460ff1690565b60405161032e919061299f565b3480156103fc57600080fd5b506103b161040b3660046129ad565b610b5e565b34801561041c57600080fd5b50600f54610379906001600160a01b031681565b34801561043c57600080fd5b506008545b60405190815260200161032e565b34801561045b57600080fd5b506103b161046a3660046129ca565b610b88565b34801561047b57600080fd5b506103b161048a366004612a0b565b610c0f565b34801561049b57600080fd5b506104416104aa36600461290d565b60009081526014602052604090206001015490565b3480156104cb57600080fd5b50600e54610379906001600160a01b031681565b3480156104eb57600080fd5b506104416104fa36600461293b565b610e54565b34801561050b57600080fd5b506103b1610efc565b34801561052057600080fd5b506103b161052f366004612a2d565b610f40565b34801561054057600080fd5b506103b161102c565b34801561055557600080fd5b506103b16105643660046129ca565b611115565b6103b161057736600461290d565b611130565b34801561058857600080fd5b506103b16105973660046129ad565b61125f565b3480156105a857600080fd5b506104416105b736600461290d565b611289565b3480156105c857600080fd5b506103b16105d7366004612aa2565b61132d565b3480156105e857600080fd5b50601054610379906001600160a01b031681565b34801561060857600080fd5b506103b161061736600461290d565b611342565b34801561062857600080fd5b5061037961063736600461290d565b6113cb565b34801561064857600080fd5b5061067661065736600461290d565b6014602052600090815260409020805460019091015460ff9091169082565b60405161032e929190612b02565b34801561069057600080fd5b5061044161069f3660046129ad565b611430565b3480156106b057600080fd5b506103b16114ca565b3480156106c557600080fd5b506103b16106d436600461290d565b6114de565b3480156106e557600080fd5b506106f96106f43660046129ad565b6114eb565b60405161032e9190612b1d565b34801561071257600080fd5b50601154610379906001600160a01b031681565b34801561073257600080fd5b50600a546001600160a01b0316610379565b34801561075057600080fd5b5061034c61158d565b34801561076557600080fd5b506103b1610774366004612b61565b61159c565b34801561078557600080fd5b5061044161079436600461290d565b60136020526000908152604090205481565b3480156107b257600080fd5b50610441600c5481565b3480156107c857600080fd5b506103b16107d7366004612bb5565b6115ab565b3480156107e857600080fd5b50610441600b5481565b3480156107fe57600080fd5b5061034c61080d36600461290d565b611639565b34801561081e57600080fd5b506103b161082d3660046129ad565b6116a0565b34801561083e57600080fd5b5061044161084d36600461290d565b6116ca565b34801561085e57600080fd5b50601254610379906001600160a01b031681565b34801561087e57600080fd5b5061032261088d366004612c95565b6116e4565b34801561089e57600080fd5b506103b16108ad36600461290d565b611733565b3480156108be57600080fd5b50600a5461032290600160a01b900460ff1681565b3480156108df57600080fd5b506103b16108ee3660046129ad565b611740565b3480156108ff57600080fd5b506103b161090e36600461290d565b6117d0565b60007fffffffff0000000000000000000000000000000000000000000000000000000082167f780e9d63000000000000000000000000000000000000000000000000000000001480610969575061096982611848565b92915050565b60606000805461097e90612cc3565b80601f01602080910402602001604051908101604052809291908181526020018280546109aa90612cc3565b80156109f75780601f106109cc576101008083540402835291602001916109f7565b820191906000526020600020905b8154815290600101906020018083116109da57829003601f168201915b5050505050905090565b6000610a0c8261192b565b506000908152600460205260409020546001600160a01b031690565b6000610a33826113cb565b9050806001600160a01b0316836001600160a01b031603610ac15760405162461bcd60e51b815260206004820152602160248201527f4552433732313a20617070726f76616c20746f2063757272656e74206f776e6560448201527f720000000000000000000000000000000000000000000000000000000000000060648201526084015b60405180910390fd5b336001600160a01b0382161480610add5750610add81336116e4565b610b4f5760405162461bcd60e51b815260206004820152603d60248201527f4552433732313a20617070726f76652063616c6c6572206973206e6f7420746f60448201527f6b656e206f776e6572206f7220617070726f76656420666f7220616c6c0000006064820152608401610ab8565b610b59838361198f565b505050565b610b666119fd565b600f80546001600160a01b0319166001600160a01b0392909216919091179055565b610b923382611a57565b610c045760405162461bcd60e51b815260206004820152602d60248201527f4552433732313a2063616c6c6572206973206e6f7420746f6b656e206f776e6560448201527f72206f7220617070726f766564000000000000000000000000000000000000006064820152608401610ab8565b610b59838383611ab6565b600f54600a546001600160a01b0390911690600160a01b900460ff16610c775760405162461bcd60e51b815260206004820152601060248201527f73616c65206973206e6f74206f70656e000000000000000000000000000000006044820152606401610ab8565b600082815260136020526040902054600390610c939085612d13565b1115610ce15760405162461bcd60e51b815260206004820152601560248201527f64726976652063616e2774206d696e74206d6f726500000000000000000000006044820152606401610ab8565b6040517f6352211e0000000000000000000000000000000000000000000000000000000081526004810183905233906001600160a01b03831690636352211e90602401602060405180830381865afa158015610d41573d6000803e3d6000fd5b505050506040513d601f19601f82011682018060405250810190610d659190612d26565b6001600160a01b031614610dbb5760405162461bcd60e51b815260206004820152601b60248201527f796f75206861766520746f206f776e20746861742064726976652100000000006044820152606401610ab8565b60008281526013602052604081208054859290610dd9908490612d13565b909155505060085460005b84811015610e4d57610df68233611cec565b6000838152601460205260409020805460ff19166001836002811115610e1e57610e1e612967565b0217905550610e2d3383611d76565b81610e3781612d43565b9250508080610e4590612d43565b915050610de4565b5050505050565b6000610e5f83611430565b8210610ed35760405162461bcd60e51b815260206004820152602b60248201527f455243373231456e756d657261626c653a206f776e657220696e646578206f7560448201527f74206f6620626f756e64730000000000000000000000000000000000000000006064820152608401610ab8565b506001600160a01b03919091166000908152600660209081526040808320938352929052205490565b610f046119fd565b600a80547fffffffffffffffffffffff00ffffffffffffffffffffffffffffffffffffffff8116600160a01b9182900460ff1615909102179055565b610f486119fd565b60028114610f985760405162461bcd60e51b815260206004820152601560248201527f4e6565642074776f207465616d206d656d6265727300000000000000000000006044820152606401610ab8565b81816000818110610fab57610fab612d5d565b9050602002016020810190610fc091906129ad565b601180546001600160a01b0319166001600160a01b039290921691909117905581816001818110610ff357610ff3612d5d565b905060200201602081019061100891906129ad565b601280546001600160a01b0319166001600160a01b03929092169190911790555050565b6110346119fd565b4760006064611044836032612d73565b61104e9190612da0565b6011546040519192506000916001600160a01b039091169083908381818185875af1925050503d80600081146110a0576040519150601f19603f3d011682016040523d82523d6000602084013e6110a5565b606091505b50509050806110b357600080fd5b6012546040516001600160a01b03909116908390600081818185875af1925050503d8060008114611100576040519150601f19603f3d011682016040523d82523d6000602084013e611105565b606091505b50508091505080610b5957600080fd5b610b59838383604051806020016040528060008152506115ab565b600a54600160a01b900460ff166111895760405162461bcd60e51b815260206004820152601060248201527f53616c65206973206e6f74206f70656e000000000000000000000000000000006044820152606401610ab8565b80600b546111979190612d73565b3410156111e65760405162461bcd60e51b815260206004820152601a60248201527f4e6f7420656e6f7567682066756e6473207375626d69747465640000000000006044820152606401610ab8565b60006111f160085490565b905060005b82811015610b59576112088233611cec565b6000838152601460205260409020805460ff1916600183600281111561123057611230612967565b021790555061123f3383611d76565b8161124981612d43565b925050808061125790612d43565b9150506111f6565b6112676119fd565b601080546001600160a01b0319166001600160a01b0392909216919091179055565b600061129460085490565b82106113085760405162461bcd60e51b815260206004820152602c60248201527f455243373231456e756d657261626c653a20676c6f62616c20696e646578206f60448201527f7574206f6620626f756e647300000000000000000000000000000000000000006064820152608401610ab8565b6008828154811061131b5761131b612d5d565b90600052602060002001549050919050565b6113356119fd565b600d610b59828483612e02565b600e546001600160a01b0316331461139c5760405162461bcd60e51b815260206004820152601e60248201527f6f6e6c79207374616b65722063616e20696e637265617365206c6576656c00006044820152606401610ab8565b60016014600083815260200190815260200160002060010160008282546113c39190612d13565b909155505050565b6000818152600260205260408120546001600160a01b0316806109695760405162461bcd60e51b815260206004820152601860248201527f4552433732313a20696e76616c696420746f6b656e20494400000000000000006044820152606401610ab8565b60006001600160a01b0382166114ae5760405162461bcd60e51b815260206004820152602960248201527f4552433732313a2061646472657373207a65726f206973206e6f74206120766160448201527f6c6964206f776e657200000000000000000000000000000000000000000000006064820152608401610ab8565b506001600160a01b031660009081526003602052604090205490565b6114d26119fd565b6114dc6000611d90565b565b6114e66119fd565b600b55565b606060006114f883611430565b905060008167ffffffffffffffff81111561151557611515612b9f565b60405190808252806020026020018201604052801561153e578160200160208202803683370190505b50905060005b82811015611585576115568582610e54565b82828151811061156857611568612d5d565b60209081029190910101528061157d81612d43565b915050611544565b509392505050565b60606001805461097e90612cc3565b6115a7338383611de2565b5050565b6115b53383611a57565b6116275760405162461bcd60e51b815260206004820152602d60248201527f4552433732313a2063616c6c6572206973206e6f7420746f6b656e206f776e6560448201527f72206f7220617070726f766564000000000000000000000000000000000000006064820152608401610ab8565b61163384848484611eb0565b50505050565b60606116448261192b565b600061164e611f39565b9050600081511161166e5760405180602001604052806000815250611699565b8061167884611f48565b604051602001611689929190612ec2565b6040516020818303038152906040525b9392505050565b6116a86119fd565b600e80546001600160a01b0319166001600160a01b0392909216919091179055565b600081815260136020526040812054610969906003612ef1565b600e546000906001600160a01b039081169083160361170557506001610969565b6001600160a01b0380841660009081526005602090815260408083209386168352929052205460ff16611699565b61173b6119fd565b600c55565b6117486119fd565b6001600160a01b0381166117c45760405162461bcd60e51b815260206004820152602660248201527f4f776e61626c653a206e6577206f776e657220697320746865207a65726f206160448201527f64647265737300000000000000000000000000000000000000000000000000006064820152608401610ab8565b6117cd81611d90565b50565b600e546001600160a01b03163314806117f357506010546001600160a01b031633145b61183f5760405162461bcd60e51b815260206004820152601760248201527f6f6e6c79206275726e61626c652066726f6d2067616d650000000000000000006044820152606401610ab8565b6117cd81611fe8565b60007fffffffff0000000000000000000000000000000000000000000000000000000082167f80ac58cd0000000000000000000000000000000000000000000000000000000014806118db57507fffffffff0000000000000000000000000000000000000000000000000000000082167f5b5e139f00000000000000000000000000000000000000000000000000000000145b8061096957507f01ffc9a7000000000000000000000000000000000000000000000000000000007fffffffff00000000000000000000000000000000000000000000000000000000831614610969565b6000818152600260205260409020546001600160a01b03166117cd5760405162461bcd60e51b815260206004820152601860248201527f4552433732313a20696e76616c696420746f6b656e20494400000000000000006044820152606401610ab8565b600081815260046020526040902080546001600160a01b0319166001600160a01b03841690811790915581906119c4826113cb565b6001600160a01b03167f8c5be1e5ebec7d5bd14f71427d1e84f3dd0314c0f7b2291e5b200ac8c7c3b92560405160405180910390a45050565b600a546001600160a01b031633146114dc5760405162461bcd60e51b815260206004820181905260248201527f4f776e61626c653a2063616c6c6572206973206e6f7420746865206f776e65726044820152606401610ab8565b600080611a63836113cb565b9050806001600160a01b0316846001600160a01b03161480611a8a5750611a8a81856116e4565b80611aae5750836001600160a01b0316611aa384610a01565b6001600160a01b0316145b949350505050565b826001600160a01b0316611ac9826113cb565b6001600160a01b031614611b455760405162461bcd60e51b815260206004820152602560248201527f4552433732313a207472616e736665722066726f6d20696e636f72726563742060448201527f6f776e65720000000000000000000000000000000000000000000000000000006064820152608401610ab8565b6001600160a01b038216611bc05760405162461bcd60e51b8152602060048201526024808201527f4552433732313a207472616e7366657220746f20746865207a65726f2061646460448201527f72657373000000000000000000000000000000000000000000000000000000006064820152608401610ab8565b611bcd838383600161208b565b826001600160a01b0316611be0826113cb565b6001600160a01b031614611c5c5760405162461bcd60e51b815260206004820152602560248201527f4552433732313a207472616e736665722066726f6d20696e636f72726563742060448201527f6f776e65720000000000000000000000000000000000000000000000000000006064820152608401610ab8565b600081815260046020908152604080832080546001600160a01b03199081169091556001600160a01b0387811680865260038552838620805460001901905590871680865283862080546001019055868652600290945282852080549092168417909155905184937fddf252ad1be2c89b69c2b068fc378daa952ba7f163c4a11628f55a4df523b3ef91a4505050565b600080611cf984846121c0565b90506000605a611d0a606484612f04565b1015611d1857506000611d37565b6063611d25606484612f04565b1015611d3357506001611d37565b5060025b7f55bf614aad0d1f06588eac830feeb4b3ffcaeeb210f5a50839f6bc85c7fd2d1781604051611d66919061299f565b60405180910390a1949350505050565b6115a782826040518060200160405280600081525061222a565b600a80546001600160a01b038381166001600160a01b0319831681179093556040519116919082907f8be0079c531659141344cd1fd0a4f28419497f9722a3daafe3b4186f6b6457e090600090a35050565b816001600160a01b0316836001600160a01b031603611e435760405162461bcd60e51b815260206004820152601960248201527f4552433732313a20617070726f766520746f2063616c6c6572000000000000006044820152606401610ab8565b6001600160a01b03838116600081815260056020908152604080832094871680845294825291829020805460ff191686151590811790915591519182527f17307eab39ab6107e8899845ad3d59bd9653f200f220920489ca2b5937696c31910160405180910390a3505050565b611ebb848484611ab6565b611ec7848484846122b3565b6116335760405162461bcd60e51b815260206004820152603260248201527f4552433732313a207472616e7366657220746f206e6f6e20455243373231526560448201527f63656976657220696d706c656d656e74657200000000000000000000000000006064820152608401610ab8565b6060600d805461097e90612cc3565b60606000611f5583612454565b600101905060008167ffffffffffffffff811115611f7557611f75612b9f565b6040519080825280601f01601f191660200182016040528015611f9f576020820181803683370190505b5090508181016020015b600019017f3031323334353637383961626364656600000000000000000000000000000000600a86061a8153600a8504945084611fa957509392505050565b6000611ff3826113cb565b905061200381600084600161208b565b61200c826113cb565b600083815260046020908152604080832080546001600160a01b03199081169091556001600160a01b0385168085526003845282852080546000190190558785526002909352818420805490911690555192935084927fddf252ad1be2c89b69c2b068fc378daa952ba7f163c4a11628f55a4df523b3ef908390a45050565b60018111156121025760405162461bcd60e51b815260206004820152603560248201527f455243373231456e756d657261626c653a20636f6e736563757469766520747260448201527f616e7366657273206e6f7420737570706f7274656400000000000000000000006064820152608401610ab8565b816001600160a01b03851661215e5761215981600880546000838152600960205260408120829055600182018355919091527ff3f7a9fe364faab93b216da50a3214154f22a0a2b415b23a84c8169e8b636ee30155565b612181565b836001600160a01b0316856001600160a01b031614612181576121818582612536565b6001600160a01b03841661219d57612198816125d3565b610e4d565b846001600160a01b0316846001600160a01b031614610e4d57610e4d8482612682565b60006121cd600143612ef1565b60408051914060208301528101849052606083811b7fffffffffffffffffffffffffffffffffffffffff000000000000000000000000169082015260740160408051601f1981840301815291905280516020909101209392505050565b61223483836126c6565b61224160008484846122b3565b610b595760405162461bcd60e51b815260206004820152603260248201527f4552433732313a207472616e7366657220746f206e6f6e20455243373231526560448201527f63656976657220696d706c656d656e74657200000000000000000000000000006064820152608401610ab8565b60006001600160a01b0384163b15612449576040517f150b7a020000000000000000000000000000000000000000000000000000000081526001600160a01b0385169063150b7a0290612310903390899088908890600401612f18565b6020604051808303816000875af192505050801561234b575060408051601f3d908101601f1916820190925261234891810190612f54565b60015b6123fe573d808015612379576040519150601f19603f3d011682016040523d82523d6000602084013e61237e565b606091505b5080516000036123f65760405162461bcd60e51b815260206004820152603260248201527f4552433732313a207472616e7366657220746f206e6f6e20455243373231526560448201527f63656976657220696d706c656d656e74657200000000000000000000000000006064820152608401610ab8565b805181602001fd5b7fffffffff00000000000000000000000000000000000000000000000000000000167f150b7a0200000000000000000000000000000000000000000000000000000000149050611aae565b506001949350505050565b6000807a184f03e93ff9f4daa797ed6e38ed64bf6a1f010000000000000000831061249d577a184f03e93ff9f4daa797ed6e38ed64bf6a1f010000000000000000830492506040015b6d04ee2d6d415b85acef810000000083106124c9576d04ee2d6d415b85acef8100000000830492506020015b662386f26fc1000083106124e757662386f26fc10000830492506010015b6305f5e10083106124ff576305f5e100830492506008015b612710831061251357612710830492506004015b60648310612525576064830492506002015b600a83106109695760010192915050565b6000600161254384611430565b61254d9190612ef1565b6000838152600760205260409020549091508082146125a0576001600160a01b03841660009081526006602090815260408083208584528252808320548484528184208190558352600790915290208190555b5060009182526007602090815260408084208490556001600160a01b039094168352600681528383209183525290812055565b6008546000906125e590600190612ef1565b6000838152600960205260408120546008805493945090928490811061260d5761260d612d5d565b90600052602060002001549050806008838154811061262e5761262e612d5d565b600091825260208083209091019290925582815260099091526040808220849055858252812055600880548061266657612666612f71565b6001900381819060005260206000200160009055905550505050565b600061268d83611430565b6001600160a01b039093166000908152600660209081526040808320868452825280832085905593825260079052919091209190915550565b6001600160a01b03821661271c5760405162461bcd60e51b815260206004820181905260248201527f4552433732313a206d696e7420746f20746865207a65726f20616464726573736044820152606401610ab8565b6000818152600260205260409020546001600160a01b0316156127815760405162461bcd60e51b815260206004820152601c60248201527f4552433732313a20746f6b656e20616c7265616479206d696e746564000000006044820152606401610ab8565b61278f60008383600161208b565b6000818152600260205260409020546001600160a01b0316156127f45760405162461bcd60e51b815260206004820152601c60248201527f4552433732313a20746f6b656e20616c7265616479206d696e746564000000006044820152606401610ab8565b6001600160a01b038216600081815260036020908152604080832080546001019055848352600290915280822080546001600160a01b0319168417905551839291907fddf252ad1be2c89b69c2b068fc378daa952ba7f163c4a11628f55a4df523b3ef908290a45050565b7fffffffff00000000000000000000000000000000000000000000000000000000811681146117cd57600080fd5b60006020828403121561289f57600080fd5b81356116998161285f565b60005b838110156128c55781810151838201526020016128ad565b50506000910152565b600081518084526128e68160208601602086016128aa565b601f01601f19169290920160200192915050565b60208152600061169960208301846128ce565b60006020828403121561291f57600080fd5b5035919050565b6001600160a01b03811681146117cd57600080fd5b6000806040838503121561294e57600080fd5b823561295981612926565b946020939093013593505050565b634e487b7160e01b600052602160045260246000fd5b6003811061299b57634e487b7160e01b600052602160045260246000fd5b9052565b60208101610969828461297d565b6000602082840312156129bf57600080fd5b813561169981612926565b6000806000606084860312156129df57600080fd5b83356129ea81612926565b925060208401356129fa81612926565b929592945050506040919091013590565b60008060408385031215612a1e57600080fd5b50508035926020909101359150565b60008060208385031215612a4057600080fd5b823567ffffffffffffffff80821115612a5857600080fd5b818501915085601f830112612a6c57600080fd5b813581811115612a7b57600080fd5b8660208260051b8501011115612a9057600080fd5b60209290920196919550909350505050565b60008060208385031215612ab557600080fd5b823567ffffffffffffffff80821115612acd57600080fd5b818501915085601f830112612ae157600080fd5b813581811115612af057600080fd5b866020828501011115612a9057600080fd5b60408101612b10828561297d565b8260208301529392505050565b6020808252825182820181905260009190848201906040850190845b81811015612b5557835183529284019291840191600101612b39565b50909695505050505050565b60008060408385031215612b7457600080fd5b8235612b7f81612926565b915060208301358015158114612b9457600080fd5b809150509250929050565b634e487b7160e01b600052604160045260246000fd5b60008060008060808587031215612bcb57600080fd5b8435612bd681612926565b93506020850135612be681612926565b925060408501359150606085013567ffffffffffffffff80821115612c0a57600080fd5b818701915087601f830112612c1e57600080fd5b813581811115612c3057612c30612b9f565b604051601f8201601f19908116603f01168101908382118183101715612c5857612c58612b9f565b816040528281528a6020848701011115612c7157600080fd5b82602086016020830137600060208483010152809550505050505092959194509250565b60008060408385031215612ca857600080fd5b8235612cb381612926565b91506020830135612b9481612926565b600181811c90821680612cd757607f821691505b602082108103612cf757634e487b7160e01b600052602260045260246000fd5b50919050565b634e487b7160e01b600052601160045260246000fd5b8082018082111561096957610969612cfd565b600060208284031215612d3857600080fd5b815161169981612926565b60006000198203612d5657612d56612cfd565b5060010190565b634e487b7160e01b600052603260045260246000fd5b808202811582820484141761096957610969612cfd565b634e487b7160e01b600052601260045260246000fd5b600082612daf57612daf612d8a565b500490565b601f821115610b5957600081815260208120601f850160051c81016020861015612ddb5750805b601f850160051c820191505b81811015612dfa57828155600101612de7565b505050505050565b67ffffffffffffffff831115612e1a57612e1a612b9f565b612e2e83612e288354612cc3565b83612db4565b6000601f841160018114612e625760008515612e4a5750838201355b600019600387901b1c1916600186901b178355610e4d565b600083815260209020601f19861690835b82811015612e935786850135825560209485019460019092019101612e73565b5086821015612eb05760001960f88860031b161c19848701351681555b505060018560011b0183555050505050565b60008351612ed48184602088016128aa565b835190830190612ee88183602088016128aa565b01949350505050565b8181038181111561096957610969612cfd565b600082612f1357612f13612d8a565b500690565b60006001600160a01b03808716835280861660208401525083604083015260806060830152612f4a60808301846128ce565b9695505050505050565b600060208284031215612f6657600080fd5b81516116998161285f565b634e487b7160e01b600052603160045260246000fdfea26469706673582212207539c4aa7a3208d3691578d694fa63a0cd28f0b717dfe9118498d8364f29e95864736f6c63430008120033",
  "devdoc": {
    "events": {
      "Approval(address,address,uint256)": {
        "details": "Emitted when `owner` enables `approved` to manage the `tokenId` token."
      },
      "ApprovalForAll(address,address,bool)": {
        "details": "Emitted when `owner` enables or disables (`approved`) `operator` to manage all of its assets."
      },
      "Transfer(address,address,uint256)": {
        "details": "Emitted when `tokenId` token is transferred from `from` to `to`."
      }
    },
    "kind": "dev",
    "methods": {
      "approve(address,uint256)": {
        "details": "See {IERC721-approve}."
      },
      "balanceOf(address)": {
        "details": "See {IERC721-balanceOf}."
      },
      "getApproved(uint256)": {
        "details": "See {IERC721-getApproved}."
      },
      "name()": {
        "details": "See {IERC721Metadata-name}."
      },
      "owner()": {
        "details": "Returns the address of the current owner."
      },
      "ownerOf(uint256)": {
        "details": "See {IERC721-ownerOf}."
      },
      "renounceOwnership()": {
        "details": "Leaves the contract without owner. It will not be possible to call `onlyOwner` functions anymore. Can only be called by the current owner. NOTE: Renouncing ownership will leave the contract without an owner, thereby removing any functionality that is only available to the owner."
      },
      "safeTransferFrom(address,address,uint256)": {
        "details": "See {IERC721-safeTransferFrom}."
      },
      "safeTransferFrom(address,address,uint256,bytes)": {
        "details": "See {IERC721-safeTransferFrom}."
      },
      "setApprovalForAll(address,bool)": {
        "details": "See {IERC721-setApprovalForAll}."
      },
      "supportsInterface(bytes4)": {
        "details": "See {IERC165-supportsInterface}."
      },
      "symbol()": {
        "details": "See {IERC721Metadata-symbol}."
      },
      "tokenByIndex(uint256)": {
        "details": "See {IERC721Enumerable-tokenByIndex}."
      },
      "tokenOfOwnerByIndex(address,uint256)": {
        "details": "See {IERC721Enumerable-tokenOfOwnerByIndex}."
      },
      "tokenURI(uint256)": {
        "details": "See {IERC721Metadata-tokenURI}."
      },
      "totalSupply()": {
        "details": "See {IERC721Enumerable-totalSupply}."
      },
      "transferFrom(address,address,uint256)": {
        "details": "See {IERC721-transferFrom}."
      },
      "transferOwnership(address)": {
        "details": "Transfers ownership of the contract to a new account (`newOwner`). Can only be called by the current owner."
      }
    },
    "version": 1
  },
  "userdoc": {
    "kind": "user",
    "methods": {},
    "version": 1
  },
  "storageLayout": {
    "storage": [
      {
        "astId": 872,
        "contract": "contracts/PepeDisc.sol:PepeDisc",
        "label": "_name",
        "offset": 0,
        "slot": "0",
        "type": "t_string_storage"
      },
      {
        "astId": 874,
        "contract": "contracts/PepeDisc.sol:PepeDisc",
        "label": "_symbol",
        "offset": 0,
        "slot": "1",
        "type": "t_string_storage"
      },
      {
        "astId": 878,
        "contract": "contracts/PepeDisc.sol:PepeDisc",
        "label": "_owners",
        "offset": 0,
        "slot": "2",
        "type": "t_mapping(t_uint256,t_address)"
      },
      {
        "astId": 882,
        "contract": "contracts/PepeDisc.sol:PepeDisc",
        "label": "_balances",
        "offset": 0,
        "slot": "3",
        "type": "t_mapping(t_address,t_uint256)"
      },
      {
        "astId": 886,
        "contract": "contracts/PepeDisc.sol:PepeDisc",
        "label": "_tokenApprovals",
        "offset": 0,
        "slot": "4",
        "type": "t_mapping(t_uint256,t_address)"
      },
      {
        "astId": 892,
        "contract": "contracts/PepeDisc.sol:PepeDisc",
        "label": "_operatorApprovals",
        "offset": 0,
        "slot": "5",
        "type": "t_mapping(t_address,t_mapping(t_address,t_bool))"
      },
      {
        "astId": 1922,
        "contract": "contracts/PepeDisc.sol:PepeDisc",
        "label": "_ownedTokens",
        "offset": 0,
        "slot": "6",
        "type": "t_mapping(t_address,t_mapping(t_uint256,t_uint256))"
      },
      {
        "astId": 1926,
        "contract": "contracts/PepeDisc.sol:PepeDisc",
        "label": "_ownedTokensIndex",
        "offset": 0,
        "slot": "7",
        "type": "t_mapping(t_uint256,t_uint256)"
      },
      {
        "astId": 1929,
        "contract": "contracts/PepeDisc.sol:PepeDisc",
        "label": "_allTokens",
        "offset": 0,
        "slot": "8",
        "type": "t_array(t_uint256)dyn_storage"
      },
      {
        "astId": 1933,
        "contract": "contracts/PepeDisc.sol:PepeDisc",
        "label": "_allTokensIndex",
        "offset": 0,
        "slot": "9",
        "type": "t_mapping(t_uint256,t_uint256)"
      },
      {
        "astId": 7,
        "contract": "contracts/PepeDisc.sol:PepeDisc",
        "label": "_owner",
        "offset": 0,
        "slot": "10",
        "type": "t_address"
      },
      {
        "astId": 4994,
        "contract": "contracts/PepeDisc.sol:PepeDisc",
        "label": "saleIsActive",
        "offset": 20,
        "slot": "10",
        "type": "t_bool"
      },
      {
        "astId": 4997,
        "contract": "contracts/PepeDisc.sol:PepeDisc",
        "label": "listingPrice",
        "offset": 0,
        "slot": "11",
        "type": "t_uint256"
      },
      {
        "astId": 5000,
        "contract": "contracts/PepeDisc.sol:PepeDisc",
        "label": "freeMintablePerDrive",
        "offset": 0,
        "slot": "12",
        "type": "t_uint256"
      },
      {
        "astId": 5002,
        "contract": "contracts/PepeDisc.sol:PepeDisc",
        "label": "_nftBaseURI",
        "offset": 0,
        "slot": "13",
        "type": "t_string_storage"
      },
      {
        "astId": 5004,
        "contract": "contracts/PepeDisc.sol:PepeDisc",
        "label": "pepeStakingAddress",
        "offset": 0,
        "slot": "14",
        "type": "t_address"
      },
      {
        "astId": 5006,
        "contract": "contracts/PepeDisc.sol:PepeDisc",
        "label": "pepeDriveIIAddress",
        "offset": 0,
        "slot": "15",
        "type": "t_address"
      },
      {
        "astId": 5008,
        "contract": "contracts/PepeDisc.sol:PepeDisc",
        "label": "pepeCharacterAddress",
        "offset": 0,
        "slot": "16",
        "type": "t_address"
      },
      {
        "astId": 5010,
        "contract": "contracts/PepeDisc.sol:PepeDisc",
        "label": "team1",
        "offset": 0,
        "slot": "17",
        "type": "t_address"
      },
      {
        "astId": 5012,
        "contract": "contracts/PepeDisc.sol:PepeDisc",
        "label": "team2",
        "offset": 0,
        "slot": "18",
        "type": "t_address"
      },
      {
        "astId": 5031,
        "contract": "contracts/PepeDisc.sol:PepeDisc",
        "label": "freePerDriveID",
        "offset": 0,
        "slot": "19",
        "type": "t_mapping(t_uint256,t_uint256)"
      },
      {
        "astId": 5036,
        "contract": "contracts/PepeDisc.sol:PepeDisc",
        "label": "discDetails",
        "offset": 0,
        "slot": "20",
        "type": "t_mapping(t_uint256,t_struct(DiscDetails)5027_storage)"
      }
    ],
    "types": {
      "t_address": {
        "encoding": "inplace",
        "label": "address",
        "numberOfBytes": "20"
      },
      "t_array(t_uint256)dyn_storage": {
        "base": "t_uint256",
        "encoding": "dynamic_array",
        "label": "uint256[]",
        "numberOfBytes": "32"
      },
      "t_bool": {
        "encoding": "inplace",
        "label": "bool",
        "numberOfBytes": "1"
      },
      "t_enum(DiscType)5021": {
        "encoding": "inplace",
        "label": "enum PepeDisc.DiscType",
        "numberOfBytes": "1"
      },
      "t_mapping(t_address,t_bool)": {
        "encoding": "mapping",
        "key": "t_address",
        "label": "mapping(address => bool)",
        "numberOfBytes": "32",
        "value": "t_bool"
      },
      "t_mapping(t_address,t_mapping(t_address,t_bool))": {
        "encoding": "mapping",
        "key": "t_address",
        "label": "mapping(address => mapping(address => bool))",
        "numberOfBytes": "32",
        "value": "t_mapping(t_address,t_bool)"
      },
      "t_mapping(t_address,t_mapping(t_uint256,t_uint256))": {
        "encoding": "mapping",
        "key": "t_address",
        "label": "mapping(address => mapping(uint256 => uint256))",
        "numberOfBytes": "32",
        "value": "t_mapping(t_uint256,t_uint256)"
      },
      "t_mapping(t_address,t_uint256)": {
        "encoding": "mapping",
        "key": "t_address",
        "label": "mapping(address => uint256)",
        "numberOfBytes": "32",
        "value": "t_uint256"
      },
      "t_mapping(t_uint256,t_address)": {
        "encoding": "mapping",
        "key": "t_uint256",
        "label": "mapping(uint256 => address)",
        "numberOfBytes": "32",
        "value": "t_address"
      },
      "t_mapping(t_uint256,t_struct(DiscDetails)5027_storage)": {
        "encoding": "mapping",
        "key": "t_uint256",
        "label": "mapping(uint256 => struct PepeDisc.DiscDetails)",
        "numberOfBytes": "32",
        "value": "t_struct(DiscDetails)5027_storage"
      },
      "t_mapping(t_uint256,t_uint256)": {
        "encoding": "mapping",
        "key": "t_uint256",
        "label": "mapping(uint256 => uint256)",
        "numberOfBytes": "32",
        "value": "t_uint256"
      },
      "t_string_storage": {
        "encoding": "bytes",
        "label": "string",
        "numberOfBytes": "32"
      },
      "t_struct(DiscDetails)5027_storage": {
        "encoding": "inplace",
        "label": "struct PepeDisc.DiscDetails",
        "members": [
          {
            "astId": 5024,
            "contract": "contracts/PepeDisc.sol:PepeDisc",
            "label": "tokenType",
            "offset": 0,
            "slot": "0",
            "type": "t_enum(DiscType)5021"
          },
          {
            "astId": 5026,
            "contract": "contracts/PepeDisc.sol:PepeDisc",
            "label": "discLevel",
            "offset": 0,
            "slot": "1",
            "type": "t_uint256"
          }
        ],
        "numberOfBytes": "64"
      },
      "t_uint256": {
        "encoding": "inplace",
        "label": "uint256",
        "numberOfBytes": "32"
      }
    }
  }
}