{
  "address": "0x9D990cb3AFd31a765B0785eEC9e0377093b0e1bb",
  "abi": [
    {
      "inputs": [
        {
          "internalType": "address",
          "name": "team1_",
          "type": "address"
        },
        {
          "internalType": "address",
          "name": "team2_",
          "type": "address"
        }
      ],
      "stateMutability": "nonpayable",
      "type": "constructor"
    },
    {
      "anonymous": false,
      "inputs": [
        {
          "indexed": true,
          "internalType": "address",
          "name": "owner",
          "type": "address"
        },
        {
          "indexed": true,
          "internalType": "address",
          "name": "approved",
          "type": "address"
        },
        {
          "indexed": true,
          "internalType": "uint256",
          "name": "tokenId",
          "type": "uint256"
        }
      ],
      "name": "Approval",
      "type": "event"
    },
    {
      "anonymous": false,
      "inputs": [
        {
          "indexed": true,
          "internalType": "address",
          "name": "owner",
          "type": "address"
        },
        {
          "indexed": true,
          "internalType": "address",
          "name": "operator",
          "type": "address"
        },
        {
          "indexed": false,
          "internalType": "bool",
          "name": "approved",
          "type": "bool"
        }
      ],
      "name": "ApprovalForAll",
      "type": "event"
    },
    {
      "anonymous": false,
      "inputs": [
        {
          "indexed": false,
          "internalType": "enum PepeDisc.DiscType",
          "name": "discType",
          "type": "uint8"
        }
      ],
      "name": "DiscTypeGenerated",
      "type": "event"
    },
    {
      "anonymous": false,
      "inputs": [
        {
          "indexed": true,
          "internalType": "address",
          "name": "previousOwner",
          "type": "address"
        },
        {
          "indexed": true,
          "internalType": "address",
          "name": "newOwner",
          "type": "address"
        }
      ],
      "name": "OwnershipTransferred",
      "type": "event"
    },
    {
      "anonymous": false,
      "inputs": [
        {
          "indexed": true,
          "internalType": "address",
          "name": "from",
          "type": "address"
        },
        {
          "indexed": true,
          "internalType": "address",
          "name": "to",
          "type": "address"
        },
        {
          "indexed": true,
          "internalType": "uint256",
          "name": "tokenId",
          "type": "uint256"
        }
      ],
      "name": "Transfer",
      "type": "event"
    },
    {
      "inputs": [],
      "name": "_tokenIds",
      "outputs": [
        {
          "internalType": "uint256",
          "name": "_value",
          "type": "uint256"
        }
      ],
      "stateMutability": "view",
      "type": "function"
    },
    {
      "inputs": [
        {
          "internalType": "address",
          "name": "to",
          "type": "address"
        },
        {
          "internalType": "uint256",
          "name": "tokenId",
          "type": "uint256"
        }
      ],
      "name": "approve",
      "outputs": [],
      "stateMutability": "nonpayable",
      "type": "function"
    },
    {
      "inputs": [
        {
          "internalType": "address",
          "name": "owner",
          "type": "address"
        }
      ],
      "name": "balanceOf",
      "outputs": [
        {
          "internalType": "uint256",
          "name": "",
          "type": "uint256"
        }
      ],
      "stateMutability": "view",
      "type": "function"
    },
    {
      "inputs": [
        {
          "internalType": "uint256",
          "name": "discID_",
          "type": "uint256"
        }
      ],
      "name": "burnFromContract",
      "outputs": [],
      "stateMutability": "nonpayable",
      "type": "function"
    },
    {
      "inputs": [
        {
          "internalType": "uint256",
          "name": "driveID_",
          "type": "uint256"
        }
      ],
      "name": "checkFreePerDriveID",
      "outputs": [
        {
          "internalType": "uint256",
          "name": "",
          "type": "uint256"
        }
      ],
      "stateMutability": "view",
      "type": "function"
    },
    {
      "inputs": [
        {
          "internalType": "uint256",
          "name": "",
          "type": "uint256"
        }
      ],
      "name": "discDetails",
      "outputs": [
        {
          "internalType": "enum PepeDisc.DiscType",
          "name": "tokenType",
          "type": "uint8"
        },
        {
          "internalType": "uint256",
          "name": "discLevel",
          "type": "uint256"
        }
      ],
      "stateMutability": "view",
      "type": "function"
    },
    {
      "inputs": [],
      "name": "flipSaleState",
      "outputs": [],
      "stateMutability": "nonpayable",
      "type": "function"
    },
    {
      "inputs": [],
      "name": "freeMintablePerDrive",
      "outputs": [
        {
          "internalType": "uint256",
          "name": "",
          "type": "uint256"
        }
      ],
      "stateMutability": "view",
      "type": "function"
    },
    {
      "inputs": [
        {
          "internalType": "uint256",
          "name": "",
          "type": "uint256"
        }
      ],
      "name": "freePerDriveID",
      "outputs": [
        {
          "internalType": "uint256",
          "name": "",
          "type": "uint256"
        }
      ],
      "stateMutability": "view",
      "type": "function"
    },
    {
      "inputs": [
        {
          "internalType": "uint256",
          "name": "tokenId",
          "type": "uint256"
        }
      ],
      "name": "getApproved",
      "outputs": [
        {
          "internalType": "address",
          "name": "",
          "type": "address"
        }
      ],
      "stateMutability": "view",
      "type": "function"
    },
    {
      "inputs": [
        {
          "internalType": "uint256",
          "name": "discID_",
          "type": "uint256"
        }
      ],
      "name": "increaseDiscLevel",
      "outputs": [],
      "stateMutability": "nonpayable",
      "type": "function"
    },
    {
      "inputs": [
        {
          "internalType": "address",
          "name": "owner",
          "type": "address"
        },
        {
          "internalType": "address",
          "name": "operator",
          "type": "address"
        }
      ],
      "name": "isApprovedForAll",
      "outputs": [
        {
          "internalType": "bool",
          "name": "",
          "type": "bool"
        }
      ],
      "stateMutability": "view",
      "type": "function"
    },
    {
      "inputs": [],
      "name": "listingPrice",
      "outputs": [
        {
          "internalType": "uint256",
          "name": "",
          "type": "uint256"
        }
      ],
      "stateMutability": "view",
      "type": "function"
    },
    {
      "inputs": [
        {
          "internalType": "uint256",
          "name": "amount_",
          "type": "uint256"
        },
        {
          "internalType": "uint256",
          "name": "driveID_",
          "type": "uint256"
        }
      ],
      "name": "mintFreeWithDrive",
      "outputs": [],
      "stateMutability": "nonpayable",
      "type": "function"
    },
    {
      "inputs": [
        {
          "internalType": "uint256",
          "name": "amount_",
          "type": "uint256"
        }
      ],
      "name": "mintPayed",
      "outputs": [],
      "stateMutability": "payable",
      "type": "function"
    },
    {
      "inputs": [],
      "name": "name",
      "outputs": [
        {
          "internalType": "string",
          "name": "",
          "type": "string"
        }
      ],
      "stateMutability": "view",
      "type": "function"
    },
    {
      "inputs": [],
      "name": "owner",
      "outputs": [
        {
          "internalType": "address",
          "name": "",
          "type": "address"
        }
      ],
      "stateMutability": "view",
      "type": "function"
    },
    {
      "inputs": [
        {
          "internalType": "uint256",
          "name": "tokenId",
          "type": "uint256"
        }
      ],
      "name": "ownerOf",
      "outputs": [
        {
          "internalType": "address",
          "name": "",
          "type": "address"
        }
      ],
      "stateMutability": "view",
      "type": "function"
    },
    {
      "inputs": [],
      "name": "pepeCharacterAddress",
      "outputs": [
        {
          "internalType": "address",
          "name": "",
          "type": "address"
        }
      ],
      "stateMutability": "view",
      "type": "function"
    },
    {
      "inputs": [],
      "name": "pepeDriveIIAddress",
      "outputs": [
        {
          "internalType": "address",
          "name": "",
          "type": "address"
        }
      ],
      "stateMutability": "view",
      "type": "function"
    },
    {
      "inputs": [],
      "name": "pepeStakingAddress",
      "outputs": [
        {
          "internalType": "address",
          "name": "",
          "type": "address"
        }
      ],
      "stateMutability": "view",
      "type": "function"
    },
    {
      "inputs": [],
      "name": "renounceOwnership",
      "outputs": [],
      "stateMutability": "nonpayable",
      "type": "function"
    },
    {
      "inputs": [
        {
          "internalType": "uint256",
          "name": "discID_",
          "type": "uint256"
        }
      ],
      "name": "returnDiscLevel",
      "outputs": [
        {
          "internalType": "uint256",
          "name": "",
          "type": "uint256"
        }
      ],
      "stateMutability": "view",
      "type": "function"
    },
    {
      "inputs": [
        {
          "internalType": "uint256",
          "name": "discID_",
          "type": "uint256"
        }
      ],
      "name": "returnDiscType",
      "outputs": [
        {
          "internalType": "enum PepeDisc.DiscType",
          "name": "",
          "type": "uint8"
        }
      ],
      "stateMutability": "view",
      "type": "function"
    },
    {
      "inputs": [
        {
          "internalType": "address",
          "name": "from",
          "type": "address"
        },
        {
          "internalType": "address",
          "name": "to",
          "type": "address"
        },
        {
          "internalType": "uint256",
          "name": "tokenId",
          "type": "uint256"
        }
      ],
      "name": "safeTransferFrom",
      "outputs": [],
      "stateMutability": "nonpayable",
      "type": "function"
    },
    {
      "inputs": [
        {
          "internalType": "address",
          "name": "from",
          "type": "address"
        },
        {
          "internalType": "address",
          "name": "to",
          "type": "address"
        },
        {
          "internalType": "uint256",
          "name": "tokenId",
          "type": "uint256"
        },
        {
          "internalType": "bytes",
          "name": "data",
          "type": "bytes"
        }
      ],
      "name": "safeTransferFrom",
      "outputs": [],
      "stateMutability": "nonpayable",
      "type": "function"
    },
    {
      "inputs": [],
      "name": "saleIsActive",
      "outputs": [
        {
          "internalType": "bool",
          "name": "",
          "type": "bool"
        }
      ],
      "stateMutability": "view",
      "type": "function"
    },
    {
      "inputs": [
        {
          "internalType": "address",
          "name": "operator",
          "type": "address"
        },
        {
          "internalType": "bool",
          "name": "approved",
          "type": "bool"
        }
      ],
      "name": "setApprovalForAll",
      "outputs": [],
      "stateMutability": "nonpayable",
      "type": "function"
    },
    {
      "inputs": [
        {
          "internalType": "string",
          "name": "nftBaseURI_",
          "type": "string"
        }
      ],
      "name": "setBaseURI",
      "outputs": [],
      "stateMutability": "nonpayable",
      "type": "function"
    },
    {
      "inputs": [
        {
          "internalType": "uint256",
          "name": "freeMintablePerDrive_",
          "type": "uint256"
        }
      ],
      "name": "setFreeMintablePerDrive",
      "outputs": [],
      "stateMutability": "nonpayable",
      "type": "function"
    },
    {
      "inputs": [
        {
          "internalType": "uint256",
          "name": "listingPrice_",
          "type": "uint256"
        }
      ],
      "name": "setListingPrice",
      "outputs": [],
      "stateMutability": "nonpayable",
      "type": "function"
    },
    {
      "inputs": [
        {
          "internalType": "address",
          "name": "pepeCharacterAddress_",
          "type": "address"
        }
      ],
      "name": "setPepeCharacterAddress",
      "outputs": [],
      "stateMutability": "nonpayable",
      "type": "function"
    },
    {
      "inputs": [
        {
          "internalType": "address",
          "name": "pepeDriveIIAddress_",
          "type": "address"
        }
      ],
      "name": "setPepeDriveIIAddress",
      "outputs": [],
      "stateMutability": "nonpayable",
      "type": "function"
    },
    {
      "inputs": [
        {
          "internalType": "address",
          "name": "pepeStakingAddress_",
          "type": "address"
        }
      ],
      "name": "setPepeStakingAddress",
      "outputs": [],
      "stateMutability": "nonpayable",
      "type": "function"
    },
    {
      "inputs": [
        {
          "internalType": "address[]",
          "name": "team",
          "type": "address[]"
        }
      ],
      "name": "setTeam",
      "outputs": [],
      "stateMutability": "nonpayable",
      "type": "function"
    },
    {
      "inputs": [
        {
          "internalType": "bytes4",
          "name": "interfaceId",
          "type": "bytes4"
        }
      ],
      "name": "supportsInterface",
      "outputs": [
        {
          "internalType": "bool",
          "name": "",
          "type": "bool"
        }
      ],
      "stateMutability": "view",
      "type": "function"
    },
    {
      "inputs": [],
      "name": "symbol",
      "outputs": [
        {
          "internalType": "string",
          "name": "",
          "type": "string"
        }
      ],
      "stateMutability": "view",
      "type": "function"
    },
    {
      "inputs": [],
      "name": "team1",
      "outputs": [
        {
          "internalType": "address",
          "name": "",
          "type": "address"
        }
      ],
      "stateMutability": "view",
      "type": "function"
    },
    {
      "inputs": [],
      "name": "team2",
      "outputs": [
        {
          "internalType": "address",
          "name": "",
          "type": "address"
        }
      ],
      "stateMutability": "view",
      "type": "function"
    },
    {
      "inputs": [
        {
          "internalType": "uint256",
          "name": "index",
          "type": "uint256"
        }
      ],
      "name": "tokenByIndex",
      "outputs": [
        {
          "internalType": "uint256",
          "name": "",
          "type": "uint256"
        }
      ],
      "stateMutability": "view",
      "type": "function"
    },
    {
      "inputs": [
        {
          "internalType": "address",
          "name": "owner",
          "type": "address"
        },
        {
          "internalType": "uint256",
          "name": "index",
          "type": "uint256"
        }
      ],
      "name": "tokenOfOwnerByIndex",
      "outputs": [
        {
          "internalType": "uint256",
          "name": "",
          "type": "uint256"
        }
      ],
      "stateMutability": "view",
      "type": "function"
    },
    {
      "inputs": [
        {
          "internalType": "uint256",
          "name": "tokenId",
          "type": "uint256"
        }
      ],
      "name": "tokenURI",
      "outputs": [
        {
          "internalType": "string",
          "name": "",
          "type": "string"
        }
      ],
      "stateMutability": "view",
      "type": "function"
    },
    {
      "inputs": [
        {
          "internalType": "address",
          "name": "_owner",
          "type": "address"
        }
      ],
      "name": "tokensOfOwner",
      "outputs": [
        {
          "internalType": "uint256[]",
          "name": "",
          "type": "uint256[]"
        }
      ],
      "stateMutability": "view",
      "type": "function"
    },
    {
      "inputs": [],
      "name": "totalSupply",
      "outputs": [
        {
          "internalType": "uint256",
          "name": "",
          "type": "uint256"
        }
      ],
      "stateMutability": "view",
      "type": "function"
    },
    {
      "inputs": [
        {
          "internalType": "address",
          "name": "from",
          "type": "address"
        },
        {
          "internalType": "address",
          "name": "to",
          "type": "address"
        },
        {
          "internalType": "uint256",
          "name": "tokenId",
          "type": "uint256"
        }
      ],
      "name": "transferFrom",
      "outputs": [],
      "stateMutability": "nonpayable",
      "type": "function"
    },
    {
      "inputs": [
        {
          "internalType": "address",
          "name": "newOwner",
          "type": "address"
        }
      ],
      "name": "transferOwnership",
      "outputs": [],
      "stateMutability": "nonpayable",
      "type": "function"
    },
    {
      "inputs": [],
      "name": "withdraw",
      "outputs": [],
      "stateMutability": "nonpayable",
      "type": "function"
    }
  ],
  "transactionHash": "0x68e96cf6c0f708a522c78726bf88c282df1ec2f2fcfbc19922fa8bcc3868b6ff",
  "args": [
    "0xE09eA9cBc76b0105dd32312D4a2E37B4d4c7a43c",
    "0xc9b4E422Bc97DC073c917E2d01b9B3D3F269f467"
  ],
  "numDeployments": 2,
  "solcInputHash": "a3eb95faa2fda6fe9f19ee59eeec1f45",
  "bytecode": "0x6080604052600c805460ff191690556618838370f34000600d556003600e553480156200002b57600080fd5b50604051620032d4380380620032d48339810160408190526200004e916200016c565b60405180604001604052806008815260200167506570654469736360c01b81525060405180604001604052806002815260200161141160f21b81525081600090816200009b919062000249565b506001620000aa828262000249565b505050620000c7620000c1620000f960201b60201c565b620000fd565b601380546001600160a01b039384166001600160a01b0319918216179091556014805492909316911617905562000315565b3390565b600a80546001600160a01b038381166001600160a01b0319831681179093556040519116919082907f8be0079c531659141344cd1fd0a4f28419497f9722a3daafe3b4186f6b6457e090600090a35050565b80516001600160a01b03811681146200016757600080fd5b919050565b600080604083850312156200018057600080fd5b6200018b836200014f565b91506200019b602084016200014f565b90509250929050565b634e487b7160e01b600052604160045260246000fd5b600181811c90821680620001cf57607f821691505b602082108103620001f057634e487b7160e01b600052602260045260246000fd5b50919050565b601f8211156200024457600081815260208120601f850160051c810160208610156200021f5750805b601f850160051c820191505b8181101562000240578281556001016200022b565b5050505b505050565b81516001600160401b03811115620002655762000265620001a4565b6200027d81620002768454620001ba565b84620001f6565b602080601f831160018114620002b557600084156200029c5750858301515b600019600386901b1c1916600185901b17855562000240565b600085815260208120601f198616915b82811015620002e657888601518255948401946001909101908401620002c5565b5085821015620003055787850151600019600388901b60f8161c191681555b5050505050600190811b01905550565b612faf80620003256000396000f3fe6080604052600436106103085760003560e01c80636352211e1161019a578063b5af6663116100e1578063e612c0ad1161008a578063eb8d244411610064578063eb8d2444146108d4578063f2fde38b146108ee578063fc8186841461090e57600080fd5b8063e612c0ad14610874578063e985e9c514610894578063ea9ad185146108b457600080fd5b8063c87b56dd116100bb578063c87b56dd14610814578063e376bdfa14610834578063e5e7d74f1461085457600080fd5b8063b5af6663146107c8578063b88d4fde146107de578063c78f19f9146107fe57600080fd5b80638c8d2ede11610143578063a22cb4651161011d578063a22cb46514610764578063aa46a40014610784578063b50368291461079b57600080fd5b80638c8d2ede146107115780638da5cb5b1461073157806395d89b411461074f57600080fd5b8063715018a611610174578063715018a6146106af5780637c726b69146106c45780638462151c146106e457600080fd5b80636352211e146106275780636f577be11461064757806370a082311461068f57600080fd5b80632d1772591161025e578063482ec0431161020757806355f804b3116101e157806355f804b3146105c75780635695440f146105e75780635c936d271461060757600080fd5b8063482ec043146105745780634e60aa92146105875780634f6ccce7146105a757600080fd5b80633b749b87116102385780633b749b871461051f5780633ccfd60b1461053f57806342842e0e1461055457600080fd5b80632d177259146104ca5780632f745c59146104ea57806334918dfd1461050a57600080fd5b806310d6daf8116102c057806323b872dd1161029a57806323b872dd1461045a5780632a49fde41461047a5780632cee6e821461049a57600080fd5b806310d6daf8146103fb57806317f777751461041b57806318160ddd1461043b57600080fd5b8063081812fc116102f1578063081812fc14610364578063095ea7b31461039c5780630fd15ed1146103be57600080fd5b806301ffc9a71461030d57806306fdde0314610342575b600080fd5b34801561031957600080fd5b5061032d61032836600461287f565b61092e565b60405190151581526020015b60405180910390f35b34801561034e57600080fd5b5061035761098a565b60405161033991906128ec565b34801561037057600080fd5b5061038461037f3660046128ff565b610a1c565b6040516001600160a01b039091168152602001610339565b3480156103a857600080fd5b506103bc6103b736600461292d565b610a43565b005b3480156103ca57600080fd5b506103ee6103d93660046128ff565b60009081526016602052604090205460ff1690565b6040516103399190612991565b34801561040757600080fd5b506103bc61041636600461299f565b610b79565b34801561042757600080fd5b50601154610384906001600160a01b031681565b34801561044757600080fd5b506008545b604051908152602001610339565b34801561046657600080fd5b506103bc6104753660046129bc565b610ba3565b34801561048657600080fd5b506103bc6104953660046129fd565b610c2a565b3480156104a657600080fd5b5061044c6104b53660046128ff565b60009081526016602052604090206001015490565b3480156104d657600080fd5b50601054610384906001600160a01b031681565b3480156104f657600080fd5b5061044c61050536600461292d565b610e73565b34801561051657600080fd5b506103bc610f1b565b34801561052b57600080fd5b506103bc61053a366004612a1f565b610f37565b34801561054b57600080fd5b506103bc611023565b34801561056057600080fd5b506103bc61056f3660046129bc565b61110c565b6103bc6105823660046128ff565b611127565b34801561059357600080fd5b506103bc6105a236600461299f565b611254565b3480156105b357600080fd5b5061044c6105c23660046128ff565b61127e565b3480156105d357600080fd5b506103bc6105e2366004612a94565b611322565b3480156105f357600080fd5b50601254610384906001600160a01b031681565b34801561061357600080fd5b506103bc6106223660046128ff565b611337565b34801561063357600080fd5b506103846106423660046128ff565b6113c0565b34801561065357600080fd5b506106816106623660046128ff565b6016602052600090815260409020805460019091015460ff9091169082565b604051610339929190612af4565b34801561069b57600080fd5b5061044c6106aa36600461299f565b611425565b3480156106bb57600080fd5b506103bc6114bf565b3480156106d057600080fd5b506103bc6106df3660046128ff565b6114d3565b3480156106f057600080fd5b506107046106ff36600461299f565b6114e0565b6040516103399190612b0f565b34801561071d57600080fd5b50601354610384906001600160a01b031681565b34801561073d57600080fd5b50600a546001600160a01b0316610384565b34801561075b57600080fd5b50610357611582565b34801561077057600080fd5b506103bc61077f366004612b53565b611591565b34801561079057600080fd5b50600b5461044c9081565b3480156107a757600080fd5b5061044c6107b63660046128ff565b60156020526000908152604090205481565b3480156107d457600080fd5b5061044c600e5481565b3480156107ea57600080fd5b506103bc6107f9366004612ba7565b61159c565b34801561080a57600080fd5b5061044c600d5481565b34801561082057600080fd5b5061035761082f3660046128ff565b611624565b34801561084057600080fd5b506103bc61084f36600461299f565b61168b565b34801561086057600080fd5b5061044c61086f3660046128ff565b6116b5565b34801561088057600080fd5b50601454610384906001600160a01b031681565b3480156108a057600080fd5b5061032d6108af366004612c87565b6116cf565b3480156108c057600080fd5b506103bc6108cf3660046128ff565b61171e565b3480156108e057600080fd5b50600c5461032d9060ff1681565b3480156108fa57600080fd5b506103bc61090936600461299f565b61172b565b34801561091a57600080fd5b506103bc6109293660046128ff565b6117bb565b60007fffffffff0000000000000000000000000000000000000000000000000000000082167f780e9d63000000000000000000000000000000000000000000000000000000001480610984575061098482611833565b92915050565b60606000805461099990612cb5565b80601f01602080910402602001604051908101604052809291908181526020018280546109c590612cb5565b8015610a125780601f106109e757610100808354040283529160200191610a12565b820191906000526020600020905b8154815290600101906020018083116109f557829003601f168201915b5050505050905090565b6000610a2782611916565b506000908152600460205260409020546001600160a01b031690565b6000610a4e826113c0565b9050806001600160a01b0316836001600160a01b031603610adc5760405162461bcd60e51b815260206004820152602160248201527f4552433732313a20617070726f76616c20746f2063757272656e74206f776e6560448201527f720000000000000000000000000000000000000000000000000000000000000060648201526084015b60405180910390fd5b336001600160a01b0382161480610af85750610af881336116cf565b610b6a5760405162461bcd60e51b815260206004820152603d60248201527f4552433732313a20617070726f76652063616c6c6572206973206e6f7420746f60448201527f6b656e206f776e6572206f7220617070726f76656420666f7220616c6c0000006064820152608401610ad3565b610b74838361197a565b505050565b610b816119e8565b601180546001600160a01b0319166001600160a01b0392909216919091179055565b610bad3382611a42565b610c1f5760405162461bcd60e51b815260206004820152602d60248201527f4552433732313a2063616c6c6572206973206e6f7420746f6b656e206f776e6560448201527f72206f7220617070726f766564000000000000000000000000000000000000006064820152608401610ad3565b610b74838383611aa1565b601154600c546001600160a01b039091169060ff16610c8b5760405162461bcd60e51b815260206004820152601060248201527f73616c65206973206e6f74206f70656e000000000000000000000000000000006044820152606401610ad3565b600082815260156020526040902054600390610ca79085612d05565b1115610cf55760405162461bcd60e51b815260206004820152601560248201527f64726976652063616e2774206d696e74206d6f726500000000000000000000006044820152606401610ad3565b6040517f6352211e0000000000000000000000000000000000000000000000000000000081526004810183905233906001600160a01b03831690636352211e90602401602060405180830381865afa158015610d55573d6000803e3d6000fd5b505050506040513d601f19601f82011682018060405250810190610d799190612d18565b6001600160a01b031614610dcf5760405162461bcd60e51b815260206004820152601b60248201527f796f75206861766520746f206f776e20746861742064726976652100000000006044820152606401610ad3565b60008281526015602052604081208054859290610ded908490612d05565b90915550600090505b83811015610e6d576000610e09600b5490565b9050610e158133611cd7565b6000828152601660205260409020805460ff19166001836002811115610e3d57610e3d612959565b0217905550610e4c3382611d61565b610e5a600b80546001019055565b5080610e6581612d35565b915050610df6565b50505050565b6000610e7e83611425565b8210610ef25760405162461bcd60e51b815260206004820152602b60248201527f455243373231456e756d657261626c653a206f776e657220696e646578206f7560448201527f74206f6620626f756e64730000000000000000000000000000000000000000006064820152608401610ad3565b506001600160a01b03919091166000908152600660209081526040808320938352929052205490565b610f236119e8565b600c805460ff19811660ff90911615179055565b610f3f6119e8565b60028114610f8f5760405162461bcd60e51b815260206004820152601560248201527f4e6565642074776f207465616d206d656d6265727300000000000000000000006044820152606401610ad3565b81816000818110610fa257610fa2612d4f565b9050602002016020810190610fb7919061299f565b601380546001600160a01b0319166001600160a01b039290921691909117905581816001818110610fea57610fea612d4f565b9050602002016020810190610fff919061299f565b601480546001600160a01b0319166001600160a01b03929092169190911790555050565b61102b6119e8565b476000606461103b836032612d65565b6110459190612d92565b6013546040519192506000916001600160a01b039091169083908381818185875af1925050503d8060008114611097576040519150601f19603f3d011682016040523d82523d6000602084013e61109c565b606091505b50509050806110aa57600080fd5b6014546040516001600160a01b03909116908390600081818185875af1925050503d80600081146110f7576040519150601f19603f3d011682016040523d82523d6000602084013e6110fc565b606091505b50508091505080610b7457600080fd5b610b748383836040518060200160405280600081525061159c565b600c5460ff166111795760405162461bcd60e51b815260206004820152601060248201527f53616c65206973206e6f74206f70656e000000000000000000000000000000006044820152606401610ad3565b80600d546111879190612d65565b3410156111d65760405162461bcd60e51b815260206004820152601a60248201527f4e6f7420656e6f7567682066756e6473207375626d69747465640000000000006044820152606401610ad3565b60005b818110156112505760006111ec600b5490565b90506111f88133611cd7565b6000828152601660205260409020805460ff1916600183600281111561122057611220612959565b021790555061122f3382611d61565b61123d600b80546001019055565b508061124881612d35565b9150506111d9565b5050565b61125c6119e8565b601280546001600160a01b0319166001600160a01b0392909216919091179055565b600061128960085490565b82106112fd5760405162461bcd60e51b815260206004820152602c60248201527f455243373231456e756d657261626c653a20676c6f62616c20696e646578206f60448201527f7574206f6620626f756e647300000000000000000000000000000000000000006064820152608401610ad3565b6008828154811061131057611310612d4f565b90600052602060002001549050919050565b61132a6119e8565b600f610b74828483612df4565b6010546001600160a01b031633146113915760405162461bcd60e51b815260206004820152601e60248201527f6f6e6c79207374616b65722063616e20696e637265617365206c6576656c00006044820152606401610ad3565b60016016600083815260200190815260200160002060010160008282546113b89190612d05565b909155505050565b6000818152600260205260408120546001600160a01b0316806109845760405162461bcd60e51b815260206004820152601860248201527f4552433732313a20696e76616c696420746f6b656e20494400000000000000006044820152606401610ad3565b60006001600160a01b0382166114a35760405162461bcd60e51b815260206004820152602960248201527f4552433732313a2061646472657373207a65726f206973206e6f74206120766160448201527f6c6964206f776e657200000000000000000000000000000000000000000000006064820152608401610ad3565b506001600160a01b031660009081526003602052604090205490565b6114c76119e8565b6114d16000611d7b565b565b6114db6119e8565b600d55565b606060006114ed83611425565b905060008167ffffffffffffffff81111561150a5761150a612b91565b604051908082528060200260200182016040528015611533578160200160208202803683370190505b50905060005b8281101561157a5761154b8582610e73565b82828151811061155d5761155d612d4f565b60209081029190910101528061157281612d35565b915050611539565b509392505050565b60606001805461099990612cb5565b611250338383611dcd565b6115a63383611a42565b6116185760405162461bcd60e51b815260206004820152602d60248201527f4552433732313a2063616c6c6572206973206e6f7420746f6b656e206f776e6560448201527f72206f7220617070726f766564000000000000000000000000000000000000006064820152608401610ad3565b610e6d84848484611e9b565b606061162f82611916565b6000611639611f24565b905060008151116116595760405180602001604052806000815250611684565b8061166384611f33565b604051602001611674929190612eb4565b6040516020818303038152906040525b9392505050565b6116936119e8565b601080546001600160a01b0319166001600160a01b0392909216919091179055565b600081815260156020526040812054610984906003612ee3565b6010546000906001600160a01b03908116908316036116f057506001610984565b6001600160a01b0380841660009081526005602090815260408083209386168352929052205460ff16611684565b6117266119e8565b600e55565b6117336119e8565b6001600160a01b0381166117af5760405162461bcd60e51b815260206004820152602660248201527f4f776e61626c653a206e6577206f776e657220697320746865207a65726f206160448201527f64647265737300000000000000000000000000000000000000000000000000006064820152608401610ad3565b6117b881611d7b565b50565b6010546001600160a01b03163314806117de57506012546001600160a01b031633145b61182a5760405162461bcd60e51b815260206004820152601760248201527f6f6e6c79206275726e61626c652066726f6d2067616d650000000000000000006044820152606401610ad3565b6117b881611fd3565b60007fffffffff0000000000000000000000000000000000000000000000000000000082167f80ac58cd0000000000000000000000000000000000000000000000000000000014806118c657507fffffffff0000000000000000000000000000000000000000000000000000000082167f5b5e139f00000000000000000000000000000000000000000000000000000000145b8061098457507f01ffc9a7000000000000000000000000000000000000000000000000000000007fffffffff00000000000000000000000000000000000000000000000000000000831614610984565b6000818152600260205260409020546001600160a01b03166117b85760405162461bcd60e51b815260206004820152601860248201527f4552433732313a20696e76616c696420746f6b656e20494400000000000000006044820152606401610ad3565b600081815260046020526040902080546001600160a01b0319166001600160a01b03841690811790915581906119af826113c0565b6001600160a01b03167f8c5be1e5ebec7d5bd14f71427d1e84f3dd0314c0f7b2291e5b200ac8c7c3b92560405160405180910390a45050565b600a546001600160a01b031633146114d15760405162461bcd60e51b815260206004820181905260248201527f4f776e61626c653a2063616c6c6572206973206e6f7420746865206f776e65726044820152606401610ad3565b600080611a4e836113c0565b9050806001600160a01b0316846001600160a01b03161480611a755750611a7581856116cf565b80611a995750836001600160a01b0316611a8e84610a1c565b6001600160a01b0316145b949350505050565b826001600160a01b0316611ab4826113c0565b6001600160a01b031614611b305760405162461bcd60e51b815260206004820152602560248201527f4552433732313a207472616e736665722066726f6d20696e636f72726563742060448201527f6f776e65720000000000000000000000000000000000000000000000000000006064820152608401610ad3565b6001600160a01b038216611bab5760405162461bcd60e51b8152602060048201526024808201527f4552433732313a207472616e7366657220746f20746865207a65726f2061646460448201527f72657373000000000000000000000000000000000000000000000000000000006064820152608401610ad3565b611bb88383836001612076565b826001600160a01b0316611bcb826113c0565b6001600160a01b031614611c475760405162461bcd60e51b815260206004820152602560248201527f4552433732313a207472616e736665722066726f6d20696e636f72726563742060448201527f6f776e65720000000000000000000000000000000000000000000000000000006064820152608401610ad3565b600081815260046020908152604080832080546001600160a01b03199081169091556001600160a01b0387811680865260038552838620805460001901905590871680865283862080546001019055868652600290945282852080549092168417909155905184937fddf252ad1be2c89b69c2b068fc378daa952ba7f163c4a11628f55a4df523b3ef91a4505050565b600080611ce484846121b2565b90506000605a611cf5606484612ef6565b1015611d0357506000611d22565b6063611d10606484612ef6565b1015611d1e57506001611d22565b5060025b7f55bf614aad0d1f06588eac830feeb4b3ffcaeeb210f5a50839f6bc85c7fd2d1781604051611d519190612991565b60405180910390a1949350505050565b61125082826040518060200160405280600081525061221c565b600a80546001600160a01b038381166001600160a01b0319831681179093556040519116919082907f8be0079c531659141344cd1fd0a4f28419497f9722a3daafe3b4186f6b6457e090600090a35050565b816001600160a01b0316836001600160a01b031603611e2e5760405162461bcd60e51b815260206004820152601960248201527f4552433732313a20617070726f766520746f2063616c6c6572000000000000006044820152606401610ad3565b6001600160a01b03838116600081815260056020908152604080832094871680845294825291829020805460ff191686151590811790915591519182527f17307eab39ab6107e8899845ad3d59bd9653f200f220920489ca2b5937696c31910160405180910390a3505050565b611ea6848484611aa1565b611eb2848484846122a5565b610e6d5760405162461bcd60e51b815260206004820152603260248201527f4552433732313a207472616e7366657220746f206e6f6e20455243373231526560448201527f63656976657220696d706c656d656e74657200000000000000000000000000006064820152608401610ad3565b6060600f805461099990612cb5565b60606000611f4083612446565b600101905060008167ffffffffffffffff811115611f6057611f60612b91565b6040519080825280601f01601f191660200182016040528015611f8a576020820181803683370190505b5090508181016020015b600019017f3031323334353637383961626364656600000000000000000000000000000000600a86061a8153600a8504945084611f9457509392505050565b6000611fde826113c0565b9050611fee816000846001612076565b611ff7826113c0565b600083815260046020908152604080832080546001600160a01b03199081169091556001600160a01b0385168085526003845282852080546000190190558785526002909352818420805490911690555192935084927fddf252ad1be2c89b69c2b068fc378daa952ba7f163c4a11628f55a4df523b3ef908390a45050565b60018111156120ed5760405162461bcd60e51b815260206004820152603560248201527f455243373231456e756d657261626c653a20636f6e736563757469766520747260448201527f616e7366657273206e6f7420737570706f7274656400000000000000000000006064820152608401610ad3565b816001600160a01b0385166121495761214481600880546000838152600960205260408120829055600182018355919091527ff3f7a9fe364faab93b216da50a3214154f22a0a2b415b23a84c8169e8b636ee30155565b61216c565b836001600160a01b0316856001600160a01b03161461216c5761216c8582612528565b6001600160a01b03841661218857612183816125c5565b6121ab565b846001600160a01b0316846001600160a01b0316146121ab576121ab8482612674565b5050505050565b60006121bf600143612ee3565b60408051914060208301528101849052606083811b7fffffffffffffffffffffffffffffffffffffffff000000000000000000000000169082015260740160408051601f1981840301815291905280516020909101209392505050565b61222683836126b8565b61223360008484846122a5565b610b745760405162461bcd60e51b815260206004820152603260248201527f4552433732313a207472616e7366657220746f206e6f6e20455243373231526560448201527f63656976657220696d706c656d656e74657200000000000000000000000000006064820152608401610ad3565b60006001600160a01b0384163b1561243b576040517f150b7a020000000000000000000000000000000000000000000000000000000081526001600160a01b0385169063150b7a0290612302903390899088908890600401612f0a565b6020604051808303816000875af192505050801561233d575060408051601f3d908101601f1916820190925261233a91810190612f46565b60015b6123f0573d80801561236b576040519150601f19603f3d011682016040523d82523d6000602084013e612370565b606091505b5080516000036123e85760405162461bcd60e51b815260206004820152603260248201527f4552433732313a207472616e7366657220746f206e6f6e20455243373231526560448201527f63656976657220696d706c656d656e74657200000000000000000000000000006064820152608401610ad3565b805181602001fd5b7fffffffff00000000000000000000000000000000000000000000000000000000167f150b7a0200000000000000000000000000000000000000000000000000000000149050611a99565b506001949350505050565b6000807a184f03e93ff9f4daa797ed6e38ed64bf6a1f010000000000000000831061248f577a184f03e93ff9f4daa797ed6e38ed64bf6a1f010000000000000000830492506040015b6d04ee2d6d415b85acef810000000083106124bb576d04ee2d6d415b85acef8100000000830492506020015b662386f26fc1000083106124d957662386f26fc10000830492506010015b6305f5e10083106124f1576305f5e100830492506008015b612710831061250557612710830492506004015b60648310612517576064830492506002015b600a83106109845760010192915050565b6000600161253584611425565b61253f9190612ee3565b600083815260076020526040902054909150808214612592576001600160a01b03841660009081526006602090815260408083208584528252808320548484528184208190558352600790915290208190555b5060009182526007602090815260408084208490556001600160a01b039094168352600681528383209183525290812055565b6008546000906125d790600190612ee3565b600083815260096020526040812054600880549394509092849081106125ff576125ff612d4f565b90600052602060002001549050806008838154811061262057612620612d4f565b600091825260208083209091019290925582815260099091526040808220849055858252812055600880548061265857612658612f63565b6001900381819060005260206000200160009055905550505050565b600061267f83611425565b6001600160a01b039093166000908152600660209081526040808320868452825280832085905593825260079052919091209190915550565b6001600160a01b03821661270e5760405162461bcd60e51b815260206004820181905260248201527f4552433732313a206d696e7420746f20746865207a65726f20616464726573736044820152606401610ad3565b6000818152600260205260409020546001600160a01b0316156127735760405162461bcd60e51b815260206004820152601c60248201527f4552433732313a20746f6b656e20616c7265616479206d696e746564000000006044820152606401610ad3565b612781600083836001612076565b6000818152600260205260409020546001600160a01b0316156127e65760405162461bcd60e51b815260206004820152601c60248201527f4552433732313a20746f6b656e20616c7265616479206d696e746564000000006044820152606401610ad3565b6001600160a01b038216600081815260036020908152604080832080546001019055848352600290915280822080546001600160a01b0319168417905551839291907fddf252ad1be2c89b69c2b068fc378daa952ba7f163c4a11628f55a4df523b3ef908290a45050565b7fffffffff00000000000000000000000000000000000000000000000000000000811681146117b857600080fd5b60006020828403121561289157600080fd5b813561168481612851565b60005b838110156128b757818101518382015260200161289f565b50506000910152565b600081518084526128d881602086016020860161289c565b601f01601f19169290920160200192915050565b60208152600061168460208301846128c0565b60006020828403121561291157600080fd5b5035919050565b6001600160a01b03811681146117b857600080fd5b6000806040838503121561294057600080fd5b823561294b81612918565b946020939093013593505050565b634e487b7160e01b600052602160045260246000fd5b6003811061298d57634e487b7160e01b600052602160045260246000fd5b9052565b60208101610984828461296f565b6000602082840312156129b157600080fd5b813561168481612918565b6000806000606084860312156129d157600080fd5b83356129dc81612918565b925060208401356129ec81612918565b929592945050506040919091013590565b60008060408385031215612a1057600080fd5b50508035926020909101359150565b60008060208385031215612a3257600080fd5b823567ffffffffffffffff80821115612a4a57600080fd5b818501915085601f830112612a5e57600080fd5b813581811115612a6d57600080fd5b8660208260051b8501011115612a8257600080fd5b60209290920196919550909350505050565b60008060208385031215612aa757600080fd5b823567ffffffffffffffff80821115612abf57600080fd5b818501915085601f830112612ad357600080fd5b813581811115612ae257600080fd5b866020828501011115612a8257600080fd5b60408101612b02828561296f565b8260208301529392505050565b6020808252825182820181905260009190848201906040850190845b81811015612b4757835183529284019291840191600101612b2b565b50909695505050505050565b60008060408385031215612b6657600080fd5b8235612b7181612918565b915060208301358015158114612b8657600080fd5b809150509250929050565b634e487b7160e01b600052604160045260246000fd5b60008060008060808587031215612bbd57600080fd5b8435612bc881612918565b93506020850135612bd881612918565b925060408501359150606085013567ffffffffffffffff80821115612bfc57600080fd5b818701915087601f830112612c1057600080fd5b813581811115612c2257612c22612b91565b604051601f8201601f19908116603f01168101908382118183101715612c4a57612c4a612b91565b816040528281528a6020848701011115612c6357600080fd5b82602086016020830137600060208483010152809550505050505092959194509250565b60008060408385031215612c9a57600080fd5b8235612ca581612918565b91506020830135612b8681612918565b600181811c90821680612cc957607f821691505b602082108103612ce957634e487b7160e01b600052602260045260246000fd5b50919050565b634e487b7160e01b600052601160045260246000fd5b8082018082111561098457610984612cef565b600060208284031215612d2a57600080fd5b815161168481612918565b60006000198203612d4857612d48612cef565b5060010190565b634e487b7160e01b600052603260045260246000fd5b808202811582820484141761098457610984612cef565b634e487b7160e01b600052601260045260246000fd5b600082612da157612da1612d7c565b500490565b601f821115610b7457600081815260208120601f850160051c81016020861015612dcd5750805b601f850160051c820191505b81811015612dec57828155600101612dd9565b505050505050565b67ffffffffffffffff831115612e0c57612e0c612b91565b612e2083612e1a8354612cb5565b83612da6565b6000601f841160018114612e545760008515612e3c5750838201355b600019600387901b1c1916600186901b1783556121ab565b600083815260209020601f19861690835b82811015612e855786850135825560209485019460019092019101612e65565b5086821015612ea25760001960f88860031b161c19848701351681555b505060018560011b0183555050505050565b60008351612ec681846020880161289c565b835190830190612eda81836020880161289c565b01949350505050565b8181038181111561098457610984612cef565b600082612f0557612f05612d7c565b500690565b60006001600160a01b03808716835280861660208401525083604083015260806060830152612f3c60808301846128c0565b9695505050505050565b600060208284031215612f5857600080fd5b815161168481612851565b634e487b7160e01b600052603160045260246000fdfea26469706673582212207b75d3bbc85228360c301c8d52b2834e01eeaa6c4fe6496b7f6cd2cc1c106af264736f6c63430008120033",
  "devdoc": {
    "events": {
      "Approval(address,address,uint256)": {
        "details": "Emitted when `owner` enables `approved` to manage the `tokenId` token."
      },
      "ApprovalForAll(address,address,bool)": {
        "details": "Emitted when `owner` enables or disables (`approved`) `operator` to manage all of its assets."
      },
      "Transfer(address,address,uint256)": {
        "details": "Emitted when `tokenId` token is transferred from `from` to `to`."
      }
    },
    "kind": "dev",
    "methods": {
      "approve(address,uint256)": {
        "details": "See {IERC721-approve}."
      },
      "balanceOf(address)": {
        "details": "See {IERC721-balanceOf}."
      },
      "getApproved(uint256)": {
        "details": "See {IERC721-getApproved}."
      },
      "name()": {
        "details": "See {IERC721Metadata-name}."
      },
      "owner()": {
        "details": "Returns the address of the current owner."
      },
      "ownerOf(uint256)": {
        "details": "See {IERC721-ownerOf}."
      },
      "renounceOwnership()": {
        "details": "Leaves the contract without owner. It will not be possible to call `onlyOwner` functions anymore. Can only be called by the current owner. NOTE: Renouncing ownership will leave the contract without an owner, thereby removing any functionality that is only available to the owner."
      },
      "safeTransferFrom(address,address,uint256)": {
        "details": "See {IERC721-safeTransferFrom}."
      },
      "safeTransferFrom(address,address,uint256,bytes)": {
        "details": "See {IERC721-safeTransferFrom}."
      },
      "setApprovalForAll(address,bool)": {
        "details": "See {IERC721-setApprovalForAll}."
      },
      "supportsInterface(bytes4)": {
        "details": "See {IERC165-supportsInterface}."
      },
      "symbol()": {
        "details": "See {IERC721Metadata-symbol}."
      },
      "tokenByIndex(uint256)": {
        "details": "See {IERC721Enumerable-tokenByIndex}."
      },
      "tokenOfOwnerByIndex(address,uint256)": {
        "details": "See {IERC721Enumerable-tokenOfOwnerByIndex}."
      },
      "tokenURI(uint256)": {
        "details": "See {IERC721Metadata-tokenURI}."
      },
      "totalSupply()": {
        "details": "See {IERC721Enumerable-totalSupply}."
      },
      "transferFrom(address,address,uint256)": {
        "details": "See {IERC721-transferFrom}."
      },
      "transferOwnership(address)": {
        "details": "Transfers ownership of the contract to a new account (`newOwner`). Can only be called by the current owner."
      }
    },
    "version": 1
  },
  "userdoc": {
    "kind": "user",
    "methods": {},
    "version": 1
  },
  "storageLayout": {
    "storage": [
      {
        "astId": 138,
        "contract": "contracts/PepeDisc.sol:PepeDisc",
        "label": "_name",
        "offset": 0,
        "slot": "0",
        "type": "t_string_storage"
      },
      {
        "astId": 140,
        "contract": "contracts/PepeDisc.sol:PepeDisc",
        "label": "_symbol",
        "offset": 0,
        "slot": "1",
        "type": "t_string_storage"
      },
      {
        "astId": 144,
        "contract": "contracts/PepeDisc.sol:PepeDisc",
        "label": "_owners",
        "offset": 0,
        "slot": "2",
        "type": "t_mapping(t_uint256,t_address)"
      },
      {
        "astId": 148,
        "contract": "contracts/PepeDisc.sol:PepeDisc",
        "label": "_balances",
        "offset": 0,
        "slot": "3",
        "type": "t_mapping(t_address,t_uint256)"
      },
      {
        "astId": 152,
        "contract": "contracts/PepeDisc.sol:PepeDisc",
        "label": "_tokenApprovals",
        "offset": 0,
        "slot": "4",
        "type": "t_mapping(t_uint256,t_address)"
      },
      {
        "astId": 158,
        "contract": "contracts/PepeDisc.sol:PepeDisc",
        "label": "_operatorApprovals",
        "offset": 0,
        "slot": "5",
        "type": "t_mapping(t_address,t_mapping(t_address,t_bool))"
      },
      {
        "astId": 1188,
        "contract": "contracts/PepeDisc.sol:PepeDisc",
        "label": "_ownedTokens",
        "offset": 0,
        "slot": "6",
        "type": "t_mapping(t_address,t_mapping(t_uint256,t_uint256))"
      },
      {
        "astId": 1192,
        "contract": "contracts/PepeDisc.sol:PepeDisc",
        "label": "_ownedTokensIndex",
        "offset": 0,
        "slot": "7",
        "type": "t_mapping(t_uint256,t_uint256)"
      },
      {
        "astId": 1195,
        "contract": "contracts/PepeDisc.sol:PepeDisc",
        "label": "_allTokens",
        "offset": 0,
        "slot": "8",
        "type": "t_array(t_uint256)dyn_storage"
      },
      {
        "astId": 1199,
        "contract": "contracts/PepeDisc.sol:PepeDisc",
        "label": "_allTokensIndex",
        "offset": 0,
        "slot": "9",
        "type": "t_mapping(t_uint256,t_uint256)"
      },
      {
        "astId": 7,
        "contract": "contracts/PepeDisc.sol:PepeDisc",
        "label": "_owner",
        "offset": 0,
        "slot": "10",
        "type": "t_address"
      },
      {
        "astId": 3607,
        "contract": "contracts/PepeDisc.sol:PepeDisc",
        "label": "_tokenIds",
        "offset": 0,
        "slot": "11",
        "type": "t_struct(Counter)1943_storage"
      },
      {
        "astId": 3610,
        "contract": "contracts/PepeDisc.sol:PepeDisc",
        "label": "saleIsActive",
        "offset": 0,
        "slot": "12",
        "type": "t_bool"
      },
      {
        "astId": 3613,
        "contract": "contracts/PepeDisc.sol:PepeDisc",
        "label": "listingPrice",
        "offset": 0,
        "slot": "13",
        "type": "t_uint256"
      },
      {
        "astId": 3616,
        "contract": "contracts/PepeDisc.sol:PepeDisc",
        "label": "freeMintablePerDrive",
        "offset": 0,
        "slot": "14",
        "type": "t_uint256"
      },
      {
        "astId": 3618,
        "contract": "contracts/PepeDisc.sol:PepeDisc",
        "label": "_nftBaseURI",
        "offset": 0,
        "slot": "15",
        "type": "t_string_storage"
      },
      {
        "astId": 3620,
        "contract": "contracts/PepeDisc.sol:PepeDisc",
        "label": "pepeStakingAddress",
        "offset": 0,
        "slot": "16",
        "type": "t_address"
      },
      {
        "astId": 3622,
        "contract": "contracts/PepeDisc.sol:PepeDisc",
        "label": "pepeDriveIIAddress",
        "offset": 0,
        "slot": "17",
        "type": "t_address"
      },
      {
        "astId": 3624,
        "contract": "contracts/PepeDisc.sol:PepeDisc",
        "label": "pepeCharacterAddress",
        "offset": 0,
        "slot": "18",
        "type": "t_address"
      },
      {
        "astId": 3626,
        "contract": "contracts/PepeDisc.sol:PepeDisc",
        "label": "team1",
        "offset": 0,
        "slot": "19",
        "type": "t_address"
      },
      {
        "astId": 3628,
        "contract": "contracts/PepeDisc.sol:PepeDisc",
        "label": "team2",
        "offset": 0,
        "slot": "20",
        "type": "t_address"
      },
      {
        "astId": 3647,
        "contract": "contracts/PepeDisc.sol:PepeDisc",
        "label": "freePerDriveID",
        "offset": 0,
        "slot": "21",
        "type": "t_mapping(t_uint256,t_uint256)"
      },
      {
        "astId": 3652,
        "contract": "contracts/PepeDisc.sol:PepeDisc",
        "label": "discDetails",
        "offset": 0,
        "slot": "22",
        "type": "t_mapping(t_uint256,t_struct(DiscDetails)3643_storage)"
      }
    ],
    "types": {
      "t_address": {
        "encoding": "inplace",
        "label": "address",
        "numberOfBytes": "20"
      },
      "t_array(t_uint256)dyn_storage": {
        "base": "t_uint256",
        "encoding": "dynamic_array",
        "label": "uint256[]",
        "numberOfBytes": "32"
      },
      "t_bool": {
        "encoding": "inplace",
        "label": "bool",
        "numberOfBytes": "1"
      },
      "t_enum(DiscType)3637": {
        "encoding": "inplace",
        "label": "enum PepeDisc.DiscType",
        "numberOfBytes": "1"
      },
      "t_mapping(t_address,t_bool)": {
        "encoding": "mapping",
        "key": "t_address",
        "label": "mapping(address => bool)",
        "numberOfBytes": "32",
        "value": "t_bool"
      },
      "t_mapping(t_address,t_mapping(t_address,t_bool))": {
        "encoding": "mapping",
        "key": "t_address",
        "label": "mapping(address => mapping(address => bool))",
        "numberOfBytes": "32",
        "value": "t_mapping(t_address,t_bool)"
      },
      "t_mapping(t_address,t_mapping(t_uint256,t_uint256))": {
        "encoding": "mapping",
        "key": "t_address",
        "label": "mapping(address => mapping(uint256 => uint256))",
        "numberOfBytes": "32",
        "value": "t_mapping(t_uint256,t_uint256)"
      },
      "t_mapping(t_address,t_uint256)": {
        "encoding": "mapping",
        "key": "t_address",
        "label": "mapping(address => uint256)",
        "numberOfBytes": "32",
        "value": "t_uint256"
      },
      "t_mapping(t_uint256,t_address)": {
        "encoding": "mapping",
        "key": "t_uint256",
        "label": "mapping(uint256 => address)",
        "numberOfBytes": "32",
        "value": "t_address"
      },
      "t_mapping(t_uint256,t_struct(DiscDetails)3643_storage)": {
        "encoding": "mapping",
        "key": "t_uint256",
        "label": "mapping(uint256 => struct PepeDisc.DiscDetails)",
        "numberOfBytes": "32",
        "value": "t_struct(DiscDetails)3643_storage"
      },
      "t_mapping(t_uint256,t_uint256)": {
        "encoding": "mapping",
        "key": "t_uint256",
        "label": "mapping(uint256 => uint256)",
        "numberOfBytes": "32",
        "value": "t_uint256"
      },
      "t_string_storage": {
        "encoding": "bytes",
        "label": "string",
        "numberOfBytes": "32"
      },
      "t_struct(Counter)1943_storage": {
        "encoding": "inplace",
        "label": "struct Counters.Counter",
        "members": [
          {
            "astId": 1942,
            "contract": "contracts/PepeDisc.sol:PepeDisc",
            "label": "_value",
            "offset": 0,
            "slot": "0",
            "type": "t_uint256"
          }
        ],
        "numberOfBytes": "32"
      },
      "t_struct(DiscDetails)3643_storage": {
        "encoding": "inplace",
        "label": "struct PepeDisc.DiscDetails",
        "members": [
          {
            "astId": 3640,
            "contract": "contracts/PepeDisc.sol:PepeDisc",
            "label": "tokenType",
            "offset": 0,
            "slot": "0",
            "type": "t_enum(DiscType)3637"
          },
          {
            "astId": 3642,
            "contract": "contracts/PepeDisc.sol:PepeDisc",
            "label": "discLevel",
            "offset": 0,
            "slot": "1",
            "type": "t_uint256"
          }
        ],
        "numberOfBytes": "64"
      },
      "t_uint256": {
        "encoding": "inplace",
        "label": "uint256",
        "numberOfBytes": "32"
      }
    }
  }
}